:020000021000EC
:1000000000000000000000000000000000000000F0
:1000100000000000000000000000000000000000E0
:1000200000000000000000000000000000000000D0
:1000300000000000000000000000000000000000C0
:1000400000000000000000000000000000000000B0
:1000500000000000000000000000000000000000A0
:100060000000000000000000000000000000000090
:100070000000000000000000000000000000000080
:100080000000000000000000000000000000000070
:100090000000000000000000000000000000000060
:1000A0000000000000000000000000000000000050
:1000B0000000000000000000000000000000000040
:1000C0000000000000000000000000000000000030
:1000D0000000000000000000000000000000000020
:1000E0000000000000000000000000000000000010
:1000F0000000000000000000000000000000000000
:1001000000000000000000000000000000000000EF
:1001100000000000000000000000000000000000DF
:1001200000000000000000000000000000000000CF
:1001300000000000000000000000000000000000BF
:1001400000000000000000000000000000000000AF
:10015000000000000000000000000000000000009F
:10016000000000000000000000000000000000008F
:10017000000000000000000000000000000000007F
:10018000000000000000000000000000000000006F
:10019000000000000000000000000000000000005F
:1001A000000000000000000000000000000000004F
:1001B000000000000000000000000000000000003F
:1001C000000000000000000000000000000000002F
:1001D000000000000000000000000000000000001F
:1001E000000000000000000000000000000000000F
:1001F00000000000000000000000000000000000FF
:10020000102A0020911101000B9701007D110100BF
:100210007D1101007D1101007D1101007D110100A2
:100220000000000000000000000000006912010052
:100230007D11010000000000311401007D1101005A
:10024000B1140100B1140100B1140100B114010096
:10025000B1140100B1140100B1140100B114010086
:10026000B1140100B1140100B1140100B114010076
:10027000B1140100B1140100B1140100B114010066
:10028000B1140100B1140100B1140100B114010056
:10029000B1140100B1140100B1140100B114010046
:1002A000B1140100B1140100B1140100B114010036
:1002B000B1140100B1140100B1140100B114010026
:1002C000B1140100B1140100B1140100B114010016
:1002D000B1140100B1140100B1140100B114010006
:1002E000B1140100B1140100B1140100B1140100F6
:1002F000B1140100B1140100B1140100B1140100E6
:10030000B1140100B1140100B1140100B1140100D5
:10031000B1140100B1140100B1140100B1140100C5
:10032000B1140100B1140100B1140100B1140100B5
:10033000B1140100B1140100B1140100B1140100A5
:10034000B1140100B1140100B1140100B114010095
:04035000B1140100E3
:1003540053B94AB9002908BF00281CBF4FF0FF3128
:100364004FF0FF3000F00CB8ADF1080C6DE904CE8D
:1003740000F012F8DDF804E0DDE9022304B0704770
:10038400704700BF10F8012B11F8013B012A28BF68
:100394009A42F7D0D01A70472DE9F0478C468E4622
:1003A400089E154604461946002B40F0D08072453D
:1003B40047D9B2FA82F74FB1C7F120030EFA07FC0E
:1003C400BD40BC4020FA03F343EA0C0C4FEA154E3F
:1003D400A8B2230CBCFBFEF80EFB18CC08FB00F9FA
:1003E40043EA0C43994528D9EB1808F1FF3204D2AB
:1003F400994502D9A8F102022B44A3EB0903A4B244
:10040400B3FBFEFC0EFB1C330CFB00F044EA03447C
:10041400A04214D92C190CF1FF3304D2A04202D902
:10042400ACF102032C44241A43EA02401EB1FC40FE
:10043400002334607360BDE8F0874246DDE763461D
:10044400F1E7002A79D0B2FA82F3002B3FD01946A3
:10045400C1F1200302FA01F500FA01F42EFA03F2C5
:100464000EFA01FE20FA03F3AFB243EA0E034FEA99
:10047400154EB2FBFEFC0EFB1C201A0C0CFB07F8FD
:1004840042EA004290455AD9AA180CF1FF3004D22E
:10049400904502D9ACF102002A44A2EB08029BB2B7
:1004A400B2FBFEFC0EFB1C220CFB07F743EA0243E3
:1004B4009F4246D9EB180CF1FF3204D29F4202D975
:1004C400ACF102022B44DB1B42EA004202E0AEEB39
:1004D400020301224FEA154EAFB2200CB3FBFEFC1F
:1004E4000EFB1C330CFB07F840EA034398452AD95A
:1004F400EB180CF1FF3004D2984502D9ACF102009C
:100504002B44A3EB0803A4B2B3FBFEFC0EFB1C3389
:100514000CFB07F744EA0344A74216D92C190CF143
:10052400FF3304D2A74202D9ACF102032C44E41BEA
:1005340043EA00400F46114678E71F2188E76046EA
:10054400ABE76246BFE76046DBE76346EFE7734528
:1005540006D916B9002108466DE7C6E9000EF9E789
:10056400B3FA83F787B9734501D3824207D8841A53
:100574006EEB030301209C461EB900215BE738465D
:10058400FAE7C6E9004CF8E7C7F1200CBB4000FAD3
:1005940007F422FA0CF520FA0CF1BA401D432EFAA6
:1005A4000CF30EFA07FE4FEA154941EA0E011FFA51
:1005B40085FEB3FBF9F809FB18300B0C08FB0EFAA7
:1005C40043EA00439A4540D9EB1808F1FF3004D2BE
:1005D4009A4502D9A8F102002B44A3EB0A0389B27D
:1005E400B3FBF9F809FB183308FB0EFE41EA03419B
:1005F4008E452CD9691808F1FF3304D28E4502D9EF
:10060400A8F10203294443EA0040A1EB0E01A0FB38
:1006140002984145CE46434602D306D14C4504D206
:100624000138B9EB020E68EB0503002EA5D0B4EB3C
:100634000E0261EB030101FA0CFC22FA07F3F94004
:100644004CEA0303C6E9003197E74046C5E7434651
:10065400D9E700001FB50223019002938DF80C30F6
:1006640007489DF80C30826843F002038DF80C3083
:1006740094683823012201A9A04704B010BD00BF2B
:1006840024DA01002DE9F04136488CB008F06EFE02
:10069400354C20460CF0D3FA002859D042F64123B9
:1006A40002A8ADF80830FFF7D5FF20B14122382168
:1006B4002E4808F05BFE41F2420303A8ADF80C306B
:1006C400FFF7C8FF20B142223821284808F04EFE27
:1006D400002604AD0DF107030693012307930623B7
:1006E40050270A9307232E60AE808DF807708DF88B
:1006F400206009958DF82C309DF82C30A26843F0C9
:1007040002038DF82C30D2F80880382302221648D0
:1007140006A9C04720B13A463821154808F026FEFC
:10072400144808F023FEBDF81010134808F01EFE0C
:10073400BDF81210114808F019FEBDF81410104845
:1007440008F014FE00214FF400400CF05EFDC1E7F8
:1007540021680C4808F00AFE4FF0FF300CB0BDE8E9
:10076400F08100BF6EE4010024DA0100A8E4010076
:10077400E1E4010019E501003AE501004AE5010060
:100784005CE501008EE40100014B1B68184700BFC3
:10079400D0000020014B1860704700BFD00000203B
:1007A40030B5044685B00D461022002168460CF091
:1007B400D4FE02238DF80230044B2A4621466846B3
:1007C400019307F0EFFA05B030BD00BF8D070100BB
:1007D40080B505460E461746984606F0B3FD034617
:1007E40000F076FE0446DFF81890424649F80030DF
:1007F40039463046A84754F8090000F001FE00BF0E
:10080400080000002DE9F047058B04462807174629
:100814000CD501290CBF45F0100545F020052583B2
:1008240087F31188BFF36F8FBDE8F087022905F0C5
:10083400070540F09480204608F0C0FD052864D8E0
:1008440001A353F820F000BF25080100630901004B
:100854000F090100D1080100EB080100FD080100A7
:1008640001F007035A1F012A1FD8002221F00701B3
:10087400062BD4F8008089B2C4E9002209D143468A
:1008840003E0628B013262831B68002BF9D141F0D3
:1008940002012046218308F091FD4FF00009002851
:1008A4006DD041F02001218369E0042B0AD121F0AD
:1008B400070189B22046218308F080FD10B141F080
:1008C400200121834FF00008C14658E02369D3F882
:1008D4000090238B23F0070343F006034FF0000836
:1008E400238346464BE02369D3F80490238B23F0FB
:1008F400070343F00403F1E72369D3F80890238B3B
:1009040023F0070343F00503E8E74FF00008C1466E
:10091400E7E7012243F00803238387F31188BFF339
:100924006F8F002A3BD1B8F1000F4AD1B9F1000F03
:1009340002D020462C49C847EFF31187202383F3C4
:100944001288BFF36F8F238B23F008039BB223839A
:10095400D9063FD523F01002228303F00705666908
:10096400218B002EBFF67CAF00239946D4F800807B
:1009740021F00701C4E9003341F001012183238BF5
:1009840003F0070AAA4502D0A268002AC1D1B8F12F
:10099400000F02D1B9F1000FDAD00022BAE7A16842
:1009A4000029C0D00D680029BDD0334652462046E8
:1009B4004F68B8471DB12B6829461D46F3E72B46FF
:1009C400FAE74146334652462046D8F8008008F0FC
:1009D40021FDA8E79A067FF523AF23F020022283A6
:1009E40003F0070527E700BF45940100014B0360AE
:1009F4000020704798E0010007B51B491B4809F027
:100A040085F870BB1A49194809F080F848BB1949A0
:100A1400164809F07BF820BB1749144809F076F80A
:100A2400F8B90146154A114809F052FBC8B9024603
:100A3400012313490D4809F025FC90B9012301460F
:100A44000093EF220223094808F06AFF48B90748D7
:100A540008F08FFF28B9054803B05DF804EB08F0EF
:100A6400B8BF03B05DF804FB480100202407002050
:100A7400300100201801002000010020D4000020D3
:100A84006DE5010008B5044808F070FC034808F05F
:100A94006DFC002008BD00BF86E50100BBE5010038
:100AA400014806F095BF00BF98E0010038B5044640
:100AB40018B90F4B0F485B6898476168B1F5683FF8
:100AC40010D0B1F5680F0DD00B4DA9420AD011F426
:100AD4006861206807D0014608480CF05BF90023E0
:100AE4002360656038BD14220CF037FDF9E700BFC0
:100AF40040050020E8E501002C5F5CA96811002096
:100B040008B560B34368B3F5683F0ED0B3F5680F1A
:100B140018D0144A934220D000684FF0FF324FF0AF
:100B2400FF3305F083FD58B115E001220368D3E8D3
:100B3400EF1F002903D1C3E8E02F0028F7D10AD121
:100B4400002008BD0368084A1B7803F5807352F837
:100B54002330002BF4D00548F3E70548F1E76FF4A0
:100B6400E040EEE72C5F5CA900000350E98FFFFF33
:100B7400EA8FFFFF08B520B34368B3F5683F09D097
:100B8400B3F5680F13D0114A93421DD0006805F0E5
:100B9400BFFD14E000220368D3E8EF1F012903D14D
:100BA400C3E8E02F0028F7D109D0094808BD002187
:100BB4000368084A1B7803F5807342F82310002069
:100BC400F4E76FF4E040F1E70348EFE72C5F5CA93A
:100BD400E98FFFFF00000350EA8FFFFF10B50446C2
:100BE40018B91D4B1D485B6898476368B3F5683FA7
:100BF4002FD0B3F5680F2CD0194A934219D123682A
:100C040003BB4FF0FF324FF0FF332146154805F088
:100C140015FC08B923681BB90F4B13485B68984748
:100C24001422002120680CF098FC4FF46863636080
:100C340008E0B3F5680F0DD83A2B03D040F6BA623A
:100C44009342DED120680CF004F9636843F03A0360
:100C5400636010BD054AF3E740050020E8E50100A4
:100C64002C5F5CA9681100200EE601003A00003AEE
:100C740008B506494023142205480CF07EF8BDE867
:100C840008400449044806F015BF00BF680C002062
:100C940068110020A0E00100B4E0010008B5034899
:100CA400034A0021121A08F026FD08BDB8070020E7
:100CB400D0160020074808B5074A0849121A08F058
:100CC4001CFDBDE808400648064A0749121A08F008
:100CD40014BD00BF00000020B807002098EB0100FD
:100CE400000000200000002098EB010038B5054604
:100CF4000C4699B1D1E901230F48096808F036FB85
:100D0400D4E90423E1680D4808F030FBE1690C489C
:100D140008F02CFBA1690B4808F028FB012D05D134
:100D2400EFF305810848103908F020FB21462846D6
:100D3400BDE8384005F01CBA3BE601006BE6010053
:100D44009BE60100ABE60100DAE6010030BFFFF7E5
:100D5400FDBF00BF2DE9F04105460B4EDFF82C80A6
:100D6400324606EB0807CC1B204609490CF0E8FB89
:100D7400A01942460021083C0CF0EFFBC5F8AC403A
:100D840007F10800BDE8F081000000000800000041
:100D940000DE010010B5204C204808F0E7FAA36AF1
:100DA400990137D51E4808F0E1FA1E20A36ADA013A
:100DB40003D51C4808F0DAFA1F20174CA36ADB029B
:100DC40003D5194808F0D2FA0220A36A1C0303D5FC
:100DD400164808F0CBFA21200F4CA36A590303D517
:100DE400134808F0C3FA2220A36A9A0303D51148D2
:100DF40008F0BCFA2320084CA36ADB0303D50E4891
:100E040008F0B4FA2420A36A6FEA03436FEA134399
:100E1400A36210BD1D20C9E700ED00E0EEE601006D
:100E240007E701001BE7010036E7010061E7010065
:100E340080E70100A6E70100C1E7010070B5244C7A
:100E4400064624480D4608F091FAA36AD90435D51C
:100E5400214808F08BFA1720A36A1A0503D51F4806
:100E640008F084FA18201A4CA36A9B050FD51C4875
:100E740008F07CFAA16BA36A180407D5194808F096
:100E840075FA1EB1A36A23F40043A3621920104C1F
:100E9400A36A590503D5144808F068FA1A20A36A0E
:100EA400DA050DD5114808F061FA1B20084A936A47
:100EB40043F47F43936200232B7070BD1620CBE76D
:100EC400A36A9B04F2D50A4808F050FA1C20EDE707
:100ED40000ED00E0EDE7010004E8010016E8010080
:100EE4002AE8010044E801005AE8010076E801001C
:100EF4008FE8010070B5264C064626480D4608F0DA
:100F040035FAA36AD80640D5234808F02FFA1120F1
:100F1400A36A190703D5214808F028FA12201C4CAB
:100F2400A36A9A070FD51E4808F020FA616BA36ADA
:100F34001B0607D51B4808F019FA1EB1A36A23F053
:100F44008003A3621320124CA36ADE0703D516485C
:100F540008F00CFA1420A36A9C0603D5134808F081
:100F640005FA15200A4B9A6AD10658BF9A6A9A6AFA
:100F7400920642BF5A6A22F400525A629A6A42F0B6
:100F8400FF029A6200232B7070BD1020C0E700BFDF
:100F940000ED00E0BFE80100D6E8010016E801001A
:100FA4000AE9010023E901003AE901008FE80100A0
:100FB4002DE9F0415D4B04465F6800258AB0C7F314
:100FC400080685F31188BFF36F8F02F07F43B3F1F6
:100FD4007F4F06D102F00C03082B13D1544808F0BC
:100FE400C5F900252C464FF00008F31E8DF8078044
:100FF400092B00F28B80DFE803F00A7F837B898969
:101004008989898710074CBF0C460125EBE74948BD
:10101400464E08F0ABF98DF80780F36A9A0704D5B9
:10102400454808F0A3F900232AE0F36A002B01DA0B
:101034004248F6E7F36A5B00F5D5414808F096F9B3
:101044007369A26943F480737361BFF34F8FBFF375
:101054006F8F32F8023C726922F480727261BFF3BE
:101064004F8FBFF36F8F03F47F42B2F55F4F27D1E9
:10107400DBB2022B24D12168324808F077F92368C7
:101084009DF80720CAB902AE04F120073246206851
:101094006168083403C2BC421646F7D1099A002D90
:1010A40040D0C2F3080121B96FEA52226FEA42220A
:1010B4000992184602A9FFF719FE0AB0BDE8F081AB
:1010C4001A4B9A6AD2B22AB101200DF10701FFF737
:1010D40011FF0FE09A6A12F47F4F05D001200DF141
:1010E4000701FFF7ABFE05E09B6AB3F5803F9AD397
:1010F400FFF750FE0346C3E700200DF10701E6E7C2
:1011040000200DF10701ECE70F488AE70F4B17F4B5
:10111400F87F0F490F4808BF1946A6F1100208F0DE
:1011240025F980E76FF30802C2E700BF00ED00E095
:1011340088E90100B4E90100CCE90100EEE901000D
:10114400FDE901001DEA01003AEA01005AE9010043
:101154006FE901005FEA0100064B5A6942F0100290
:101164005A615A6942F480625A615A6922F008024B
:101174005A61704700ED00E0EFF30880EFF3098156
:1011840001B57246FFF714FF01BD00BF002080F3D4
:101194001488BFF36F8F002080F30A8880F30B88D4
:1011A400104880F3088800200F49087003F056FDAA
:1011B40000200E490860BFF34F8F00F02DF8202067
:1011C40080F311880A484FF40061401880F30988BD
:1011D400EFF314800221084380F31488BFF36F8F68
:1011E40000F0A6F8102A0020CE16002094ED00E0AE
:1011F400D01C0020002318460649D1F89020C2F3E1
:101204000722934200DB7047C1F89830C1F8A00070
:101214000133F6E700ED00E010B572B6002484F364
:101224001388FFF7E7FF23464FF0FF300C4A03F122
:1012340020010133102B42F82100F8D100234FF094
:10124400FF30074A03F160010133102B42F82100FB
:10125400F8D162B6BFF34F8FBFF36F8F10BD00BFDD
:1012640000E100E01EF0040F0CBFEFF30880EFF381
:101274000980816911F8021C0229FFD001B5724668
:1012840008F03DFA01BD00BF40B2002807DB01238E
:101294004109034A00F01F00834042F8213070479F
:1012A40000E100E040B200280CDB012206494309BA
:1012B40000F01F008240203341F82320BFF34F8FFA
:1012C400BFF36F8F704700BF00E100E0054B420998
:1012D40053F82220012300F01F0003FA00F010400D
:1012E400704700BF00E100E040B2002801F10101B5
:1012F400ACBF00F16040064B4FEA4111C9B2ABBF2D
:1013040000F5614000F00F0080F800131954704795
:1013140014ED00E0044B054A23F07F039360BFF310
:101324004F8FBFF36F8F70470002010000ED00E0A4
:1013340008B5FFF7EFFF074AD2F8883023F47003AB
:10134400C2F88830FFF7AAFCFFF7B4FC00F0A2F85B
:1013540004F0D8FF00ED00E042F8203C009B0B496C
:1013640042F81C3C019B21F0010142F8183C029B0D
:1013740042F8081C42F8143C4FF0807342F8043CD5
:101384000023203A0265C0F8B0307047D507010049
:1013940000B50E4B15469860D0F8AC200C4B0E46A9
:1013A4001A60D0F89C3083F30B882C4686F30988A6
:1013B4000020044B98472046002100220023024CC1
:1013C4002047000031970100D5070100381600209E
:1013D400841100201022014B1A61704700ED00E0D7
:1013E400054B5A699B689A421FBF044A536843F0ED
:1013F40080535360704700BF3816002000ED00E0B2
:10140400084B9B6883420BD1EFF3058343B1064B32
:101414005A6842F080525A605A6A22F400425A6270
:1014240005F096BF3816002000ED00E016498A68E2
:101434004FF030001044EFF3098C80E8F01F2020B7
:1014440080F31288BFF36F8F104F4FF000664A6924
:101454008A603E60D2F8AC000D4C2060D2F8B00037
:101464000023C2F8B03080F3118802F1300090E814
:10147400F01F8CF3098802F1000004B508F04EF95E
:10148400BDE80440704700003816002004ED00E079
:1014940084110020002320210348C2180133452B66
:1014A40082F80013F9D1704700E100E008B5EFF3CA
:1014B4000583064A103B02EBC30152F83300496826
:1014C4008847BDE80840FFF78BBF00BFB0DA0100D2
:1014D4000148006870470000841100201FB50121F5
:1014E400094B0A4A0A4800F0F7F80023064A039316
:1014F400084B0121019301A8D31A029300F0F6F8D6
:1015040005B05DF804FB00BF0000072000000020C8
:10151400C4E00100B80700200A7A0B6810B562F332
:1015240004031C46CB68520923F01F0343EA420319
:10153400044A43F00103C2F89800C2F89C40C2F880
:10154400A03010BD00ED00E010B5074BD3F890308B
:10155400C3F30723013B984202D8FFF7DDFF10BD18
:101564006FF01500FBE700BF00ED00E02DE9F04F40
:101574000F46144606464FF000084B4D85B0B8455B
:1015840080F28E80D6F80490B9F1000F35D0B9F10D
:101594001F0F40F2838019F01F0F7FD1D6F800A0EF
:1015A4001AF01F0F7AD1504608F0FCF8834609EB75
:1015B4000A00013808F0F6F883456FD11BF1160FC5
:1015C4006CD05C456ADDC5F898B0D5F89C10C5F8B8
:1015D40098B0D5F8A03021F01F0143F01F0AD6E9D6
:1015E40000321A44994202F1FF391BD1CA4508D18D
:1015F40031465FFA8BF008F0DEF808F101080C368A
:10160400BDE73146C5F898B0D5F89C30E0B263F335
:101614000402C5F89C2008F0CEF810F1160F3DD056
:10162400441CEAE7C5F898B0D5F8A020013B23F0A4
:101634001F0302F01F021343CA453146E0B2C5F846
:10164400A030E8D008F0B7F810F1160F26D0C5F88E
:1016540098B0D5F89C209DF808300AF1FF3A62F35F
:1016640004038DF80830D5F8A0309DF808205B08F5
:1016740063F347128DF80820D6E90032134400932F
:1016840023F01F035344A3EB0903013023F01F038A
:101694006946C0B20393FFF757FFBEE76FF0150426
:1016A400204605B0BDE8F08F00ED00E00522044BB4
:1016B400C3F89420BFF34F8FBFF36F8F704700BF01
:1016C40000ED00E0BFF35F8F0022024BC3F89420CB
:1016D400704700BF00ED00E010B5034C2278FFF71F
:1016E40045FF207010BD00BF901600202DE9F74F74
:1016F400294D8A4606464FF00008AB46274FD04591
:101704001BDAD6F80490B9F1000F3FD031680846CF
:10171400019108F047F80199044609EB01000138EA
:1017240008F040F884424FF014021D4B08D002FB2D
:1017340008F36FF015024BF8032003B0BDE8F08FF7
:1017440014F1160F2C60F8D01978A142F5DD02FBD4
:1017540008B0C7F89840C7F89840D7F89C4000F103
:101764000801007B64F304000871D7F8A0000C7929
:10177400400860F347140C71D7F89C1021F01F0146
:101784006960D7F8A01021F01F01296108F1010850
:1017940014350C36B3E700BF8811002000ED00E0DB
:1017A40090160020F0B55349534DD1F890302C6871
:1017B400C3F307239C4287B000F299800020FFF70F
:1017C40081FF4E4BC1F8C030844216D14C4D01A864
:1017D4002C70FFF70BF9002607464A4CB74213D189
:1017E40000202B784349D1F89020C2F3072293427A
:1017F40077DBFFF75BFF002046E0696801EB00112F
:10180400FFF78AFE0130DFE70199300101EB06138F
:10181400DA682240B2F1807F52D00AD8B2F5001FB4
:1018240034D0B2F5800F3ED0B2F5801F12D001360D
:10183400D4E7B2F1006F43D0B2F1805FF7D15A68B8
:101844009B680958013B22F01F00034423F01F0347
:10185400012032E05A689B680958013B22F01F00BE
:1018640003440120844623F01F0340EA4C10CDE9D1
:1018740002218DF8100002A928780593FFF764FE71
:1018840000282ADA6FF0150007B0F0BD5A689B688B
:101894000958013B22F01F0003444FF0020C0120C1
:1018A40023F01F03E1E75A689B680958013B22F0C3
:1018B4001F000344062023F01F034FF0000CD4E75D
:1018C4005A689B680958013B22F01F0003444FF0FB
:1018D400030C012023F01F03C7E72B7801332B707F
:1018E400A5E7C1F89830C1F8A00001337BE74FF0B9
:1018F400FF30C9E700ED00E0D0E00100AAFF44009A
:10190400901600200000F0FF08B5024B1B689847B2
:10191400002008BD9C110020034B044A18609378F2
:1019240043F00203937070479C1100208001002053
:1019340008B50649064821F00701C1F1005202F535
:10194400E02207F0BFFC002008BD00BF4F3D00208F
:10195400A011002070B541690446867A0A4D59B138
:10196400437ADB0706D4242303FB0653DB691B6895
:101974009B689847002363612420214600FB06509E
:10198400BDE870400BF000BB000700202422024B8E
:1019940002FB0030704700BF000700202DE9F04330
:1019A40085B00546684690461C4603910BF00DFD34
:1019B400DDE90067EFF31189202383F31288BFF375
:1019C4006F8F6B8A002B41D02A8A9A4225D9002234
:1019D4000023284604F0ECFE0446F0B189F3118894
:1019E400BFF36F8F039B002B41D032463B466846C2
:1019F4000BF010FD2421A27A254B204601FB023373
:101A0400DB6903A91B681D68DDE90023A847606141
:101A140070BB2046FFF79EFF24E0698A4B1E6B8251
:101A240089F31188BFF36F8F2B7D2A8A2C6A1B33AD
:101A340023F00303521A02FB0344154B154AEB1A15
:101A44009B105343A3722B7DE372CBE789F3118878
:101A5400BFF36F8F23464246284604F0A9FE04468E
:101A64000028BFD10024204605B0BDE8F08363619F
:101A7400012300252381039B29466382E27A656062
:101A840004F118000BF069FD63692582E360EAE75D
:101A940000070020398EE33870B524250C4C00B9BA
:101AA40070BD037A4668002BFAD0013BDBB20372A7
:101AB400002BF5D1C3604360837A05FB03439B6924
:101AC40013B198473046EAE7FFF744FFFAE700BF4F
:101AD40000070020052370B5144D154E2C780134F1
:101AE400B4FBF3F303EB8303E41A0AF003FB114A98
:101AF400137823B156F82430C01A072814D94FF0AC
:101B04005023D3F8141141B10021C3F81411D3F8B0
:101B140014312C700CB9012313702C780AF0EAFAF2
:101B240046F82400012070BD0020FCE79216002036
:101B3400AC11002091160020054B03EB8000D0F877
:101B4400003223F0E04343F04053C0F800327047C2
:101B540000258450012208B50B4B0C49C3F800251D
:101B640002230020C1F8D036FFF7E6FF1046FFF746
:101B7400E3FFC1F80427C1F80429C1F8002BBDE82C
:101B8400084000F07BB800BF001000500040005037
:101B940007B500220E4B0F49C3F8A821C3F8AC20A7
:101BA4004FF48062C3F8B8254FF400620A48C3F8C2
:101BB4003C250DF107020AF0F1FA002803DB9DF839
:101BC400070003F037F903B05DF804EB00F05EB8EA
:101BD40000A002502CA0025028A1025048B1054B8D
:101BE400054A1B68B3FBF2F35843044B43F001036B
:101BF400184770472805002040420F0000DE01000E
:101C040070B50025104E1149114C000716F8013B20
:101C140003F01F025B090FD0012B0FD1234603EB06
:101C24008203D3F80022013522F0E0420243042D5E
:101C3400C3F80022EAD170BD0B46F0E700238032DE
:101C440053F82230FFDE00BF68EB0100002584500A
:101C5400002884501FB50023019303930123694690
:101C64000548029307F00CFC029B9B0708BF039BEB
:101C740005B05DF804FB00BFC01100200149024813
:101C840007F0EBBBF8E00100C01100201022024B6A
:101C9400C3F84024FFF7DEBF0030005008B54FF012
:101CA400FF33044A13603F231046536003F0AEF839
:101CB400002008BDDC1100202DE9F04190F8283007
:101CC400044603F01F03012B0F4600F128062FD012
:101CD400022B18D08BB3204694F8291007F0BCFED1
:101CE400024678B3304607F0A1FF1D4D002834D1D9
:101CF40013693BB33A463146204698470346FFF7FB
:101D0400E7FB2B5024E0818DC9B208F081FA054627
:101D14000028E0D0304607F089FF024668688368EF
:101D2400CAB99B6873B13A463146BDE8F0411847D9
:101D3400818DC9B208F053FAE9E790F8291008F048
:101D44008AFAE4E7FFF7C4FB6FF08502044B1A50EC
:101D54000020BDE8F081DB68E4E7D368C9E700BF91
:101D64000C0000002DE9F04F0B7E044633F0800890
:101D74000D46164693B040F08E847AB10846FFF7BC
:101D84008BFE6B7EDF0703D49E0711D52B7E7BB9B8
:101D9400204613B0BDE8F04F07F074BF4A7E00F14F
:101DA4002809900708D5802B0CD12846FFF774FE2C
:101DB400404613B0BDE8F08F910700F02784002B54
:101DC40040F02484D2072FD52B8A082B40F00684B8
:101DD400EA68294613680020A3625368C9F80430EE
:101DE40007F010FD054610B1FFF756FEEFE0484638
:101DF40007F01CFFE28D70B9B2B12946A06909F061
:101E04000BFA0146002800F02D84204613B0BDE8EB
:101E1400F04F08F0A1BB3AB11146204608F097FBF9
:101E24000546002800F01E84FFF752FB002394F8B7
:101E34002880B14F18F0600FC351C8F3411307D085
:101E4400032B40F0BD81FFF743FB6FF0850337E0C0
:101E5400484607F0EBFE94F82930002840F04E8104
:101E6400013B0A2BEFD801A252F823F0E71F01002F
:101E74004B1E0100732001004B1E01009D1E01003A
:101E84004B1E01004B1E01004B1E01000D1F0100E3
:101E94004B1E01006F1F0100618D7F29D3D8A38DD4
:101EA400002BD0D1E38D002BCDD118F01F0FCAD158
:101EB40094F83030022B05D1FFF70AFB4FF0FF33C3
:101EC4003B5076E0A069036993F880301B0707D57F
:101ED400C9B207F00AFF804628B1002D6CD167E72C
:101EE400012384F8393094F83030012B0AD1638D02
:101EF40043B984F83030FFF7EBFA3B58002B00F07D
:101F0400858056E00123F4E7204607F004FD628D46
:101F14000146FF2A97D8E38D002B94D194F82830FA
:101F2400D80690D194F83030002BC5D02AB1204681
:101F3400D2B208F07AF80028BED0618D94F8383017
:101F44008B42D8D02046C9B208F076F880460028E3
:101F5400C3D1628D0521002A14BF02230123204628
:101F640084F8303008F082FBC5E708F01F08B8F1A8
:101F7400010F7FF468AFE38D002B7FF464AF628DB3
:101F8400FF2A3FF660AFA18DFF293FF65CAF94F8BE
:101F94003030022B90D12046D2B2C9B208F05BFA9D
:101FA40010F1020F804640F01081FFF791FA47F8D4
:101FB400008065B14FF000082846FFF76DFDB8F1C9
:101FC400000F7FF4F5AEFFF783FA3B58F3B14846B0
:101FD40007F02CFE0346A069002B00F04F838021FC
:101FE40055E3E38D002B7FF42EAF94F83030002BB3
:101FF4003FF462AF012BA18D02D100297FF45CAFC5
:1020040018F01F080CD0B8F1020F16D0E38D002B86
:1020140040F0D782204607F01FFE0028D7D1B7E64C
:1020240000297FF449AF638D012BEFD194F86C3014
:1020340061F3C30384F86C30E8E7B4F82AA0BAF17A
:10204400000FE3D15FFA81F84146204608F0F4FA24
:102054000346FFF73DFA3B50013302D14FF0FF38FE
:102064003BE752464146204607F0E6FD43E7E38D51
:10207400002B7FF4E8AE628DA38D022A5FFA83FA07
:1020840011D108F01F085AEA08087FF4DCAE0122D7
:10209400A069190A07F009FE00287FF4D4AE0123D1
:1020A40084F8393027E794F8301000293FF404AF5E
:1020B400012902D1002B7FF4FFAE18F01F0811D0C4
:1020C400B8F1020FA2D1002AA0D15146204608F04F
:1020D4009FFA0346FFF7FCF93B500133BED00122BF
:1020E4005146C0E7002B7FF4E7AE012A8ED194F865
:1020F4006C3043F008039DE70C0000000A2B3FF608
:10210400A2AE01A252F823F0392101004B1E0100B6
:102114004B1E01004B1E01004B1E01004B1E010013
:10212400B32101004B1E0100432501004B1E010099
:102134006D250100E38D022B7FF485AE94F83030D9
:10214400002B3FF4B9AE012BA18D02D100297FF4FD
:10215400B3AE18F01F0811D0B8F1020F1CD04FF025
:10216400000805F10C0A504607F058FDE38D98422B
:1021740018D2FFF7ADF96FF00B03A1E600297FF445
:102184009BAE94F86C304FEA930808F00208C3F34E
:10219400001348EA0308E4E72046C9B208F05BFAF2
:1021A4008046DEE74146504607F04FFBA3E6B4F80D
:1021B4002AA018F01F0F4FEA1A235FFA8AFA09D0EF
:1021C40029462046FFF778FD8046B8F1000F7FF4DA
:1021D40084AE90E6013B0E2B3FF635AE01A252F8D9
:1021E40023F000BF25220100652201000F23010016
:1021F4004B1E01004B1E01000723010007230100B1
:102204004B1E01004B1E01004B1E01004B1E010022
:102214004B1E01004B1E01004B1E01005124010006
:1022240005F10C08404607F0F9FC83462046B4F853
:102234002EA007F070FB20B101287FF404AE616F7B
:1022440000E0216F002900F02A82DA4528BFDA462F
:102254000A784046524528BF524607F0E5FA4AE656
:10226400204607F058FB0AF1010201460190D2B260
:10227400204607F0B4FE804600283FF4E4AD05F1A3
:102284000C0AD0F804B0504607F0C8FC9BF80020B4
:102294005946824228BF0246504607F0C5FAD8F88C
:1022A4000CB0BBF1000F09D1298AE38D99427FF666
:1022B40022AE5046C91A07F0D2FA1CE6DBF8040035
:1022C40083681B6B13B9DBF800B0EAE70199984700
:1022D4000028F8D0A0F1040858F8041F0029F2D00F
:1022E4000A78002AEFD05046CDE9022107F096FC87
:1022F400029A0399904238BF82B2504607F094FA8A
:10230400EAE7204607F007FB9DE5524603212046F5
:1023140007F0E2FB824600283FF495AD07F079FC14
:10232400B4F82EB09AF81530C8B99AF814808DF81C
:1023340029308DF82880DAF8103005F10C0A1B8852
:102344005046ADF82A3007F069FCC3455A4628BF09
:102354004246824228BF02460AA950467DE74FF012
:102364000008DAF808208DF81530C04B8DF8148079
:102374001340BF4A934258D1102106A809F052F9DC
:10238400021EFFF660AD0AA9102A084628BF1022D3
:10239400DFF8E0E20DF1180C424501F1020133D8F7
:1023A4000346920002325FFA82F88DF8148005F138
:1023B4000C0A5046029307F031FCD845424628BF28
:1023C4005A46904228BF104602288346804628BFBA
:1023D4004FF0020B50465A46A8EB0B0805A907F02C
:1023E40023FA4FEA58030193029B9B4603EB5802DE
:1023F400934521D118F0010F3FF47DAD5046019A69
:10240400995C07F01AFA76E51CF8013B08F101081B
:102414004FEA131A03F00F031EF80AA01EF8033044
:1024240001F802AC01F8013CB6E79AF81480DAF836
:1024340010308DF81480BAE750461BF8011BCDE923
:10244400023207F002FADDE90232D1E7204607F052
:1024540062FA38B101282CD0FFF73AF86FF08503FF
:102464003B5048E5236F002B00F019815B88B3F5DE
:10247400007FF1D9804B04F14C0B0A9300238DF8B3
:102484002C30E36C9B4508BF0023BDF82A10A3B190
:102494005A7D0F2A08D11A7D0A44ADF82A209DF8E6
:1024A4002C2001328DF82C20226D934203D01B681E
:1024B400EBE7636FD7E7BDF82A1005F10C0A504625
:1024C400019107F0ABFBB4F82E800199884528BF31
:1024D4008846804528BF80464246052A28BF0522F3
:1024E40050460AA9019207F09FF9019AB8EB020835
:1024F4003FF401ADE36C5B453FF4FDAC002B3FF4CE
:10250400FAAC5A7D0F2A14D11A7D1969424528BFA5
:1025140042465046019307F087F9019B1A7D4245D4
:1025240094BFA8EB0208A8EB0808B8F1000F3FF429
:10253400E2AC226D93423FF4DEAC1B68DEE794F814
:102544003030002B3FF4B8ACE38D012B7FF47BAC2F
:1025540005F10C08404607F061FB00283FF409AE82
:1025640094F8381040464CE708F01F08B8F1010F02
:102574007FF4A2AC204607F046FD00283FF49CAC53
:10258400B4F82CA0BAF1FF0F3FF65DAC43681B7999
:102594005345FFF458AC5FFA8AF30F2B3FF653AC64
:1025A400E38D012B7FF44FAC05F10C08404607F096
:1025B40035FB00283FF4DDAD04EB0A0393F83A1031
:1025C400D0E7484607F032FB18B92846FFF764FA0B
:1025D40020E52946204607F0BFFF08B1284603E45A
:1025E400A069036993F8801011F004017FF4D0AB63
:1025F40008F026FE054600283FF4E9AC01462046D3
:1026040007F0AAFF00283FF4C3ABE7E752077FF5C2
:10261400DEAC002B3FF4C9AB2846FFF73DFA94F833
:102624003930002B3FF4C4AB94F82930052B05D185
:10263400618DA069C9B207F058FB064694F82930A9
:10264400032B09D1638D022B06D1A18D0022A06931
:10265400090A07F02AFB06460023B04684F83930FD
:10266400FFF7A6BB6FF00B06B1E400BF00FF02004A
:10267400000302006CEB0100050F0500E38D002B45
:102684003FF4ADAC16F10C0118BF0121C90108F0EB
:10269400DCFCFFF77DBB6FF00408FFF789BB6FF02C
:1026A40015081AE40B7810B4062B14D10369D3F877
:1026B4009C20EFF31184202383F31288BFF36F8FE0
:1026C40000204B681860506A58B9C2E9083384F393
:1026D4001188BFF36F8F00220023034810BC0AF057
:1026E400A9BB03605362F2E7B40600202DE9FF4161
:1026F40020264FF0FF334FF0FF325B4801A903F06F
:1027040031FF039B1B69D3F89C40236A93B1EFF319
:10271400118286F31288BFF36F8F216A29B1606A30
:102724000B688142236208BF636282F31188BFF39E
:102734006F8FC9B99DF80430062BDAD0072BD8D88F
:1027440001A252F823F000BF9F2701009327010044
:10275400BF270100A5270100E3270100D9270100B5
:10276400F7260100672801000B7E20465D06D1F89C
:102774001E2009D1FFF7F6FA02460028C5D007212A
:10278400204607F073FFC0E707F039FDF4E70022A5
:102794000121204607F06AFFABE700221146F8E763
:1027A40094F86C3001A943F00403204684F86C309B
:1027B40007F0C0FA00220321EBE794F86C3001A97A
:1027C40023F00403204684F86C3007F0B3FA0022A7
:1027D4000221DEE7204601A907F0ACFA89E794F864
:1027E4006C30A76923F0040384F86C30D7F80880B0
:1027F4003B69A033D3E8AF3F9A072FD53846D8F8C2
:102804003C309847D8F8243000213846984705468C
:10281400D8F8403038469847ADB92946204607F0E5
:102824000BFC054678B9A06908F029FD831E5842BF
:10283400584194F86C3084F8305023F0680343EA2C
:10284400401384F86C3000220421204607F00EFF68
:10285400002D3FF44EAF2A4607219AE74FF0FF358B
:10286400F1E70621029A94E7B406002030B589B056
:10287400002200230024CDE906236FF007034FF460
:102884008062CDE90334CDE90144154B1549009428
:10289400154804F0DBFA1549134804F061FA144BA7
:1028A40014498B4207D30020134B14498B420CD399
:1028B400002009B030BD03F11402D2E8EF0FC2E8E2
:1028C400E54F002DF9D11833EBE703F11402D2E8F8
:1028D400EF4FC2E8E50F002DF9D11833E6E700BF4A
:1028E400F1260100D0160020B807002082EA01007A
:1028F400A0070020B8070020B8070020B807002070
:1029040038B5024605460949806908F016FD0446B3
:1029140048B985F83800284607F063FA044610B130
:10292400A86908F039FD204638BD00BFA92601007A
:1029340070B50546074C084EB44202D30024204625
:1029440070BD636828461968FDF71CFD0028F6D0A1
:102954001834F1E7A0070020B807002070B5064638
:10296400EFF31181202383F31288BFF36F8F1B4D84
:102974002A6881F31188BFF36F8F526892F86C2034
:10298400D20705D4BDE870402122002304F07AB9AF
:10299400EFF3118283F31288BFF36F8F2C682CB18D
:1029A400696823688C422B6008BF6B6082F31188CE
:1029B400BFF36F8F44B1606804F10801C36998479D
:1029C400214607480AF0E6F92B6833B13046BDE8E2
:1029D40070400022002304F021B970BDE4110020EE
:1029E4003406002030B585B0CDE90012054600223A
:1029F4000023144803A903F021FD0246E8B9DDE9E8
:102A04000001039B5D60083383E80300EFF311804A
:102A1400202383F31288BFF36F8F039B1A600A4A43
:102A2400516861B9C2E9003380F31188BFF36F8F35
:102A340000220023054804F0F1F805B030BD0B6016
:102A44005360F1E734060020E41100200000002068
:102A540038B54B780469202B4568206908D0222BAF
:102A640019D0FEF735FD6FF08502104B1A5010E0B7
:102A7400CB88072BF5D1D3681A6842609A88028103
:102A84009B79837207F013FE22460821284607F03B
:102A9400FBFD002038BD4B880921C3F3400283812C
:102AA40003F00103027643762246EFE70C000000B0
:102AB40008B513464A78212A14D133B9FEF708FD24
:102AC4006FF00B020A4B1A500AE0CA880169072A00
:102AD400096928BF0722043103F10C0006F0A4FEA3
:102AE400002008BDFEF7F4FC6FF08502004BEAE716
:102AF4000C00000073B5202504698DF80710EFF36E
:102B0400118685F31288BFF36F8F0122E06B0DF1FC
:102B1400070106F0ACFD86F31188BFF36F8F01281F
:102B24000CD00AF0D8FA88B101220C4BD3E8EF1F7D
:102B3400002903D1C3E8E02F0028F7D12122002384
:102B440004F1480004F06AF802B070BDA37E002BC3
:102B5400EAD0002121200AF058FBD0E7EC11002034
:102B640038B5002405690E49EB6B05F14800C3E94B
:102B74000144DC606B6BC3E90144DC600AF092FA47
:102B840005F1780007490AF061FA074905F12400C4
:102B94000AF05CFA284607F08AFD204638BD00BFDB
:102BA40047A80100EDA901006FAA0100F8B5144679
:102BB40087680546FB6B0E46984721460022002392
:102BC4000548FEF7EBFE044600B1067628463B6C4A
:102BD40098472046F8BD00BF0007002010F0080FFA
:102BE4000B4B42B20CD1002A4FF0140200F00F003C
:102BF40002FB0033B4BFD3F80806D3F808077047C4
:102C0400002AB4BFD3F8A806D3F8A807704700BFBA
:102C1400006003500246F8B5EFF31181202383F3DB
:102C24001288BFF36F8F012400F0080508F0DBFB66
:102C3400570604FA00F46FEA04061BD0D5B9174FFF
:102C44003B6823FA00F0C00714D533403B6053B20D
:102C5400DB4322F08000DB0F00F2DA301B0103EBD0
:102C640040030F48C0F80038D0F8043843F002039A
:102C7400C0F804380B4803683340036035B90A4888
:102C84001206036854BF334023430360044BC3F864
:102C94006C4481F31188BFF36F8FF8BD4812002094
:102CA400006003504C1200205012002070B5024600
:102CB40008F099FBEFF31185202383F31288BFF307
:102CC4006F8F0124531E062B04FA00F40FD80F4E05
:102CD4000F4B31681B680B43C34013F0010306D14B
:102CE4000C4802F59472214340F8223031600A4ABC
:102CF4001368234313604FF48002084BC3F8042184
:102D040085F31188BFF36F8F70BD00BF4812002098
:102D140050120020006003504C12002000E100E03B
:102D2400F8B50306044623D410F0080720D100F0B8
:102D34000F02920002F1A04202F55832D2F8443454
:102D4400B3B1EFF31186202383F31288BFF36F8F9F
:102D540008F049FB0123084D03FA00F12B68C2F87F
:102D6400A07423EA01032B6086F31188BFF36F8FED
:102D7400024BC3F81845F8BD501200200060035000
:102D840010B591F91800154B0028B4BFD3F81045BD
:102D9400D3F8144501230A7E02F00F029340234224
:102DA4000DD10E4A0028B5BFD2F81005D2F814058B
:102DB40003430343B4BFC2F81035C2F814350B7E85
:102DC4001A0709D4054AC2F80C3543F48073C2F8D3
:102DD4000C35087EFFF7A4FF002010BD00600350EF
:102DE4000B7E074A13F07F0F0CBF012343F480735B
:102DF4004FF000000CBF5365C2F81835704700BF90
:102E040000600350EFF31180202383F31288BFF393
:102E14006F8F0C4B1A7802F0FF0332B10A49D1F8D4
:102E24002C2562B10022C1F82C2580F31188BFF350
:102E34006F8F002B0CBF6FF00A0000207047134601
:102E4400F3E700BF961600200060035070B50646F5
:102E54000D4607F059FF044607F05FFF28BB2046E4
:102E640007F07EFF08B3802D16D1437E9A0744BF36
:102E74000E4A15705B070FD50D4B1B7813B9012251
:102E84000C4B1A65204607F067FF002201463046C6
:102E9400BDE8704007F07DBF2846FFF707FF2046D6
:102EA400BDE87040012107F03CBF70BD95160020BD
:102EB4009A1600200060035070B506460C4607F0D1
:102EC40023FF054607F029FF20BB284607F048FFEB
:102ED4000146F8B1ACB9437ED8071BD49A0704D590
:102EE40001220D4B1C700D4BDA644B7E5B0708D539
:102EF4000B4B1B7873B13046BDE87040002207F0DD
:102F040048BF2046FFF7D2FE2846BDE870400121A5
:102F140007F007BF70BD00BF951600200060035086
:102F24009B16002010B54468206800F077FF104B12
:102F34001860104B1B782BB100220F4B11461868F8
:102F440007F01BFF002201213720FEF7CDF90022F4
:102F540001213620FEF7C8F9201D02F0D9FA04F148
:102F6400080003F04DF803F02BF8002010BD00BF5B
:102F74000012002097160020541200200128014658
:102F840010B519D0022809D0A8B90F4B0246186809
:102F940007F0F3FE01220D4B1A700CE000220C4BDB
:102FA4000C4C1A700C4B3620C4F80033FEF76CF945
:102FB4000123C4F8043510BD034B0022186807F040
:102FC400DCFE0022014BE7E7541200209716002094
:102FD4009616002000600350FDFFDF01002213B5A8
:102FE400402311460092044607F099FF024618B1A7
:102FF4006FF0040002B010BD0090402380212046F1
:1030040007F08DFF0028F3D101241C491C4B4860B4
:10301400C86018688C6006F033FA0028EADBEFF326
:103024001182202383F31288BFF36F8F4FF4006162
:10303400144BC3F80014C3F80045D3F80014090571
:10304400FBD54FF40061C3F800148021C3F81C15AC
:103054000121C3F8301540F2FF1100200A4B19601A
:103064000A4B18600A4B18600A4B18700A4B187008
:1030740082F31188BFF36F8FBCE700BFF01100200B
:103084000012002000600350501200204C12002057
:103094004812002093160020951600202DE9F041D7
:1030A40005464FF0FF324FF0FF33384803F0E6FB9C
:1030B4004FF48002364B3620C3F88421FEF706F91C
:1030C400A0B14FF00108334F334B3C681B686FF3DA
:1030D4000F041C437CBB40F2FF13304E3B60362090
:1030E400C6F80445FEF7DEF8C6F800432C4A137808
:1030F4008BB10021294BC3F808110121C3F8002624
:10310400C3F804165960D3F808110029FBD0002134
:10311400C3F8081111700024204BC3F800451B4864
:1031240003F078FB2146284607F054FFC0B16FF046
:103134000400BDE8F08194FAA4F6B6FA86F63346A4
:103144000F2EC6BFA6F11003D8B243F080000307C8
:1031540001D4FFF75FFD08FA06F624EA0604B9E78E
:103164008021284607F036FF0028E0D10D4B0E4998
:103174001C68204606F0F3F910F1780F02D12046BE
:1031840006F0C9F900EAE070D3E700BFDC060020CE
:1031940000E100E0501200204C12002000600350B7
:1031A4009316002000120020F0110020014601486F
:1031B4000AF0B4B9EC06002008B5054B1970054BAC
:1031C4001B7813B10420FFF7F1FF002008BD00BFF6
:1031D400981600209916002010B50469087E08F09E
:1031E40002F901230B4A03FA00F013680343136046
:1031F40003F0E4FF4020FFF7D9FF4FF0FF324FF018
:10320400FF3304F18401044803F07AFD03F0EAFF7C
:10321400002010BD44120020F80600202DE9F043E0
:10322400474B89B005460669186006F1840009F029
:1032340010FE002200230024CDE906236FF00703CB
:103244004FF40072CDE90334CDE901443D4B3E49CE
:1032540000953E4803F0FAFDDFF8F4803D49C1468D
:103264003A4803F07DFDD8F810203B4B3B4F134008
:1032740043F4820343F04003C8F810304146284623
:1032840088F8184007F052FD002855D10134092C64
:1032940018D009EB44118A7C082C42F04002304BD0
:1032A4008A7408D1D9F810212E4911402E4A0A43B4
:1032B400C9F8102103E00A693A401A430A6108F187
:1032C4002008DBE7294C8046A1462269284B234F7E
:1032D400134043F4041343F04003236168F07F0276
:1032E40021462846227607F021FD28BB08F1010873
:1032F400B8F1090F18D009EB48118A7CB8F1080F0E
:1033040042F02002164B8A7408D1D9F810211549CD
:103314001140154A0A43C9F8102103E00A693A40EA
:103324001A430A612034D9E796F8803023F07203F7
:1033340043F0720386F8803009B0BDE8F08300BF23
:103344005412002085380100D01A00207008002093
:10335400781300209AEA01000000BEFF0000F9FF84
:10336400400006000000F7FFFF010800581200208B
:103374000000DEFF10B50C461146204607F0F2FCB3
:10338400207E08F030F80146034808F03BF801209D
:10339400FFF70CFF002010BD9C14002008B5064A5E
:1033A4000B7EC2F80C3543F48073C2F80C35087EEA
:1033B400FFF7B6FC002008BD0060035010B50C7E7A
:1033C4004FF0FF324FF0FF33114803F057FA204615
:1033D400FFF720FC012304F00F029340DB430D4A66
:1033E40014F0800F15BFD2F81015D2F814150B4045
:1033F4000B4014BFC2F81035C2F81435044803F06A
:1034040009FA4FF48002044B0020C3F8042110BDD4
:10341400DC0600200060035000E100E02DE9F04FDD
:10342400B24BDFF8CC82D3F85421B24F85B00AB343
:103434000022C3F85421D3F8042391021AD5D3F8F7
:10344400C034002B14BF4FF001224FF48072AA4BFA
:103454009B683BB998F8000007F0C5FF012383403F
:1034640022EA03023B681343A44A3B60136823F037
:10347400012313609D4BD3F8604134B10022C3F89B
:103484006021D3F86C44C3F86C44D3F828214AB1C2
:103494000022C3F828219A4B187807F0A4FF0123CF
:1034A40083401C4398F8005098F900902A0700F1D3
:1034B400FF80B9F1000FB4BF924B934B05F00F029C
:1034C400920013441A683AB3002228461A60FFF7A0
:1034D40085FB8E4B00F001001A78504018708C4B1D
:1034E40028461A6807F07FFFC240D307064600F15A
:1034F400F680B9F1000F80F2E280882D00F0DF80C1
:1035040001237E4AB34011680B431360812388F87A
:103514000030794803F07EF98CB14FF001093B6823
:1035240024F00121754A0B433B601368DFF8E4A1E2
:1035340023EA01031360A4B2002C40F0F7806B4B24
:10354400D3F800214AB10022C3F80021724B0421B0
:103554001A70704B186807F010FC644BD3F85821AC
:103564002AB30022C3F85821D3F80044E005C3F875
:10357400004405D50122684B08201A70FFF716FE97
:10358400A10505D50022644B10201A70FFF70EFE2A
:1035940062050CD5604B1A784AB100221A700122D8
:1035A400524B2020C3F808259A65FFF7FFFD4F4BC7
:1035B400DFF85CA1D3F85C31F3B14F4B9B681BB9C6
:1035C40098F800305B0617D00022484B0420C3F85B
:1035D4005C21DAF80030494A23F00113CAF80030BC
:1035E4003B6823F4803343F001033B60136823F00A
:1035F40001131360FFF7DAFDDAF800603B681E4040
:1036040000F02381394BD3F82C95B9F1000F40F029
:103614001C8100220023384803F030F9002840F0D0
:10362400148116F0012314BF93FAA3F696FAA6F6B2
:10363400B6FA86F6F4B20F2EC8BF103C354BCCBF99
:10364400E4B244F080041868214607F05DFB019061
:1036540007F086FB4FFA84FB04F00803BBF1000F6C
:103664000246029380F29C80019A058A518BC368BA
:10367400C1F30A018D4240F28A800D464FF00009E1
:1036840003F06042B2F1005F05D019462A46234890
:1036940009F056FF214BB9F1000F00F0B28001216F
:1036A400DAF80020B14022EA0102CAF80020A8E0BA
:1036B4001B4B1C4A33EA290328BF134602E71A4866
:1036C400314607F09FFE0220FFF770FDB9F1000FAD
:1036D400FFF616AF013D062D7FF612AF16E7002D5B
:1036E400F4D10122014BDA6410E700BF00600350FB
:1036F4009416002050120020DC06002048120020FE
:103704009516002008610350306103509316002081
:103714004C1200205412002096160020041200209F
:10372400506103502C6103509814002094FAA4F5BE
:10373400B5FA85F509FA05F345F080052946DAF866
:10374400000024EA030407F0DFFA07F009FB064649
:103754002846FFF743FA014606F10C0006F086F806
:10376400338A002B7FF4E8AE304607F0FDFA18B137
:10377400304607F0FDFADFE6284607F034FE01463E
:103784003D4807F03FFE0220FFF710FDD4E6019309
:1037940007F0EAFA80F00109019B5FFA89F96FE703
:1037A40004F00801354B002952D0D3F8C03413F487
:1037B400803F08BF9946118AD068558A43186D1A0C
:1037C40051690393401A2D1A4D4528BF4D4602F105
:1037D4000C002946029206F021F8019B598BDDE981
:1037E4000223C1F30A0149457FF459AF5169D068F6
:1037F400B2F812C0401A128AACEB000191423FF4B5
:103804004EAF01203A6800FA06F622EA060204F0F6
:1038140008013A6088F80040184AF1B9142104F00C
:103824000F0401FB0421BBF1000FB5BF02EB8402BE
:103834000A34C1F80036C1F80037B5BFC1F80456E0
:10384400C1F80457506042F8240005B0BDE8F08F79
:1038540004F5947153F82190ADE7BBF1000FB5BFA7
:10386400C2F8A036C2F8A037C2F8A456C2F8A457CA
:10387400B4BF50629064E8E79814002000600350DD
:103884002DE9F04F0446AC4D85B04FF0FF384FF0B2
:10389400FF3900224FF0FF31CDE90089A74809F034
:1038A40044FE4FF0FF31A54809F03BFE07463807B8
:1038B4002ED5A34842464B4602F0E0FFEFF31182B7
:1038C400202383F31288BFF36F8F9E4B1B787BB149
:1038D400D5F8003413F400730AD10121C5F82C156E
:1038E400D5F82C15D5F80014890548BFC5F82C3532
:1038F40082F31188BFF36F8F914802F08BFF01218F
:10390400204607F0EAF900220321204607F035FAA1
:10391400FE0608D50021204607F0DFF90022022127
:10392400204607F02AFAB80608D50021204607F0F9
:10393400D4F900220221204607F01FFAB9075DD40A
:10394400FA070CD50022804BD3E8EF8FC3E8E12FB0
:103954000029F9D10126B8F1000F40F0AD807907B4
:1039640034D54FF0000C794B83F800C0D5F88004AF
:10397400C0B28DF80800D5F88414C9B28DF80910C6
:10398400D5F88834D5F88C2443EA02239BB2ADF8E9
:103994000A30D5F89024D5F8946442EA0622ADF8AA
:1039A4000C20D5F89824D5F89C6442EA062292B2F9
:1039B400674EADF80E20002840F09780052940F0AE
:1039C400948001213170002A00F09B807B067FF5F2
:1039D4005CAF206984304FF0FF324FF0FF3302F0C8
:1039E40025FE5C4E3168002940F0BE805A4803F041
:1039F4004FF92069843002F08BFE46E70022574BD2
:103A0400D3E8EF8FC3E8E12F0029F9D14FF0010A81
:103A1400B8F1000F94D098FAA8F3B3FA83F31E46D2
:103A24000F2BC6BFA3F11006F6B246F080060AFAC1
:103A340003F328EA030833063146204627D507F066
:103A440063F9834607F088F98146D8B100215846C6
:103A540007F067F900224946204607F09AF9802EBC
:103A640010D13A4B002183F800A02046C5F850A09D
:103A740007F04AF907F070F9014618B10022204610
:103A840007F087F931462046FFF7E0F9C0E707F071
:103A94003BF9834607F060F9814640B1002158465E
:103AA40007F03FF900224946204607F072F93146F3
:103AB4002046FFF701FAABE798FAA8F3B3FA83F3C9
:103AC40019460F2BC6BFA3F11001C9B241F0800102
:103AD40006FA03F30A06204628EA030802D5FFF78C
:103AE400B5F938E7FFF7E8F935E71D4A86F800C06D
:103AF400D5F8703412789A420AD10022194B1A7000
:103B040014E003F07F03ADF80A30ADF80C20F4E7BD
:103B14000123144A337013704FF4A063ADF80830D6
:103B2400D5F87034CDF80CC0ADF80A30204602A99F
:103B340007F056F94AE700BF00600350EC06002086
:103B4400DC060020961600209C1400209B16002002
:103B54009A16002044120020F80600209814002031
:103B6400981600209916002091FAA1F7B7FA87F762
:103B740039460F2FC8BFA7F110012046CCBFC9B2E8
:103B840041F0800107F0C0F8804690F818904FF09B
:103B9400FF324FF0FF33124802F070FE4846FFF741
:103BA40039F80F4802F036FE4FF480020D4B4146BF
:103BB400C3F80421204607F004F90021404607F029
:103BC400B0F80123BB40DB43074AD2E8EF0F1840AB
:103BD400C2E8E10F0029F8D132681340336001E7ED
:103BE400DC06002000E100E098140020084B70B5CA
:103BF400C31A0D4607499B10044659434022064800
:103C040007F042FC2B4601462046BDE870401847A9
:103C1400B4140020B76DDBB698D90100402373B506
:103C24000B4C0093041B0B460D460A49A410614338
:103C34000646094A094807F052FC014628B13046B5
:103C44002B4602B0BDE87040184702B070BD00BFFB
:103C5400B4140020B76DDBB651B5010098D901004A
:103C64002DE9F8430022012107460520FDF73CFB1E
:103C7400114801F0FFF80446C0B901F02FF92546B8
:103C84004FF01C094FF00C083E690C4909FB056014
:103C940005F0E3FB031E0CDB012308FB05661D4452
:103CA400042DB367F0D12046BDE8F8836FF0040417
:103CB400F9E71C46F7E700BFED3D010088E101008C
:103CC4001FB5002201236C46CDE902236B46074A47
:103CD400CDE9004407F033FC28B94FF480420023B7
:103CE400684602F0CBFD04B010BD00BF7BB50100F7
:103CF40010B5EFF31184202383F31288BFF36F8F81
:103D0400074A136823F00201DB07116002D4012083
:103D140008F072FA84F31188BFF36F8F10BD00BFEF
:103D2400541500200C22104B014602FB00330020E6
:103D340030B4D3E91C521867EFF31180202484F3C4
:103D44001288BFF36F8F9C6F04F0C00444F0020428
:103D54009C6780F31188BFF36F8F1DB12B4630BC75
:103D64000248184730BC7047B414002098D90100A9
:103D740010B4EFF31180202282F31288BFF36F8F07
:103D840017490B6843F0020413F001030C601AD0C6
:103D94004FF05023D3F80C14D3F80C3413F0010370
:103DA40011D0EFF3118182F31288BFF36F8F0D4AA4
:103DB400936F03F0C00343F00203936781F3118808
:103DC400BFF36F8F012380F31188BFF36F8F1BB193
:103DD400002010BCFFF7A6BF012010BC08F0FDB9FD
:103DE40054150020B4140020092813D8DFE800F08B
:103DF40005101212121212120E0C074B986F10F0CB
:103E0400070007D1FFF78EBF0220FBE70320F9E785
:103E14000120F7E7704700BFB4140020C3B21C2090
:103E2400014A00FB03207047B41400202DE9F0413F
:103E3400012280463749D1E8EF3FC1E8E02F00284E
:103E4400F9D133B9344935484B60CB608A6005F009
:103E540017FB08F1FF33012B4FD8B8F1010F07D13D
:103E64004FF05023D3F81C3403F00303022B44D047
:103E740009F031F9054658B1EFF31186202383F395
:103E84001288BFF36F8F01254FF05024244F22E096
:103E9400244B1B78002BEFD04FF050230222064610
:103EA400C3F80823F0E755B3304605F05FFCD4F8B7
:103EB4001835DBB2012B0ED1D4F804215AB10022FB
:103EC400C4F80421D4F804210222C4F818252022BD
:103ED400C7F88021A360D4F81824D4F81834D20386
:103EE400E1D503F00303022B02D0B8F1010FDAD1BC
:103EF40055B186F31188BFF36F8FBDE8F0810021BF
:103F0400212009F082F9D2E74FF050230222C3F8AE
:103F14000423F2E7B0140020A0140020D0140020E1
:103F240000E100E0CE16002008B5074808F087FE3F
:103F340038B10648FDF7F0FC0448FCF72BFC0020E0
:103F440008BD6FF01200FBE7ECD90100553F0100FA
:103F54000A2838B50446074D04D1AB680D2128461C
:103F64005B689847AB6803485B68E1B298472046B2
:103F740038BD00BFECD901002DE9F04340F206360C
:103F84004768D00648BF4FF0030C3B7C02EA0606A4
:103F940058BFC2F3401C87B001F01F05B6F5837FFC
:103FA400144645EA43158DF803C043D00DD8062EB8
:103FB40016D005D8A6B1022E3ED06FF0150036E01B
:103FC400B6F5807FF9D101260AE040F2022296423A
:103FD40034D0B6F5407F33D0B6F5007FEDD102265C
:103FE40022032FD501237A688B409360B86890BB75
:103FF40005F01F036D092CD0012D75D13C4A02EB4D
:104004008302C4F30043D2F8001283F00103C4F323
:10401400404444EA430421F4706144EA8C0421F0EE
:104024000F0144EA06230B43C2F80032002007B014
:10403400BDE8F0830726D3E70426D1E70526CFE7BA
:104044000326CDE7630341BF01237A688B40D36025
:10405400CCE7284AD3E729460DF1020208F08BFB8E
:1040640014F4403F80460CD12946B86808F09CFB04
:10407400B8F1000FDAD19DF80210B86801F04AF9DE
:10408400D4E74FF0000901ABCDE90199CDE904393A
:10409400CDF80C902946B86803AA08F041FA4845BF
:1040A400C4DB14F4003314D09DF80330C4F300448B
:1040B40084F001048DF80E308DF80C608DF80D40FD
:1040C4004B462946B86803AA08F0DDFA0028CFDA7F
:1040D400ACE7CDE904330DF1030303932946B86833
:1040E40003AA08F01DFAF1E7803350F82330FFDE0D
:1040F40000288450002584504209034670B502D03C
:10410400012A17D070BD0D4E326951680029F9D0CB
:10411400012503F01F030C689D400029F2D08A6832
:104124002A4002D030464B6898472CB12368214678
:104134001C46F2E7024EE7E72346F8E7D0D9010030
:10414400B4D9010038B54568A86890B108F026FBD9
:10415400014670B9A86801F0ABF8044658B90246A4
:104164000649A86808F004FB224605210D20FDF746
:10417400BBF8002038BD6FF00400FBE7FD400100F0
:10418400F0B544681646A068227C01F01F0587B08C
:1041940045EA421500286CD0B6F5001F04D1294623
:1041A40008F054FB002055E06268607CB6F5800F8F
:1041B40050624FF0000001AA0190506037D1B3F172
:1041C400007F14BF052304238DF804300023CDE9B8
:1041D40004230393E3680DF1030723FA01F111F0BB
:1041E400010139D1B6F1A07F36D105F01F036A0968
:1041F40003F1800326D0012A3ED1214A52F823300C
:10420400DB0729D43A462946A06808F0B4FA1630E8
:104214001AD002972946A06803AA08F081F9002859
:1042240018DB01222946A06808F0C0FABAE7B3F106
:10423400C06F05D0B3F1007F14BF01230223C3E78D
:104244000323C1E70F4AD9E73946A06801F06CF8A7
:104254000028DEDA07B0F0BD3A462946A06808F027
:104264008AFA0028D6D19DF80310A06801F052F80C
:10427400D0E76FF08500EDE751F82330FFDE00BF93
:104284000028845000258450044B054A0121936280
:10429400044A09201A600022FDF726B87015002090
:1042A4007003002000900050036803F01F025B09B4
:1042B400026004D0012B034818BF00207047024855
:1042C400704700BF00288450002584502DE9F74F23
:1042D400154607464FF0010800EB8101B94203D1AE
:1042E400002003B0BDE8F08F3A68C2F3C323082B63
:1042F400C2F3080400F2AD805748C65C40F2FF13D5
:104304009C4208BF4FF0FF34B2F10C5F4FEA1263D6
:1043140016D2032B16D9043B1E2B13D8DFE803F067
:10432400151C2112121212354112121212121212FB
:104334001212444D5053121212565B5E61646700B0
:104344004E2B13D06FF08500CBE74FF00009C5F872
:104354000845621C2FD051E04FF00109C5F80C4507
:10436400F7E7C5F810454FF0000915E0C5F8144506
:10437400631C20D001A80194FFF796FF019B4FF026
:10438400010908FA03F3836040E0C5F80845002EEC
:10439400E9D14FF000090626601C0CD04FF0000A4A
:1043A40036E0C5F80C45F2E7C5F860457B88621C29
:1043B40003F001031ED1043790E7C5F86445F5E71F
:1043C400C5F86845F2E7C5F86C45EFE7C5F824453C
:1043D4004FF00109E0E7C5F82845C9E7C5F83045BD
:1043E400F6E7C5F83445F3E7C5F83845F0E7C5F80E
:1043F4003C45BDE7002BBDD14FF0010901A8019454
:10440400FFF752FF019B08FA03F3C3604FF0010A60
:10441400D7F800B001A81BF4004F1CBF4FF00109EE
:104424004FF0000A0194FFF73FFF019B0B4C00EB98
:104434008300D0F80022CBF3412B330243EA8B03F1
:1044440043EA0A031440234343EA4903C0F8003211
:10445400B1E76FF0150044E77DEB0100F0F0FCFFDD
:1044640008B578B108494FF4004E8C460021E0FBB2
:104474000EC100236046054AFBF76AFFBDE8084009
:1044840008F0C3BE08BD00BF3F420F0040420F000A
:104494002DE9F04198468B880E4699040746154647
:1044A400046900F182804FF0FF324FF0FF3304F1D2
:1044B4006C0002F0E3F92666002D7FD1C4F8905019
:1044C4000023C4F8943004F1A80204F1940104F127
:1044D400900007F0EBFB0546C4F8A400B8F1000F08
:1044E40074D1C4F898800023C4F89C3004F1B0025D
:1044F40004F19C0104F1980007F0D8FB00231A464C
:10450400D4F894C0C4F8AC00C4F88C30624566D1C9
:1045140000221146D4F89CE0714568D193422CBF27
:10452400C4F8A030C4F8A02015B1D4F8A8302BB931
:1045340000286FD0D4F8B030002B6BD03146384609
:1045440000F0BCF8054610BB04F15C08E66504F114
:10455400B405284602F0B8F93846304907F026FD7C
:104564004FF0FF324FF0FF33284602F087F931460F
:10457400384607F01CFD384607F0F8FB404607F0C4
:1045840067FB054600283BD1B3889A040AD4E36D3F
:1045940013B19B889B0405D40023236604F16C00AB
:1045A40002F038F92846BDE8F081636F002B7FF4F0
:1045B4007AAF236E9E427FF476AF7DE72B68C4F812
:1045C4009030002B3FF47CAF6B687AE7D8F800306A
:1045D400C4F89830002B86D0D8F8043084E7D4F897
:1045E400901001EBC201496801320B448EE7D4F804
:1045F40098C00CEBC10CDCF804C0013162448BE7B9
:1046040010F1740FC3D1384607F009FD404607F096
:104614001FFBBCE76FF01505B9E700BFA3BE01009F
:104624000246184810B582420AD94FF05023D3F8F5
:1046340058359B0703D1144B9A4228BF184610BD26
:1046440015D012488242FAD2114B9A4211D8114B1A
:104654009A4210D8104B9A420FD8104B9A420ED857
:104664000F4C104B1048A24298BF1846E7E710467B
:10467400E5E70E48E3E70E48E1E70E48DFE70E48BA
:10468400DDE700BF0024F4000048E80100127A00CE
:10469400FF083D007F841E003F420F001FA107005A
:1046A4008FD0030048E8010090D0030000093D00CA
:1046B40080841E0040420F0020A10700F0B5056968
:1046C400064695F828300C468BB00BB3EA6A0B68A3
:1046D4009A421DD12A6B4B689A4219D195F8403001
:1046E400087D984214D1B5F844200B8B9A420FD11F
:1046F4006B6B8A68002877D0934209D1AA6BCB6888
:104704005A4032F47F4003D1EA6B0B699A4269D074
:10471400A288100500F1828012F0090040F0818027
:1047240002F4FC63B3F5807F7BD12168404B99424E
:1047340077D92B687768D3F80835591C10D012F054
:10474400020203F01F0C4FF001014FEA531352D140
:10475400002B4ED08B4267D1364B01FA0CF1D96055
:104764004FF0FF3321680393BB7F08468DF8123066
:10477400FFF756FFBB69984203D20846FFF750FF84
:1047840003460593A388990703F004023DD5002A44
:104794000CBF02220322C3F300138DF819304FF02B
:1047A400FF33079397F820308DF818208DF82030C8
:1047B40001238DF823308DF8243095F8283033B355
:1047C4006946284608F0E5F860B905F12C0304F1C0
:1047D4001C0254F8041B944243F8041BF9D101232E
:1047E40085F828300BB0F0BD9A4291D1AA6BCB6802
:1047F4008CE7114BB1E733B1012B17D10D4B01FA03
:104804000CF19960ACE70C4BF9E79208C3E7334627
:1048140069462846094A08F09CF8D5E76FF08500F8
:10482400E0E76FF01500DDE7D260FFDE8060FCE7B3
:1048340047E8010000288450002584507BBF010014
:104844000123834070B5DC430C4AD2E8EF1F01EA30
:104854000405C2E8E65F002EF7D14FF480328240AF
:104864000748C0F80823BFF35F8FBFF36F8F03EAD5
:104874000100003818BF012070BD00BFF8150020EA
:104884000050015070B4124922F07F46D1E900343F
:10489400D01AC31844F10004C1E90034A6F500138A
:1048A400B3F5400F09D20B4B1B681A0A1B069C195F
:1048B400094B42F10005C3E90045EFF311812023C0
:1048C40083F31288BFF36F8F70BC02F051BF00BF37
:1048D40038090020FC15002040090020D9B101232B
:1048E4000D4A8340D2E8EFCF4CEA030CC2E8E1CF93
:1048F4000029F7D14FF48033084A8340C2F80433C7
:10490400074BD3E8AF3FC340DB0742BF4FF400126D
:10491400044BC3F800217047F815002000500150E3
:10492400F415002000E100E00D4B1868010A0006B0
:10493400BFF35F8F0B4BD3F80435181841F1000116
:10494400B3F5801F0AD2084BD3E90023904271EBE0
:10495400030303D210F1807041F10001704700BFDE
:10496400FC15002000500150400900202DE9F04FB3
:1049740085B016461F4604469DF840A0FFF760FF29
:104984000190FFF7D1FFB04271EB07035CD23B4BC0
:10499400301A67EB0101984271F1000109D36FF0FD
:1049A400150520460199FFF799FF284605B0BDE893
:1049B400F08F334B03EB0413D3E902239F4208BF68
:1049C40096424ED04FF480382E4908FA04F8204617
:1049D40026F07F4BC1F8488307F080FB4FF00309B2
:1049E400584604F15005AD00ADB205F1502504F56B
:1049F400A87305F580350293029A20F07F4341F8AD
:104A04002230C1F84483D1F804351F4AC01A033850
:104A140020F07F40904224D9286868B1D1F8043549
:104A2400A3EB0B0020F07F40B0F5000F039318D9DF
:104A3400204607F053FB039BBAF1000FAFD109EBFB
:104A4400030009F10109D7E7BAF1000FA7D1012347
:104A54000E4AA340D2E8EF0F1843C2E8E10F002941
:104A6400F8D107490E982301C8500F9B01EB04129B
:104A74000025C2E90267536093E700BF010080008C
:104A84002809002000500150FDFF7F00F41500208C
:104A94007FB500254FF0FF304FF0FF31194C1A4B12
:104AA4000226C4F80833C4F84833184BC4F8085530
:104AB400C3E902014FF480334FF40012C4F8043305
:104AC400134B0121C4F804631520C3F880212A463E
:104AD400FCF70AFC1520FCF7D7FB01230D4AA36061
:104AE400236013600C4B0D4A009328460023CDE944
:104AF4000155FFF73BFF3046FFF798F9284604B00D
:104B040070BD00BF0050015003000F0028090020B1
:104B140000E100E0F815002089480100FFFF7F0054
:104B24002DE9F7432D4BD3F8042391070BD5D3F884
:104B3400042142B10022C3F80421294AD3F80431E4
:104B4400136801331360254CD4F80433DA033FD5DA
:104B5400244BD3E8EF2F22F00101C3E8E01F002823
:104B6400F7D1D30702D4D4F840318BB30025C4F86D
:104B74004051D4F84031FFF7D7FEEFF311822023E0
:104B840083F31288BFF36F8F174BD3E90267B042E8
:104B9400B94120D3D3E900984FF0FF304FF0FF31F3
:104BA4001D60C3E902014FF48033C4F84833C4F8EC
:104BB4004051D4F8403182F31188BFF36F8FB9F1BB
:104BC400000F05D032463B460020CDF80080C84790
:104BD40003B0BDE8F083A946EDE700BF00500150E3
:104BE400FC150020F41500202809002030B5431CD2
:104BF400124C85B005D08442A8BF0446012CB8BF2E
:104C04000124FFF791FE0E4B0C4DD3E90013401A1B
:104C1400B0F5000F0FD22218AA4228BF2A4600205E
:104C240052180849CDE90100009143F10003FFF750
:104C34009DFE05B030BD2A46F1E700BFFFFF7F00AF
:104C4400380900208948010008B5FFF76DFE024BC2
:104C54001B68C01A08BD00BF3809002008B507F05A
:104C640058FA58B1614BD3F8202A3AB90D21C3F848
:104C7400201A0121C3F81C19C3F81C290022D300EF
:104C840003F57F03D3F80013013107D0D3F80013E1
:104C94000132D3F80433202A0B60F0D107F039FA3B
:104CA400002840F09A8007F034FA40B1504B514A42
:104CB400C3F830254FF050230122C3F858254FF490
:104CC4007F03D3F83021D3F83431072A06D1023BCD
:104CD400012B9EBF0022484BC3F84C2507F019FA5C
:104CE40050B14FF05023D3F80024D10742BF002223
:104CF400C3F81421C3F818214FF47F03D3F83021EB
:104D0400D3F83431072A09D14FF05023D3F80024C3
:104D1400D20744BF6FF00102C3F8002407F0F9F989
:104D240018B16522314BC3F80C274FF47F03D3F835
:104D34003021D3F83431072A16D12F4BD3F820343D
:104D4400002B11DA4FF050230322C3F81825012257
:104D54009A60D3F80421002AFBD00022C3F804216E
:104D64000122DA60C3F818254FF47F03D3F8302109
:104D7400D3F83431072A20D1023B022B1DD97E22DD
:104D84001A4B1B49C3F80C27C3F83C297F231B4A41
:104D9400C2F818310023C1F8043EC1F8083E01F5F9
:104DA4004821C1F81031C2F82431C2F82C3102F57F
:104DB400FF1202F58052C2F8A032114AD2F88C30A8
:104DC40043F44063C2F88C300E4A0F4B1168C3F8A9
:104DD4004415D269C3F84C2508BD2922034BC3F8F6
:104DE4000C270322C3F83C275DE700BF00400050B6
:104DF400009003504400EFBE0020035000200050F8
:104E040000ED00E00080FF0000600050014B1860DE
:104E1400704700BF0016002010B5054B14461868F3
:104E240007F089F90028A4BF2070002010BD00BF3E
:104E3400001600200123024A8340C2F8043570475B
:104E440000700150014B00201B6818470416002015
:104E5400014B1B68184700BF04160020014B0920B2
:104E64001B68184704160020014B08201B681847CC
:104E74000416002010B5144C237913BB01232371AD
:104E8400124B0028206018BF184600F03BF8D0B938
:104E940023680F48002B08BF184600F0BDF890B9EE
:104EA40023680C48002B08BF184600F0FDF850B9E1
:104EB40023680948002B08BF1846BDE8104000F0DD
:104EC40067B86FF0770010BD04160020494E01004A
:104ED400614E0100554E01006D4E010008B5074BAF
:104EE4001B6833B10520FCF7F1F910B90520FCF774
:104EF400CBF90122024B1A7008BD00BF0416002032
:104F0400CC160020074B0246187938B91A600122E2
:104F14001A714FF05023C3F8142570476FF07700CF
:104F2400704700BF0C1600204FF050230022C3F836
:104F34000021D3F80021012208491A60096811B13F
:104F4400C3F804237047D3F80021002AFBD00022C1
:104F5400C3F80021D3F80031704700BF0C160020BD
:104F64004FF05023D3F80423D2070DD5D3F80021F2
:104F740052B10022C3F80021D3F800210122C3F862
:104F84000823024B1B681847704700BF0C1600200B
:104F9400054B0246187918B91A6001221A71704734
:104FA4006FF07700704700BF141600204FF05023B5
:104FB4000022C3F82021D3F8202101229A61094A52
:104FC400126822B14FF48072C3F804237047D3F8F7
:104FD4002021002AFBD00022C3F82021D3F820315D
:104FE400704700BF141600204FF05023D3F8042359
:104FF400D2050ED5D3F820215AB10022C3F82021BE
:10500400D3F820214FF48072C3F80823014B1B68A6
:105014001847704714160020074B0246187938B910
:105024001A6001221A714FF05023C3F8802570478B
:105034006FF07700704700BF1C1600204FF050231C
:105044000022C3F82421D3F8242101221A62094A38
:10505400126822B14FF40072C3F804237047D3F8E6
:105064002421002AFBD00022C3F82421D3F82431C0
:10507400704700BF1C1600204FF05023D3F80423C0
:1050840092050ED5D3F824215AB10022C3F8242165
:10509400D3F824214FF40072C3F80823014B1B6892
:1050A400184770471C160020074B0246187938B978
:1050B4001A6001221A714FF05023C3F81825704763
:1050C4006FF07700704700BF241600204FF0502384
:1050D40010B5D3F818141E4C11F4803FD3F81824DB
:1050E4001BD002F00302022A02D0012A12D10122AB
:1050F4004FF05023C3F818250022C3F80421D3F835
:10510400042101229A602268A2B9D3F80421002A5A
:10511400FBD017E007F0E0F8E9E7D3F81424D2074E
:10512400E5D5D3F81C2402F00302013A012AF1D890
:1051340022681AB10222C3F8042310BDD3F8042153
:10514400002AFBD00022C3F80421D3F80431F4E789
:1051540024160020F8B54FF0502301250026D3F87B
:105164000443184F04F0820404B9F8BDB4FA84F07F
:10517400C0F11F00830003F580739BB203F1502339
:1051840005FA00F2196892B224EA02040029EBD06D
:105194001E601B684FF05023022AC3F808230DD168
:1051A400D3F81814D3F8181401F00301012905D118
:1051B400C3F81825C3F804239960D5E73B68C0B247
:1051C4009847D1E724160020036803F01F025B0907
:1051D400026004D0012B034818BF00207047024826
:1051E400704700BF0028845000258450034A4309B7
:1051F400D35C00F01F001844C0B2704786EB010076
:10520400024611F0010010B50BD18B07C1F3400029
:105214000DD50749086A50600862003818BF01209C
:1052240005E0044C236A13602362002BEDD010BD0B
:105234000028845000258450F7B504460846FFF73B
:10524400D5FF04EB4006B38A0D46DB072AD520467A
:1052540007F044F92946204607F0B1F850B120463A
:1052640007F0C3F80023276807EB8000C0F8103567
:10527400C0F810352946204607F0E0F8002101A8BF
:10528400B1820195FFF7A0FF019B00EB8300D0F8EA
:105294000022064B134043F00203C0F800320846D4
:1052A40003B0F0BD6FF01500FAE700BFF0F0FCFFAB
:1052B40070B590F88C40054690F88D6024BB21466B
:1052C4006022143008F049F92146114B286853F83C
:1052D40036608E420ED10024C0F87C41D0F87C3177
:1052E40040F30730FBF7D0FF0123204685F88C30CC
:1052F400AB6770BDCBB29B0003F580727C2B04BFFF
:10530400845083580131E4E76FF07700F1E700BF80
:1053140000E3010090F88D00024B03EB800006F0DF
:1053240024BF00BF2C05002010B5064B90F88D005B
:105334000C4603EB800006F0FEFE0028A4BF20709C
:10534400002010BD2C0500202DE9F04F804658F8B0
:1053540004AB90F88D40DAF804136A4BC9B20746DF
:1053640053F8342050468BB041F0004107F08FF8D9
:10537400051E39DA0023CDE90833624BE60003EB5E
:10538400C404636808A819460093FFF739FF331D66
:1053940003934FF0000B5C4B0DF120090293029A2A
:1053A400584912F8013B0292039A02EBD3028A5C39
:1053B40003F0070322FA03F3DB071BD40BF1010309
:1053C400022B4FF0010B09F10409E8D14FF0004121
:1053D4000022504607F05BF8009908A8FFF710FF79
:1053E4000028D6D125F000450124002D73D10BB03F
:1053F400BDE8F08F454B5B440493D9F80060002E60
:10540400DCD096FAA6F6B6FA86F6049B1C7846EA31
:1054140044142046FFF7EAFE07EB4000818AF208B5
:10542400C1F3820305930193012319F8020006F0E6
:10543400070603FA06F620EA060009F8020007A8A0
:105444000794FFF7C1FE079A11F0100F02F18002D2
:1054540050F82260059BC6F3014623D04046019ACA
:10546400214606F0CCFF07A80794FFF7ADFE079B83
:10547400F6B2803350F82330C3F301439E4207D180
:105484000021204606F08CFF3146204606F088FFB6
:1054940007A80794FFF798FE0122079B02FA03F37B
:1054A4000362AAE7022E14BF0221032120460593BA
:1054B40006F076FF059B032B03D0022E07D1012BA8
:1054C400E6D121464046019A06F099FFE0E7032E13
:1054D400DED1022BF4E795FAA5F3B3FA83F304FAC9
:1054E40003F225EA020503F5A2725AF8222007EB1B
:1054F40043034046B3F87C10C2F3014206F07FFF39
:1055040073E700BF00E3010096EB010096EB010096
:1055140010B50E4C2378ABB903780D4AC3F340039E
:10552400C2F8003B0378052003F00103C2F80437F6
:10553400FBF7CCFE10B90520FBF7A6FE01230020E3
:10554400237010BD6FF07700FBE700BFCD1600207D
:10555400004000504FF0502310B5D3F804436107C6
:105564000AD5D3F808213AB10022C3F80821D3F8A8
:105574000831124B1B689847A2060CD54FF05023F4
:10558400D3F814213AB10020C3F81401D3F814312C
:105594000B4B1B68984763060FD54FF05023D3F885
:1055A400182152B10022C3F81821D3F81831044B42
:1055B4000120BDE810401B68184710BD30160020BC
:1055C4002C160020036803F01F025B09026004D05C
:1055D400012B034818BF002070470248704700BFE2
:1055E400002884500025845070B54B7F04460D4636
:1055F4007BB101236426436100220221204607F087
:1056040052F920B9012006F094FD013EF4D10023A3
:105614006B770021C4F8001507F021F920B1034B82
:105624009C4208BFC4F8041C70BD00BF00A0005019
:1056340073B51646421C1C460546069B18D0012924
:1056440002D1BBB107F06DF901A80195FFF7BAFFCC
:10565400019B240200EB8300D0F80022074B44EAAC
:1056640086040C4313401C4344EA4101C0F8001271
:1056740002B070BD07F061F9E6E700BFF0F0FCFF8F
:105684004B69274A93420AD039D8264A934206D016
:1056940033D8254A934202D0244A93423AD191F80E
:1056A40023201AB191F82420002A36D10068204A18
:1056B400904232D11F4A93422FD10B685A1C01D019
:1056C400082B27D14B685A1C01D0092B22D18B6897
:1056D4005A1C01D00A2B1DD191F8213023B1CB687B
:1056E4005A1C01D00B2B15D1CB695A1C15D00C2B8D
:1056F40014BF6FF01500002070470F4ACDE70F4A22
:105704009342CCD004D80E4A9342C8D00D4AC4E781
:10571400084AC2E76FF0150070470020704700BFC9
:1057240080841E0020A1070048E8010090D00300F7
:1057340000A000500048E80140420F000024F4009B
:1057440000093D0000127A002DE9F74F91F821304D
:1057540007460C46002B00F0A98091F82280656969
:10576400714B9D4200F0BB8000F2AB806F4B9D42B9
:1057740000F0B88000F29D806D4B9D4200F0B58032
:105784006C4B9D4214BF4FF080454FF0806594F8F8
:10579400232097F8223062F3000387F82230227C1A
:1057A400DBB262F3410387F8223094F82360002EC1
:1057B40032D16269604B01219A420CBF4FF0030958
:1057C4004FF00009237E3246012B94BF00230123AE
:1057D400009320684B46FFF72BFF00964B4632465A
:1057E40001216068FFF724FF00964B463146A27EF4
:1057F400A068FFF71DFF237C324683F0010300936A
:1058040001214B46E068FFF713FF012100914B464D
:105814003246E069FFF70CFF94F82130002B6DD07D
:105824004FF0FF337B6294F8211094F812E0207E4D
:10583400627E00296CD0E668217C94F8249094F868
:1058440020C03B68B9F1000F12D1D4E900BAD4F8F2
:105854000890E469C3F808B5C3F80CA5C3F810951B
:10586400C3F86C45C3F81465C3F86815C3F86485B8
:10587400003A18BF01220228C3F8C0E5C3F8245532
:1058840049D003284AD0012801D142F00202C3F8CA
:105894005425C3F860C57B68002B42D0386840F3B8
:1058A400073003B0BDE8F04FFBF7EEBC4FF0020841
:1058B40055E7224B9D4214BF4FF080454FF0805571
:1058C40065E71F4B9D4213D01B4B9D4213D01D4BCC
:1058D4009D4214BF4FF080454FF0004557E74FF00D
:1058E400005554E74FF0006551E74FF000754EE75F
:1058F4004FF020654BE74FF0A05548E7E3687B6223
:10590400227C97F8223062F3410387F822308AE739
:105914004FF0FF3691E742F00402B8E742F0060286
:10592400B5E703B0BDE8F08F80841E0020A1070016
:1059340048E8010090D003000048E80140420F000D
:105944000024F40000127A00431C07B512D040F280
:105954001F1398420ED0019001A8FFF733FE019B5C
:1059640000EB8300D0F80022044B134043F0020301
:10597400C0F8003203B05DF804FB00BFF0F0FCFF98
:1059840038B50446006840F30730FBF78BFC6368C6
:1059940043B12146154A51F8043BC3F80823206853
:1059A400FFF722FE2368D3F80805D3F80C15D3F8C3
:1059B400105594F82230DB0714D4FFF7C5FF2846AE
:1059C400FFF7C2FF0846FFF7BFFF606AFFF7BCFF9F
:1059D4002368D3F86C05D3F81415FFF7B5FF084610
:1059E400FFF7B2FF002384F8203038BD52010800CD
:1059F4002DE9FF4790F8213005460E461746002B47
:105A040040F08C8043682BB112F0140F04BF0123C3
:105A140080F8213005F1100496E80F0084E80F00A7
:105A2400686A441C05D095F82230990718D506F009
:105A340078FF33682C6823B103F06043B3F1005F4F
:105A440006D1B3687BB103F06043B3F1005F0AD0C1
:105A540000236FF00C0085F8213004B0BDE8F08716
:105A640006F06BFFE5E717F0010318BF0123C4F844
:105A7400503517F0020318BF0123C4F84035002342
:105A8400D6E900A9D6E90281C4F844A5C4F848952A
:105A9400C4F83485C4F83815C4F81831D4F818316A
:105AA40006F0DDFE28B11F4B9C4204BF0123C4F85D
:105AB400043C072317F00806C4F8003510D101226E
:105AC4006B68226163B9D4F81831002BFBD0CDE99F
