:10000000A85D0020ED8F00000DB00000D98F00002A
:10001000D98F0000D98F0000D98F0000D98F000040
:100020000000000000000000000000004D900000F3
:10003000D98F00000000000071900000D98F0000EF
:100040002D2400002D2400002D2400002D2400006C
:100050002D2400002D2400002D2400002D2400005C
:100060002D2400002D2400002D2400002D2400004C
:100070002D2400002D2400002D2400002D2400003C
:100080002D2400002D2400002D2400002D2400002C
:100090002D2400002D2400002D2400002D2400001C
:1000A0002D2400002D2400002D2400002D2400000C
:1000B0002D2400002D2400002D2400002D240000FC
:1000C0002D2400002D2400002D2400002D240000EC
:1000D0002D2400002D2400002D2400002D240000DC
:1000E0002D2400002D2400002D2400002D240000CC
:1000F0002D2400002D2400002D2400002D240000BC
:100100002D2400002D2400002D2400002D240000AB
:100110002D2400002D2400002D2400002D2400009B
:100120002D2400002D2400002D2400002D2400008B
:100130002D2400002D2400002D2400002D2400007B
:100140002D2400002D2400002D2400002D2400006B
:040150002D2400005A
:1001540070B491E87800B2E802105B1854EB0C0418
:10016400B2E802104D4156EB0C0680E8780080415D
:10017400013070BC704700BF70B491E87800B2E8F9
:1001840002105B1A74EB0C04B2E802108D4176EB9A
:100194000C0680E878008041404270BC704700BF84
:1001A4002DE9F00791E80017C0CAA8FB063440F80F
:1001B400043BA9FB0615E8FB6741EAFB665140F8DE
:1001C400044BA9FB0743ECFB661344CAE8FB6254E7
:1001D400EAFB6714ECFB673440F8045BA9FB027587
:1001E400EAFB6235ECFB6245E8FB6617E9FB663720
:1001F400EAFB6647ECFB6657BAC0BDE8F0077047F8
:100204002DE9F00791E8F807B2E802105B1854EB07
:100214000C04B2E802104D4156EB0C06B2E8021091
:100224004F4158EB0C08B2E8021059EB01095AEBA4
:100234000C0A80E8F80780410130BDE8F0077047F8
:100244002DE9F00791E8F807B2E802105B1A74EBA5
:100254000C04B2E802108D4176EB0C06B2E80210F1
:100264008F4178EB0C08B2E8021079EB01097AEBC4
:100274000C0A80E8F80780414042BDE8F007704767
:100284002DE9F007524290E87800B1E88007174062
:10029400DB1918EA020854EB080419EA020955EBC1
:1002A40009051AEA020A56EB0A0678C090E87800B3
:1002B400B1E8800717407B4118EA020854EB0804B0
:1002C40019EA020955EB09051AEA020A56EB0A066D
:1002D40078C080410130BDE8F00770472DE9F00790
:1002E400524290E87800B1E880071740DB1B18EA17
:1002F400020874EB080419EA020975EB09051AEA05
:10030400020A76EB0A0678C090E87800B1E8800724
:100314001740BB4118EA020874EB080419EA020901
:1003240075EB09051AEA020A76EB0A0678C08041E1
:100334004042BDE8F00770472DE9F00152424FF00A
:10034400040890E8300091E8C000A31B1340E41AAD
:10035400F618EB1B1340ED1AFF1830C0C0C1B8F1FA
:100364000108EED1BDE8F001704700BF00B592E886
:10037400DC072DE9DC07B1E8805702B4A7FB025182
:100384000A95A8FB020BE7FB6310E9FB62B00B9133
:10039400A8FB0351EAFB6201E7FB64B5E7FB6605D2
:1003A400E8FB6615CDF830B0A9FB03B6EAFB63168B
:1003B400ECFB6356E8FB640BE9FB641BEAFB645B40
:1003C400ECFB646B0D90ACFB0230059CEEFB6250C1
:1003D400E9FB6460EAFB64B0E7FB6431E8FB645169
:1003E400069CE8FB6461E9FB64B1EAFB64010E93DB
:1003F400A7FB0432079CE7FB6462E8FB64B2E9FBF9
:100404006402EAFB6412049CE9FB6453EAFB646340
:10041400089CE7FB64B3E8FB6403E9FB6413EAFBB1
:1004240064230F955DF8049B99E80006DDF80080CD
:10043400A9FB0854EAFB68B4DDF81080ECFB6804FF
:10044400EEFB6814E9FB6824EAFB6834DDF80480F9
:10045400EEFB6865E9FB68B5EAFB6805DDF8148026
:10046400ECFB6815EEFB6825E9FB6835EAFB68459B
:100474000F96DDF80880AEFB0876E9FB6806EAFB18
:100484006816DDF81880ECFB6826EEFB6836E9FB9D
:100494006846EAFB6856DDF80C80ECFB68B7EEFBB7
:1004A4006807E9FB6817EAFB6827DDF81C80ECFBAA
:1004B4006837EEFB6847E9FB6857EAFB686708B0F2
:1004C40000BD00BF2DE9F14F87B0FFF74FFFDDF806
:1004D4001C8008F1200888E8FF00FFBC87E87F083B
:1004E400BDE8F08F00B591E89857A3FB035201953E
:1004F400A3FB0401E3FB6420E3FB67100292A3FB6C
:100504000752E3FB6802E4FB6415E3FB6805E3FBC5
:1005140069250391A4FB07B6E3FB6926E3FB6A564E
:10052400E4FB670BE4FB682BE3FB6A5BE3FB6C6BAC
:100534000490A4FB0810E4FB6950E3FB6C60E3FB4C
:100544006EB0E7FB6721E4FB6951E4FB6A61E3FBFE
:100554006EB1E4FB6E010592A7FB0832E4FB6A620C
:10056400E4FB6CB2E4FB6E02E7FB6E12E7FB68533C
:10057400E7FB6963E4FB6CB3E7FB6C03E7FB6E1317
:10058400E8FB6E230695A7FB0954E7FB6AB4E7FB77
:100594006C04E8FB6C14E8FB6E24E9FB6E34E8FBA6
:1005A4006865E7FB6AB5E8FB6A05E8FB6C15E9FBDF
:1005B4006C25E9FB6E35EAFB6E450796A8FB0976C8
:1005C400E8FB6A06E9FB6A16E9FB6C26EAFB6C3673
:1005D400EAFB6E46ECFB6E56E8FB69B7E9FB69077C
:1005E400E9FB6A17EAFB6A27EAFB6C37ECFB6C470A
:1005F400ECFB6E57EEFB6E6700BD00BF2DE9F14FBB
:1006040087B0FFF76FFFDDF81C8008F1200888E849
:10061400FF00FFBC87E87F08BDE8F08F2DE9F04FAD
:1006240090E8F00F00F140004FF0040E59E0F0B4F0
:10063400826BC36B04680525242687593C444FEA22
:10064400724787EAF24787EA92273C4442684FEAB6
:10065400F21787EAB24787EAD2073C4440F8044BD2
:10066400032D08BF6FF01B0687593A444FEA7347BE
:1006740087EAF34787EA93273A4443684FEAF31734
:1006840087EAB34787EAD3073A4440F8042B8759EB
:100694003B444FEA744787EAF44787EA94273B448C
:1006A40044684FEAF41787EAB44787EAD4073B441F
:1006B40040F8043B013DC0D1A0F13C00076A3C4432
:1006C4004FEA724787EAF24787EA92273C44026876
:1006D4004FEAF21787EAB24787EAD2073C44C46379
:1006E400F0BC4FF0020288EA781C8CEAF84C0BEB61
:1006F400BC1C8AEA090303EA080383EA0A039C444C
:1007040050F8043B9C4451F8043B9C44674444EA3D
:10071400050B0BEA060B04EA05034BEA030BE3445F
:1007240084EAF42383EA34530BEBB30B87EA771C94
:100734008CEAF74C0AEBBC1C89EA080303EA0703BA
:1007440083EA09039C4450F8043B9C4451F8043B5D
:100754009C4466444BEA040A0AEA050A0BEA0403C9
:100764004AEA030AE2448BEAFB2383EA3B530AEB9B
:10077400B30A86EA761C8CEAF64C09EBBC1C88EAC0
:10078400070303EA060383EA08039C4450F8043B86
:100794009C4451F8043B9C4465444AEA0B0909EA29
:1007A40004090AEA0B0349EA0309E1448AEAFA2341
:1007B40083EA3A5309EBB30985EA751C8CEAF54CD4
:1007C40008EBBC1C87EA060303EA050383EA070374
:1007D4009C4450F8043B9C4451F8043B9C446444BE
:1007E40049EA0A0808EA0B0809EA0A0348EA03087E
:1007F400E04489EAF92383EA395308EBB30884EA2D
:10080400741C8CEAF44C07EBBC1C86EA050303EA6F
:10081400040383EA06039C4450F8043B9C4451F8C7
:10082400043B9C44E34448EA090707EA0A0708EA48
:10083400090347EA0307674488EAF82383EA38533D
:1008440007EBB3078BEA7B1C8CEAFB4C06EBBC1C66
:1008540085EA040303EA0B0383EA05039C4450F886
:10086400043B9C4451F8043B9C44E24447EA080698
:1008740006EA090607EA080346EA0306664487EA25
:10088400F72383EA375306EBB3068AEA7A1C8CEA29
:10089400FA4C05EBBC1C84EA0B0303EA0A0383EA63
:1008A40004039C4450F8043B9C4451F8043B9C448E
:1008B400E14446EA070505EA080506EA070345EAAE
:1008C4000305654486EAF62383EA365305EBB3054C
:1008D40089EA791C8CEAF94C04EBBC1C8BEA0A0308
:1008E40003EA090383EA0B039C4450F8043B9C4449
:1008F40051F8043B9C44E04445EA060404EA070436
:1009040005EA060344EA0304644485EAF52383EA1A
:10091400355304EBB304013A7FF4E5AEA0F1400093
:10092400BEF1010E7FF483AEA0F1400C9CE80F00F1
:10093400001949199219DB19ACE80F009CE80F0063
:100944004044494452445B44ACE80F00BDE8F08F96
:100954002DE9F00F4408F0C9B2E8000F54EB080485
:1009640055EB090556EB0A0657EB0B07F0C0F0C927
:10097400B2E8000F54EB080455EB090556EB0A06E0
:1009840057EB0B07A3F101031B40F0C0E3D18041F7
:100994000130BDE8F00F70472DE9F00F241BF0C9BA
:1009A400B2E8000F74EB080475EB090576EB0A0650
:1009B40077EB0B07F0C0F0C9B2E8000F74EB080442
:1009C40075EB090576EB0A0677EB0B07A3F1010338
:1009D4001B40F0C0E3D180414042BDE8F00F7047B6
:1009E4002DE9F00F5242440890E8F000B1E8000FFE
:1009F40018EA020854EB080419EA020955EB090540
:100A04001AEA020A56EB0A061BEA020B57EB0B071B
:100A1400F0C090E8F000B1E8000F18EA020854EBC7
:100A2400080419EA020955EB09051AEA020A56EB09
:100A34000A061BEA020B57EB0B07A3F101031B4049
:100A4400F0C0D1D180410130BDE8F00F704700BF44
:100A54002DE9F00F5242241B90E8F000B1E8000F9A
:100A640018EA020874EB080419EA020975EB09058F
:100A74001AEA020A76EB0A061BEA020B77EB0B076B
:100A8400F0C090E8F000B1E8000F18EA020874EB37
:100A9400080419EA020975EB09051AEA020A76EB59
:100AA4000A061BEA020B77EB0B07A3F101031B40B9
:100AB400F0C0D1D180414042BDE8F00F704700BF83
:100AC400F0B44408F0C954414FEAE272554156412A
:100AD4005741F0C0F0C95441554156415741A3F123
:100AE40001031B40F0C0EDD142F10000F0BC70479F
:100AF400F0B45242241BF0C95440944155409541EE
:100B04005640964157409741F0C0F0C95440944133
:100B1400554095415640964157409741A3F10103F2
:100B24001B40F0C0E7D1F0BC704700BF2DE9F00FC7
:100B3400013AD24390E8F000B1E8000F98EA0208C5
:100B440054EB080499EA020955EB09059AEA020AEA
:100B540056EB0A069BEA020B57EB0B07F0C090E832
:100B6400F000B1E8000F98EA020854EB080499EA8F
:100B7400020955EB09059AEA020A56EB0A069BEAB2
:100B8400020B57EB0B07A3F101031B40F0C0D1D1BB
:100B940052F10000BDE8F00F704700BF53B94AB9E5
:100BA400002908BF00281CBF4FF0FF314FF0FF3071
:100BB40000F00CB8ADF1080C6DE904CE00F010F8AB
:100BC400DDF804E0DDE9022304B07047704700BF9C
:100BD400034613F8012B002AFBD1181A0138704779
:100BE4002DE9F0478C468E46089E15460446194664
:100BF400002B40F0D080724547D9B2FA82F74FB14A
:100C0400C7F120030EFA07FCBD40BC4020FA03F3F1
:100C140043EA0C0C4FEA154EA8B2230CBCFBFEF8B9
:100C24000EFB18CC08FB00F943EA0C43994528D97C
:100C3400EB1808F1FF3204D2994502D9A8F1020257
:100C44002B44A3EB0903A4B2B3FBFEFC0EFB1C3341
:100C54000CFB00F044EA0344A04214D92C190CF113
:100C6400FF3304D2A04202D9ACF102032C44241A6B
:100C740043EA02401EB1FC40002334607360BDE8C7
:100C8400F0874246DDE76346F1E7002A79D0B2FAFD
:100C940082F3002B3FD01946C1F1200302FA01F57B
:100CA40000FA01F42EFA03F20EFA01FE20FA03F31D
:100CB400AFB243EA0E034FEA154EB2FBFEFC0EFB45
:100CC4001C201A0C0CFB07F842EA004290455AD942
:100CD400AA180CF1FF3004D2904502D9ACF10200FD
:100CE4002A44A2EB08029BB2B2FBFEFC0EFB1C22C0
:100CF4000CFB07F743EA02439F4246D9EB180CF179
:100D0400FF3204D29F4202D9ACF102022B44DB1B16
:100D140042EA004202E0AEEB020301224FEA154E22
:100D2400AFB2200CB3FBFEFC0EFB1C330CFB07F82C
:100D340040EA034398452AD9EB180CF1FF3004D25A
:100D4400984502D9ACF102002B44A3EB0803A4B2EA
:100D5400B3FBFEFC0EFB1C330CFB07F744EA034415
:100D6400A74216D92C190CF1FF3304D2A74202D999
:100D7400ACF102032C44E41B43EA00400F46114645
:100D840078E71F2188E76046ABE76246BFE7604625
:100D9400DBE76346EFE7734506D916B90021084639
:100DA4006DE7C6E9000EF9E7B3FA83F787B973452F
:100DB40001D3824207D8841A6EEB030301209C46B8
:100DC4001EB900215BE73846FAE7C6E9004CF8E7AC
:100DD400C7F1200CBB4000FA07F422FA0CF520FA04
:100DE4000CF1BA401D432EFA0CF30EFA07FE4FEA3B
:100DF400154941EA0E011FFA85FEB3FBF9F809FB18
:100E040018300B0C08FB0EFA43EA00439A4540D90C
:100E1400EB1808F1FF3004D29A4502D9A8F1020078
:100E24002B44A3EB0A0389B2B3FBF9F809FB18338B
:100E340008FB0EFE41EA03418E452CD9691808F1DE
:100E4400FF3304D28E4502D9A8F10203294443EAB0
:100E54000040A1EB0E01A0FB02984145CE4643465B
:100E640002D306D14C4504D20138B9EB020E68EB2B
:100E74000503002EA5D0B4EB0E0261EB030101FAC9
:100E84000CFC22FA07F3F9404CEA0303C6E90031EB
:100E940097E74046C5E74346D9E70000F0B40D4B59
:100EA4000D4E5F6A0D4BB34203D36FF08500F0BC67
:100EB40070475C68BC420AD31D6945B194F802C00E
:100EC4008488E4B2A44502D12B46F0BC18472433ED
:100ED400E9E700BF9014002008030020E40200208A
:100EE4002DE9F04705460E461746134CDFF84C80B3
:100EF400DFF84C90444503D36FF08500BDE8F087DC
:100F04006268D9F824309A4213D3A3698BB1A988B3
:100F14009078C9B2884205D13A4631462846BDE8A0
:100F2400F04718475279012A03D13A4631462846F8
:100F340098472434DEE700BFE402002008030020C1
:100F4400901400202DE9F04105460E4617460A4C40
:100F5400DFF82880444502D36FF0850009E0636917
:100F64000BB92434F6E73A46314628469847002818
:100F7400F7D1BDE8F08100BFE4020020080300209F
:100F840070B50B4B0B4CA34201D3002070BD002263
:100F9400196A1E7F0439D5B2AE4201D82433F2E770
:100FA400013211F832508542F5D10120EEE700BF3D
:100FB400E402002008030020094B00211A4610B562
:100FC4001C78844204D15C6814B102EB811010BD1A
:100FD4000131042903F14003F2D10020F7E700BFF7
:100FE4000011002030B50C4B1B68A3B153F8042C3E
:100FF400043B5268116A157F00220439D4B2A54219
:1010040001D85B68F1E7013211F832408442F5D12E
:10101400012203F8072C30BDF8100020F8B506466D
:101024000D460024054FAC4200DBF8BD315D386845
:10103400836801345B689847F5E700BFF01000202F
:1010440010B51B4B986A9C6A10F0100F14BF112046
:10105400102014F0080F9C6A18BF1220A40709D5A9
:10106400586B986A000604D519B1996A21F0800179
:10107400996213200E4B996A11F0010F996A18BFF7
:10108400142011F0200F996A18BF1520CC0658BF00
:101094009B6A074B996A890642BF596A21F4005139
:1010A4005962996A41F0FF0199620023137010BDDF
:1010B40000ED00E010B5184B986A9C6A10F4805F4C
:1010C40014BF1720162014F4006F9C6A18BF182050
:1010D400A40508D5986A000404D519B1996A21F4C5
:1010E4000041996219200C4B996A11F4806F996A36
:1010F40018BF1A20C9050CD49B6A13F4005F18BFEB
:101104001C2005498B6A43F47F438B6200231370D0
:1011140010BD1B20F5E700BF00ED00E0154B9A6AF7
:1011240012F0007F9A6A14BF1E201D2012F0807FE7
:101134009A6A18BF1F2012F4801F9A6A18BF0220EF
:1011440012F4002F9A6A18BF212012F4802F9A6A91
:1011540018BF222012F4003F9A6A18BF232012F409
:10116400803F9A6A18BF24206FEA02426FEA124253
:101174009A62704700ED00E0002807DB0123410973
:10118400034A00F01F00834042F82130704700BF3B
:1011940000E100E030B50F4AD2F89030C3F30723E2
:1011A400013B984213D80C7A0B6864F304031D4680
:1011B400CB68640923F01F0343EA440343F00103AB
:1011C400C2F89800C2F89C50C2F8A03030BD6FF04D
:1011D4001500FBE700ED00E04FF0FF313F22034B29
:1011E4000020C3E90012024A136070472010002057
:1011F4001C100020084B70B5C31A0D4607499B10FC
:10120400044659434022064809F06FFA2B4601462A
:101214002046BDE87040184760070020B76DDBB674
:10122400F4C00000402373B50B4C0093041B0B4621
:101234000D460A49A41061430646094A094809F0C3
:101244007FFA014628B130462B4602B0BDE8704013
:10125400184702B070BD00BF60070020B76DDBB651
:10126400B3A70000F4C00000014B00201B6818471E
:1012740050070020014B1B68184700BF500700208F
:10128400024B0B6001231360704700BF7CC5000054
:101294000048704774C50000024B0B6001231360C3
:1012A400704700BFFC060020004870476CC5000072
:1012B4000122074B4FF48071C3E902224FF480529C
:1012C400C3E90033034B0020C3E90012704700BF99
:1012D40004070020FC060020034B1B689B0602D475
:1012E4000520FFF749BF704700E100E030B51B4B14
:1012F4001B6863B18488E4B253F8045C043B6D68F2
:101304006D68AD78A54205D05B68002BF4D16FF011
:10131400120016E090F900504478002D16DB202CC2
:1013240004D0222C0ED06FF085000AE012681168F8
:1013340043F8101C918823F80C1C927903F80A2CAA
:10134400002030BD428803F8092CF9E7212CEAD1AA
:10135400103B136007230B60F2E700BFF810002076
:101364000022024B1A605A60704700BF4B150020E0
:10137400002103460C4AA0F84810106883F89C101A
:10138400C3F8940090889279A3F8980083F89A207F
:1013940083F89B104022A3F89E1083F8A01003F159
:1013A4004C000AF000BE00BFD0C200000123016956
:1013B40081F84A300B6833B191F848301BB10248C8
:1013C400083107F0A7BD70475005002001230169CB
:1013D40081F84B300B6833B191F849301BB10248A6
:1013E400083107F097BD70475005002013B5EFF39F
:1013F4001181202484F31288BFF36F8F846844B171
:10140400013C846081F31188BFF36F8F002002B028
:1014140010BD53EA020406D181F31188BFF36F8F24
:101424006FF00F00F3E7CDE900230246014806F010
:1014340041F8ECE74B2700201FB5002201236C463E
:10144400CDE902236B46074ACDE9004409F0A8F927
:1014540028B94FF4804200236846FFF7C7FF04B061
:1014640010BD00BF51B60000012370B582F84830AA
:1014740013680D4614463BB192F84A3023B10E4826
:1014840002F1080107F046FDD4F890305A89DB8850
:101494009A4205D175B904F1180040F6CD4204E032
:1014A40004F11800002DF8D00022BDE8704000239C
:1014B40007F060BD70BD00BF5005002008B50022D4
:1014C4000249034806F04AFA002008BDA865002036
:1014D400500500204FF050230022C3F82421D3F8F4
:1014E400242101221A62094A126822B14FF40072BF
:1014F400C3F804237047D3F82421002AFBD0002228
:10150400C3F82421D3F82431704700BF0C0800200D
:101514004FF050230022C3F82021D3F820210122C8
:101524009A61094A126822B14FF48072C3F8042305
:101534007047D3F82021002AFBD00022C3F82021D1
:10154400D3F82031704700BF040800204FF0502327
:1015540010B5D3F818141E4C11F4803FD3F8182496
:101564001BD002F00302022A02D0012A12D1012266
:101574004FF05023C3F818250022C3F80421D3F8F0
:10158400042101229A602268A2B9D3F80421002A16
:10159400FBD017E00AF0C4FCE9E7D3F81424D2071F
:1015A400E5D5D3F81C2402F00302013A012AF1D84C
:1015B40022681AB10222C3F8042310BDD3F804210F
:1015C400002AFBD00022C3F80421D3F80431F4E745
:1015D4001408002010B4EFF31180202282F3128843
:1015E400BFF36F8F22490B6843F0020413F0010329
:1015F4000C601AD04FF05023D3F80C14D3F80C34E9
:1016040013F0010311D0EFF3118182F31288BFF3B9
:101614006F8F184A936F03F0C00343F0020393677C
:1016240081F31188BFF36F8F012380F31188BFF317
:101634006F8F1BB1002010BC05F0ECBB4FF05022A3
:10164400C2F80031D2F8003101230B491360096854
:1016540019B1C2F8043310BC7047D2F80031002B22
:10166400FBD00023C2F80031D2F80031F3E700BF09
:10167400000800206007002058070020092813D81C
:10168400DFE800F005101212121212120E0C074BB2
:10169400986F10F0070007D105F0BCBB0220FBE7F0
:1016A4000320F9E70120F7E7704700BF6007002037
:1016B4002DE9F84F3E4922F07F44D1E90030D21A97
:1016C400D31840F10000C1E90030A4F50013B3F5CC
:1016D400400F09D2374B1B681D0A1B061819364BDD
:1016E40045F10001C3E90001EFF31185202383F3E1
:1016F4001288BFF36F8FDFF8C4B00026DBF8004018
:1017040000275C4508BF0024DFF8B490DFF8B480FC
:10171400C9F800204FEAE27CD8E900015CB1D4E9C1
:1017240004AE52457CEB0E0318DABAEB02036EEBFF
:101734000C06C4E9043612184FF0000041EB0C010A
:10174400C8E90021C9F8000005F0E4FA05F000FE3C
:1017540085F31188BFF36F8FBDE8F88F1AEB000093
:1017640041EBEA71C8E90001C4E90467204605F0C9
:10177400BBFA01224FF00043C4E9042385F3118826
:10178400BFF36F8F2046A3689847EFF3118520239A
:1017940083F31288BFF36F8FD9F80020DBF8004081
:1017A400A2EB0A025C4508BF0024C9F80020B1E797
:1017B40020030020F8060020280300205C010020FC
:1017C400F40600201803002003460A46F0B41979F1
:1017D400DB88006813430125094A06699A43346883
:1017E40008BF83F440238D4023F48012DB0787680D
:1017F4004CBF2C43AC4334603B68F0BC184700BF7B
:101804000100100010B50446BAB0E8220021684671
:101814000AF0C9FBE822694620460AF0E6FB04F117
:10182400080007F03DFD044B0020C4F8E0301C2301
:1018340023603AB010BD00BF09000002036803F042
:101844001F025B09026004D0012B034818BF00206B
:1018540070470248704700BF002884500025845018
:1018640010B504691022C4F8A40004F1A8010B48BF
:1018740009F09BFA002104F108000AF094FB084BDC
:101884003022E360002104F118000AF08CFB054BC0
:101894000020E3614FF48073636210BDF8100020F0
:1018A400CBA50000F94D00002DE9F047058B044657
:1018B400280717460CD501290CBF45F0100545F043
:1018C4002005258387F31188BFF36F8FBDE8F08768
:1018D400022905F0070540F09480204608F03EFEFA
:1018E400052864D801A353F820F000BFC9180000EC
:1018F400071A0000B3190000751900008F190000C1
:10190400A119000001F007035A1F012A1FD8002261
:1019140021F00701062BD4F8008089B2C4E9002223
:1019240009D1434603E0628B013262831B68002BBA
:10193400F9D141F002012046218308F00FFE4FF057
:10194400000900286DD041F02001218369E0042BB7
:101954000AD121F0070189B22046218308F0FEFD57
:1019640010B141F0200121834FF00008C14658E036
:101974002369D3F80090238B23F0070343F0060375
:101984004FF00008238346464BE02369D3F80490C4
:10199400238B23F0070343F00403F1E72369D3F80F
:1019A4000890238B23F0070343F00503E8E74FF087
:1019B4000008C146E7E7012243F00803238387F3C5
:1019C4001188BFF36F8F002A3BD1B8F1000F4AD1C1
:1019D400B9F1000F02D020462C49C847EFF3118714
:1019E400202383F31288BFF36F8F238B23F0080324
:1019F4009BB22383D9063FD523F01002228303F040
:101A040007056669218B002EBFF67CAF002399463B
:101A1400D4F8008021F00701C4E9003341F001014A
:101A24002183238B03F0070AAA4502D0A268002A67
:101A3400C1D1B8F1000F02D1B9F1000FDAD0002200
:101A4400BAE7A1680029C0D00D680029BDD033468B
:101A5400524620464F68B8471DB12B6829461D469B
:101A6400F3E72B46FAE74146334652462046D8F878
:101A7400008008F062FDA8E79A067FF523AF23F003
:101A84002002228303F0070527E700BFC3AD00004F
:101A9400002310B50B4A147884420AD00133042B76
:101AA40002F11002F7D16FF0010010BD00200A60AE
:101AB400FBE7D06809F020F80028F7D16FF0120096
:101AC400F3E700BF2CC50000F8B5042520270D4C12
:101AD400EFF3118687F31288BFF36F8F63681033B7
:101AE40007D16FF08B030848636004F12C0107F001
:101AF40011FA86F31188BFF36F8F013D04F140049E
:101B0400E6D1F8BD0011002050050020002373B574
:101B1400202504698DF8071084F84830EFF3118606
:101B240085F31288BFF36F8F0122D4F890000DF172
:101B3400070108F01EFF86F31188BFF36F8F012899
:101B44000CD0EFF305838BB101220D4BD3E8EF1FCB
:101B5400002903D1C3E8E02F0028F7D12122002374
:101B640004F1180007F006FA02B070BD94F8A13031
:101B7400002BE9D00021212009F0E4F9CEE700BFD1
:101B8400F4100020044B054A1B68B3FBF2F35843DE
:101B9400034B43F0010318476401002040420F0047
:101BA40020C4000070B5EFF31186202383F312885C
:101BB400BFF36F8F124A136823F0020113F001037D
:101BC400116018D14FF05024012242F21075C4F86C
:101BD40008236260C4F80031D4F80031D4F80C242E
:101BE400D4F80C34D20306D5DB0704D50120FFF763
:101BF400C9FF013DF2D186F31188BFF36F8F70BD29
:101C0400000800202DE9F04105460E461746EFF383
:101C14001188202383F31288BFF36F8F124C21683D
:101C240029B1124843688B4201D009F0BEF810482C
:101C340009F0D5F988F31188BFF36F8F206018B9C4
:101C440003463B60BDE8F081446800F10801A64208
:101C5400D8BF06F1FF34224628460AF0C6F900230D
:101C6400601C2B550123ECE7EC100020E41000204D
:101C7400DC10002073B51C4D28688368DB6B03B14E
:101C8400984728688368DB6A43BB184C28688368D4
:101C94001B6933B301220DF107019847012820D1B4
:101CA400236823B9124809F09AF9D0B12060114A87
:101CB4009DF8070011887F2904D823684E1C0B4423
:101CC400168018720A28E1D1138821680A484B60EB
:101CD40009F06BF8002313802360D7E798470028A6
:101CE400D3D102B070BD00BFF0100020D810002086
:101CF400E41000209C260020DC100020094B0A4A36
:101D040003F124011A60A432DA600022C3E9081244
:101D1400C3E90A229A601A741A759A611A639A8638
:101D2400704700BF90100020A7260020002318460B
:101D34000649D1F89020C2F30722934200DB704792
:101D4400C1F89830C1F8A0000133F6E700ED00E0D7
:101D540010B572B6002484F31388FFF7E7FF234617
:101D64004FF0FF300C4A03F120010133102B42F8ED
:101D74002100F8D100234FF0FF30074A03F160013E
:101D84000133102B42F82100F8D162B6BFF34F8F14
:101D9400BFF36F8F10BD00BF00E100E000280CDB33
:101DA40001220649430900F01F008240203341F814
:101DB4002320BFF34F8FBFF36F8F704700E100E024
:101DC4000028ACBF00F16040064B4FEA4111C9B294
:101DD400ABBF00F5614000F00F0080F80013195408
:101DE400704700BF14ED00E038B51E4C1E4B4FF099
:101DF400FF30C4F80833C4F8483300234FF0FF31F0
:101E0400C4F80835194B4FF40012C3E902014FF42A
:101E1400803302210125C4F80433154BC4F804139C
:101E24001520C3F88021FFF7CBFF1520FFF7A4F995
:101E3400104BA560002125600F481D6005F0EAF9EC
:101E44000E4AD2E8EF3FC2E8E15F0029F9D133B985
:101E54000B490C484B60CB608D6008F0BDFF00203F
:101E640038BD00BF0050015003000F0008030020DC
:101E740000E100E0EC060020FFFF7F00E806002000
:101E8400D80600207C07002070B502213720FFF718
:101E940097FF04F0E5FF044658BB174E337843B967
:101EA4000125164BC3F8005BC3F80457FFF714FA77
:101EB400357007230025124E3720C6F80833FFF784
:101EC4006DFF104B104A37201A60C6F80851FFF70F
:101ED40053F92A460D490E4805F040FD0D4E1022D7
:101EE400294606F128000AF05EF80B4BF3622046FF
:101EF40070BD6FF00404FAE79F26002000400050F4
:101F0400007003500C0A0020F148000068300020E3
:101F14003003002000120020954F0000274A2DE9CD
:101F2400F041022106460520FFF74AFF1379002BF2
:101F34003ED1234B136001231371224A11790029E6
:101F440036D12149137111604FF050221F49C2F854
:101F54001435087960BB1E480B7108601D49C2F82E
:101F64008035087920BB1C480B710860C2F818350D
:101F74001A4A1479E4B91A49137111604FF01C0814
:101F8400FFF7AAF9174F356908FB04539BB11846AC
:101F94001C2200210AF007F80C2303FB045501233B
:101FA4001C44042C0761AB67EDD10020BDE8F0812F
:101FB4006FF00400FAE76FF01500F7E75007002010
:101FC40081160000580700206D1200000C08002044
:101FD4000D5B0000140800207912000004080020A2
:101FE400195B000084C500002DE98048574A584B0E
:101FF40022F07F028BB09A60BFF34F8FBFF36F8FD5
:10200400D3F88820534822F47002C3F88820524A37
:102014000021121A09F0C7FF5048514A5149121AB7
:1020240009F0E3FF5048514A5149121A09F0DDFF03
:10203400002250B201210132FFF7C2FE452AF8D135
:10204400002004F095FC4B4B03F5006787F30888E8
:1020540083F30A88E0223E4B474E83F82220002275
:10206400DA771A765A769A7683F82020596A41F4F8
:10207400E021596283F82320596941F01001596124
:10208400596941F480615961596921F00801596124
:10209400102119614FF0FF319962D962D3F8901081
:1020A40011F47E4F29D0BFF35F8F3449C3F89420D5
:1020B400C3F8C01002213248C3F89820C3F89C101A
:1020C400C3F8A0000120C3F8980000F10050C3F841
:1020D4009C0000F5DF2000F2E270C3F8A00031702C
:1020E400D3F89000C0F30720814214DB0522C3F823
:1020F4009420BFF34F8FBFF36F8F22493478D1F808
:102104000480B8F1000F00F09C80B8F11F0F3BD899
:102114006FF0150495E0C3F89810C3F8A0200131BE
:10212400DEE72046C3F89850D3F89C2002F01F0243
:1021340042EA0802C3F89C2008F0B5FA7CE0D445D2
:10214400EFD1E8B208F0AFFA7BE000BF0000000076
:1021540000ED00E00803002064300020400000206F
:102164000803002068CC000000000020400000208C
:1021740028CC0000A85D0020A6260020AAFF440069
:10218400E1FF0F0090C5000018F01F0FC0D10A68CE
:10219400D306BDD1104608F07DFA904408F1FF3A09
:1021A4000546504608F076FA8542B1D115F1160F6E
:1021B400AED0A542ACDA814BC3F89850D3F89C005A
:1021C400C3F89850D3F8A09020F01F00824249F041
:1021D4001F0CB4D0013AC3F8985022F01F00D3F872
:1021E400A020D44502F01F0242EA0002C3F8A02056
:1021F4002046A1D008F057FA10F1160F88D06F4B83
:102204000130C3F89850D3F89C109DF82020C0B238
:1022140061F304028DF82020D3F8A030D2B25B0819
:1022240063F3471206A929F01F038DF82020CDF887
:1022340018800993FEF7AEFF10F1160F3FF468AF54
:10224400441C5F485F4B347083420CD008F022FA80
:1022540002465D4808F01EFA90425C4B00F088800C
:102264006FF015021A60012600244FF00208584D41
:10227400584B2046AB60C3E918441E749E81DC664B
:10228400554B0321C3F8006503F54053C3F8D086CA
:1022940008F03DFC3046032108F039FC4F4B214641
:1022A400C3F804671C22C3F804694D48C3F8006BE3
:1022B40009F079FE4B4B4A4A3046136104F058FB4F
:1022C400404604F055FB05F11803DFF81C81C5E90D
:1022D4000633DFF818A1464BC5F814804FF420529A
:1022E400CDE90463434953464046CDE90244CDE970
:1022F400004404F0F7FB98F81030814623F00403FF
:10230400404688F8103009F013FD0F23DFF8E8B0D9
:10231400CDE902434FF4A0725846CDE90464CDE9F7
:102324000054364B364904F0DDFB9BF81030D8F8E6
:10233400702023F004038BF81030324BC5F80CB036
:102344001A602C74C5E90178D8F8603083F30B88DF
:10235400544689F309880020034B984720460021FE
:1023640000220023014C2047FFAF0000ED5900007C
:1023740010F1160F18603FF476AF327882427FF77F
:1023840072AF0E4AC2F89800C2F89800D2F89C00C6
:10239400197B60F304011973D2F8A010187B490863
:1023A40061F347101873D2F89C1021F01F01596093
:1023B400D2F8A02022F01F021A6154E700ED00E0D9
:1023C4000803002000000720FFFF06203C10002027
:1023D4005C150020D0040020001000500040005084
:1023E400501000209CC5000050040020857D000092
:1023F4001EC90000A8350020D00300200FBA000039
:10240400683400206C100020054B5A699B689A427E
:102414001FBF044A536843F080535360704700BFA2
:102424005C15002000ED00E008B5EFF30583064AD3
:10243400103B02EBC30152F8330049688847BDE8FA
:102444000840FFF7E1BF00BF00CA000041F20443A7
:102454002DE9F04FEBB0ADF8043040F6061300243C
:10246400DFF88C91ADF80030D9F80010614BDFF83B
:1024740088811E680B78A6EB08065A1C62F30203D7
:102484000B7073BA4B808B8808225BBA8B804C70BC
:10249400204608F046FE3246414608F042FE074612
:1024A4001FFA86FAD9F800100AF10A031FFA83FB0F
:1024B40002AD5BBA2B800B683246CDF80A304B680C
:1024C4000DF112004146CDF80E3009F08EFD0AF1EF
:1024D4000C027FBA92B225F80B70002A6DD0032348
:1024E400B2FBF3F303EB4307BA4218BF01339B007B
:1024F4000133ED2B32D82EA920460B46DFF8FCE041
:10250400874205F1030C01F104062FD882420C46E0
:1025140021D90130824294BF00246C78824298BF52
:102524003D222F78354D4FEAA70C15F80CC04FEA21
:10253400071781F800C005EB141C82BFA40004F047
:102544003C042A5D34468A703D2207F030071CF8AB
:102554000770CA704F700022E31A22700025284EBB
:102564009CB2AC422BDC6BB0BDE8F08F1CF8034C82
:102574001CF8021C4FEAA4081EF80880240106F87F
:10258400048C04F030040EEB11181CF8015C18F8EC
:102594000440890006F8034C01F03C010EEB95144D
:1025A400615C05F03F0506F8021C1EF805100330B7
:1025B40006F8011C65463146A2E71346CEE73368A8
:1025C40002215B6895B96846671B98477C2FA8BFB2
:1025D4007C2733682EA8394628445B6898473368BB
:1025E40001215B6807483D449847BAE701A8EBE737
:1025F4007410002090100020A72600201BC70000A4
:102604007010002023C9000000F07F03082B42B2A1
:1026140004D010F0780F01D000207047002A00F099
:102624000F0300F0080004DA30B9054800EB43104A
:10263400704718B90348F9E70348704703487047DF
:102644004C1200206C1300204C1300206C1400204A
:1026540008B5144B014693F82420E2B193F82530D1
:10266400CBB1FFF7D1FF0346C0B1827A012A15D05E
:1026740007D9023A012A08D900205A69D8609A6118
:1026840008BD0121084A5165F6E7074A41F4807103
:10269400C2F81815F0E76FF01200F1E76FF01500BB
:1026A400EEE700BF001200200060035008B5074B9E
:1026B40093F8243023B1FFF7A7FF20B1406808BD89
:1026C4006FF01200FBE76FF01500F8E7001200202E
:1026D4000149024806F01EBC2812002030030020E5
:1026E400064B10F0800F03F1D80218BF13461822CE
:1026F40000F00F0002FB0030704700BF5C080020B0
:1027040010B5104B014693F82430C3B10478204629
:10271400FFF77AFF10B96FF0150010BD44720B7902
:1027240083724B88436008784988030702D44B1EA0
:102734000B42F0D1FFF7D4FF81820020EDE76FF068
:102744001200EAE700120020024610B5EFF31184EC
:10275400202383F31288BFF36F8F08F00AFD01234F
:102764000A4903FA00F00B6823EA00030B6012F035
:10277400080101BF02F00F02054B02F5947243F801
:10278400221084F31188BFF36F8F10BD140A002048
:1027940000600350F7B50146EFF31185202383F35E
:1027A4001288BFF36F8FFFF79BFF0646084608F0B9
:1027B400E0FC012211F0800F02FA00F22D4818D13A
:1027C400036832EA03040AD00846FFF7BDFF032377
:1027D400B37585F31188BFF36F8F03B0F0BD26493D
:1027E40023EA020303600B68347323EA02030B60D9
:1027F400EDE70B0715D48029204B2FD001F00F04EF
:1028040004F2DA346400C3F80048D3F80448D3F877
:102814000478E4B244F002043C43C3F80448D3F817
:102824000438154F04683B6864EA030C1CEA020F81
:10283400CFD013433B6000233373032324EA020401
:102844000622B3758DF807300D4B04601B688DF8B4
:1028540004208DF8061001A89847BAE740F2B47432
:10286400C3F80048D3F80448D3F80478E4B244F039
:102874000404D1E7100A0020140A00200060035069
:10288400180A002070B501251B4942B2002AB4BFC2
:10289400D1F81015D1F8141500F00F0305FA03F35D
:1028A4000B42044607D1002A134A05DAD2F8101560
:1028B4000B43C2F8103570BDD2F814150B43C2F89F
:1028C4001435431E062BF6D8EFF31186202383F329
:1028D4001288BFF36F8FFFF737FF204608F049FCDB
:1028E400064A8540136823EA0503136086F31188BA
:1028F400BFF36F8FDFE700BF00600350100A0020B2
:10290400030610B5044607D4054B00F00F029200ED
:102914009B580BB1FFF718FF024BC3F8184510BDC5
:10292400446403500060035073B584880D46E4B2D8
:1029340062068DF8074007D02046FEF721FB78B1E8
:10294400174B93F8BA0058B1154E5DB12046FFF706
:102954007FFEF3691BB108200DF1070198470120A0
:1029640002B070BD0F4B93F8242092B193F8253038
:102974007BB12046FFF748FE58B1230709D40A4B20
:1029840044F48072C3F80C452046C3F80C25FFF7C5
:10299400B7FFF369002BE2D009200DF10701DDE751
:1029A40090140020001200200060035070B5154EF2
:1029B400044696F82430DBB1FFF726FE0546D0B175
:1029C400230709D4104B44F48072C3F80C45204605
:1029D400C3F80C25FFF794FF2B7A7BB901232B72E4
:1029E40096F8253013B12046FFF74CFF002070BD48
:1029F4006FF01200FBE76FF01500F8E76FF0770057
:102A0400F5E700BF00120020006003502DE9F047F5
:102A14001746002900F0A3804C68B4B3D4E90045FC
:102A24008B68A3B3D3E9006393B38DB39D4240F0A5
:102A340096800135092D00F2928091F800A05FFA8A
:102A440085F808F0EDFF002840F08C80DFF8209135
:102A540099F83000012840F0888099F83830D3B1D3
:102A64000122444BC3F8082307F05CFF08B104F0CB
:102A740099F9002C31D0A8F10203072B2DD8DFE8F7
:102A840003F05C5A581F565452122546C8E71E4696
:102A940001351D44CEE705F095F87430E0D16FF0B0
:102AA4007300BDE8F087E3791B06A27943EA024389
:102AB400627943EA0223227913432E4AC2F83C3650
:102AC400E3781B06A27843EA0243627843EA0223CE
:102AD40022781343274AC2F838360024FF0347EA12
:102AE400052789F8394047EA0A07DFF8889047F450
:102AF4004057C9F80041C9F8347605F03BF8743002
:102B0400CDD0C9F8004146B3A8F10208D9F83C2653
:102B1400D9F83836B8F1070F1FD8DFE808F01D1BC5
:102B24001917161412100023BFE70023C0E700236F
:102B3400C1E70023C6E70023C7E70023C8E7110E57
:102B4400F171110CB171110A717132711A0EF270B6
:102B54001A0CB2701A0A727033700020A1E76FF079
:102B640015009EE74FF0FF309BE76FF00F0098E7EA
:102B74001407002000B002502DE9F04F06464368C8
:102B840093B05A6B5368117A03EBC101994205D88B
:102B94006FF00104204613B0BDE8F08F5879002887
:102BA40000F052820833F1E73A68C2F3C323082BDA
:102BB400C2F3080400F245825549C95C40F2FF1390
:102BC4009C4208BF4FF0FF34B2F10C5F4FEA12632E
:102BD40016D2032B16D9043B1E2B13D8DFE803F0BF
:102BE400151C211212121235401212121212121254
:102BF4001212435E6164121212676C6F7275780070
:102C04004E2B13D06FF08504C4E74FF0000AC5F8CB
:102C14000845621C63D12DE04FF0010AC5F80C454C
:102C2400F7E7C5F810454FF0000A15E0C5F814455C
:102C3400631C1FD00CA80C94FEF700FE0C9B4FF0F5
:102C4400010A09FA03F3836051E0C5F80845002935
:102C5400E9D14FF0000A0621631C0BD0002047E0A5
:102C6400C5F80C45F3E7C5F860457B88601C03F0A4
:102C7400010330D10437B84596D102212B20254FCA
:102C8400FFF79EF8304608F0DEF997F830307568A3
:102C94003269002B40D06FF077046AE1C5F86445CF
:102CA400E3E7C5F86845E0E7C5F86C45DDE7C5F836
:102CB40024454FF0010ACFE7C5F82845B8E7C5F821
:102CC4003045F6E7C5F83445F3E7C5F83845F0E78D
:102CD400C5F83C45ACE7002BACD14FF0010A0CA879
:102CE4000C94FEF7ABFD0C9B09FA03F3C3600120BF
:102CF4003B6800911A0444BF00204FF0010A0146CA
:102D040052462046C3F3412304F0B2F9B2E700BFB0
:102D140012C7000014070020A14BC7E90032002DA0
:102D240000F0BE8095F829401CB195F82A30002B9C
:102D340061D16968FF2900F07C81AA68FF2A00F04C
:102D44007881EB68FF2B00F0748128690E2840F02D
:102D54007081112940F06D81122A40F06A810D2B97
:102D640040F067816B69FF2B02D00F2B40F061812B
:102D7400AB69FF2B02D0102B40F05B81ACBB4FF052
:102D840003082346012221461120CDF8008004F0D7
:102D94006FF9CDF80080234601222146A86804F08B
:102DA40067F9CDF80080234601222146E86804F043
:102DB4005FF9CDF80080286923460122214604F0FA
:102DC40057F96869FF2806D0234601222146CDF829
:102DD400008004F04DF9A869FF2806D0032300936E
:102DE40000230122194604F043F995F82A3013B957
:102DF400281D03F0A9FF6B6A6A4C7B6395F82930A0
:102E040087F83A3007F08EFD20B10123C4F8083367
:102E140003F0C8FF2B68C4F84035AB7F697F2A7F75
:102E24009B0143EAC1031343EA7F43EAC213C4F894
:102E340044354FF47F03D3F83021D3F83431072AD3
:102E440011D1022B0FD095F82320D4F84435002A51
:102E540040F09A8043F44033524AC2F844354FF468
:102E6400C063C2F840364F4995F82030D1F80026A7
:102E740022F07F4222F0FF02134395F8212043EA17
:102E8400026395F8222043EA426395F8232043EA3B
:102E94000273C1F800363B6813B12B20FEF76CF9BE
:102EA400DFF804C14FF0000EBCE80F000CAC0FC4F7
:102EB4009CE80300AB234FF001090DF10C0BCDF896
:102EC4000CE084E80300CBE901EEC7E902EE8DF8DB
:102ED4000C30344B87F8309087F838E0D3F8242549
:102EE4000DF13008D2B20692D3F828254046D2B26A
:102EF4000792D3F83025D2B20892D3F83425D2B24F
:102F04000992D3F83825D2B20A92D3F83C35DBB211
:102F14000B9303F019FF97F83830D3BB484604F0FD
:102F240051FE82460DF11809484603F00DFFBAF12F
:102F3400000F31D1524659463046FFF767FD04462B
:102F4400B8B92320FEF71EFE9F220323CDF830A03C
:102F54004146C8F804A030468DF830205246079305
:102F6400CDF818B0CDF83890FFF750FD0323044690
:102F7400E0B1304608F09CF897F83030002B3FF46D
:102F840009AE03F0A7FC05E623F4003343F48033D1
:102F940062E76FF0770AC5E76FF00404E9E700BF62
:102FA40045B6000000B00250D8C200001A46594687
:102FB40005F1300009F03FF8044600283CD172685E
:102FC400537F023B012B32D9157F023D022D8CBF6A
:102FD40000250125304608F0BAFE00282FDBC2B2D6
:102FE400C0F38010A842C4D0002382F04002ADF8A0
:102FF40008308DF8082002AA069201220C9341465B
:10300400C8F80830304607928DF83020CDF8349057
:10301400FFF7FCFC04460028ABD1304608F097FECD
:10302400041E01DBE207F8D404EAE474A1E70125F5
:10303400D0E76FF015049CE76FF0120499E704469B
:1030440097E76FF01504A5E51F6893F804804FF027
:103054000109156807EB88080DE600BF0D4B1868D9
:10306400010A0006BFF35F8F0B4BD3F80435181821
:1030740041F10001B3F5801F0AD2084BD3E90023C4
:10308400904271EB030303D210F1807041F100010F
:10309400704700BFF80600200050015028030020AC
:1030A400F8B572B6002383F31188BFF36F8F05233D
:1030B4001A4E1B4F35786C1CB4FBF3F303EB8303FC
:1030C400E41AFFF7CBFF174A137823B157F82430DB
:1030D400C01A07281ED94FF05023D3F8141151B148
:1030E4000021E5B2C3F81411D3F81431357014B9C2
:1030F400012325461370FFF7B1FF47F82500BFF3FE
:103104004F8F30BF00BF00BF00BF00BF00BF00BF74
:1031140000BF00BF62B6BFF36F8FF8BDA5260020C5
:1031240028100020A42600202DE9F7432D4BD3F8C6
:10313400042391070BD5D3F8042142B10022C3F82C
:103144000421294AD3F80431136801331360254C50
:10315400D4F80433DA033FD5244BD3E8EF2F22F01D
:103164000101C3E8E01F0028F7D1D30702D4D4F843
:1031740040318BB30025C4F84051D4F84031FFF7F7
:103184006DFFEFF31182202383F31288BFF36F8F57
:10319400174BD3E90267B042B94120D3D3E9009871
:1031A4004FF0FF304FF0FF311D60C3E902014FF4CF
:1031B4008033C4F84833C4F84051D4F8403182F322
:1031C4001188BFF36F8FB9F1000F05D032463B462B
:1031D4000020CDF80080C84703B0BDE8F083A946BD
:1031E400EDE700BF00500150F8060020F006002073
:1031F40008030020012310B5074C15206360FEF777
:10320400CDFD4FF40012054BC4F80833C4F848331D
:10321400034BC3F8802110BD0050015003000F0080
:1032240000E100E030B587B00D46C0B201A9FEF759
:103234002FFC48B9019C1023A168204602AA10392A
:1032440007F02DFE002801DA012045E01022204677
:1032540002A907F0ABFF002840D11022204902A8A0
:1032640008F0E9FE00280CBF012302232B70A1689B
:103274000123183921F0070120460DF1030210390A
:1032840007F00DFE0028DFDB9DF80330204603F035
:103294000F021B096A702B7101220DF1030107F063
:1032A40085FF10B96B78042B03D901236B700023BD
:1032B4002B71A2682046183A22F00702083AA91C8A
:1032C40007F086FF0028BFD1A2682046183A22F0F2
:1032D4000702E91C07F07CFF07B030BD0323C5E7F4
:1032E400E4C6000008B507F010FB58B1584BD3F8FA
:1032F400202A3AB90D21C3F8201A0121C3F81C1958
:10330400C3F81C290022D30003F57F03D3F800136C
:10331400013107D0D3F800130132D3F80433202A43
:103324000B60F0D107F0F1FA002840F0888007F034
:10333400ECFA40B1474B484AC3F830254FF05023CC
:103344000122C3F858254FF47F03D3F83021D3F872
:103354003431072A06D1023B012B9EBF00223F4B8A
:10336400C3F84C2507F0D1FA50B14FF05023D3F8ED
:103374000024D10742BF0022C3F81421C3F8182146
:1033840007F0D0FA48B14FF05023D3F80024D20705
:1033940044BF6FF00102C3F8002407F0B6FA18B175
:1033A40065222B4BC3F80C2707F0BCFAB0B12B4BAA
:1033B400D3F82034002B11DA4FF050230322C3F842
:1033C400182501229A60D3F80421002AFBD0002298
:1033D400C3F804210122DA60C3F8182507F023FE9C
:1033E400E8B17E221A4B1B49C3F80C27C3F83C29C9
:1033F4007F231B4AC2F818310023C1F8043EC1F8E8
:10340400083E01F54821C1F81031C2F82431C2F850
:103414002C3102F5FF1202F58052C2F8A032114A93
:10342400D2F88C3043F44063C2F88C300E4A0F4B10
:103434001168C3F84415D269C3F84C2508BD292284
:10344400034BC3F80C270322C3F83C276FE700BFE4
:1034540000400050009003504400EFBE0020035091
:103464000020005000ED00E00080FF0000600050EC
:103474002DE9F7434268054692F82670036907F080
:1034840003070021C3E90033C3E902115961906ABB
:1034940068B9D5E9016996F82510D5F81080FF2997
:1034A40023D0D9F82840BCB96FF0570410E0283273
:1034B40007F022FB002800F0CA80002F0CBF4FF455
:1034C400B0114FF4D0111046FEF77EF9041EE0DA75
:1034D400204603B0BDE8F08396F82420002A4DD19D
:1034E4002846A04700280446F2DB96F8261001F08F
:1034F4000C0108290AD0AB6800391B6B18BF0121E5
:10350400002BD1D028469847041EE1DBB268B2F103
:10351400004F05D01146284607F094F9041ED7DB66
:103524007269B2F1004F11D0D5E901131B6A002B67
:10353400BAD00869824200F38780C9688A42C0F21F
:103544008380114628469847041EC1DB3368B3F1D3
:10355400004F1ED0AB685B69002BA5D0284601A99B
:103564009847041EB4DB3268019B9A4237DD11464A
:10357400284607F067F9041E10DAA9E7336A1A44EB
:1035840013F8010B8142ABD09A42F9D16FF0850454
:103594009EE76FF0004372689A42DBD11FBB96F836
:1035A40026309B0728D02846D9F800309847041EB7
:1035B4008EDBB06968B127494FF400450C463946A3
:1035C400E0FB05410023244A2046FDF7E7FA07F013
:1035D400B9FCD8F814300133C8F814300CE0726820
:1035E4009342DBDDC3E7D8F814300133C8F8143054
:1035F40096F82630D90601D4002469E7AC686068DF
:103604000028F9D06B6893F82630DA07F4D42E69D1
:103614004FF0FF334FF0FF32304608F05DFC736922
:10362400002B04DC0024304607F0EEFD50E7013B9C
:103634007361002BF6D1636828469847041EBEBF09
:10364400736901337361EEE76FF0150440E76FF0BF
:1036540012043DE73F420F0040420F002DE9F043C2
:10366400DFF8DC801F4698F8243004468946164665
:1036740085B0002B5DD098F82530002B59D0030677
:103684005AD5FEF7C1FF0546002855D0037A002B12
:1036940052D04FF0FF334FF0FF3208F1380008F0FA
:1036A4001BFCAB7F4BB108F1380007F0ADFD6FF0A8
:1036B4000A04204605B0BDE8F08316B9EB7F03B1D8
:1036C400EE77AB7AC3B95EB1B8F80A309E4207D23E
:1036D4006A68B6FBF2F302FB13630BB90123EB77C1
:1036E400184B1B78A34207D00122174B17481A65C1
:1036F40007F08AFD0024DCE701234FF00008204690
:10370400AB7701A9CDE90196CDF80C8003F0E4FB79
:10371400044650B185F81E800FB1C7F800806FF0E1
:1037240004040A4807F070FDC3E7002FF9D03E6097
:10373400F7E76FF01204BCE76FF01504B9E700BFB8
:1037440000120020A0260020006003503812002040
:1037540013B5164C237DF3B9E26801AB8020A16850
:10376400019207F053FD019AA3681344A360E36830
:103774009B1AE3606BB962B12369E2889A4208DD5F
:1037840094F8C82093FBF2F102FB11330BB9012327
:10379400237502B010BD002380201A4619462375F4
:1037A40002B0BDE81040FFF759BF00BF90140020DD
:1037B400002330B585B00D460193014600285CD145
:1037C400002D35D108212A460DEB010008F0DAFA64
:1037D400002804DA8020FEF73BFF05B030BD2C4CF6
:1037E400029AC4E903552260039ABDF80E30626060
:1037F40004F13802A2609DF908202575002A0ADB2D
:10380400802B04D98020FEF723FF0020E3E713B1C7
:10381400C4E90333E1E703F0ABFB0028DAD0E28824
:1038240023699A42D4BFE260E360FFF791FFD4E7D3
:10383400174C01AAD4E90203002B04DC08F0A2FA15
:103844000028CADAC6E7194608F09CFA0028D9DB32
:10385400019AA3681344A360E3689B1AE360002BF6
:10386400BBD104F13803A36003F082FB0028B1D07C
:1038740005B0BDE83040FFF76BBF8028ADD1044BE5
:10388400DA68002AF4D11B7D002BF1D1A5E700BF33
:103894009014002030B54FF400334268056942F2B9
:1038A400A10085B0CDE90103002385F89D30106A9D
:1038B400ADF80C100A22007901A907F0A7FC074C07
:1038C40095F89D3013B1002005B030BD0120FEF7FE
:1038D40059F9013CF4D16FF00400F5E7A186010029
:1038E4002DE9F0411D46204B174693F824200E463F
:1038F400002A33D093F8253083B3030631D401B9B9
:103904007FBBFEF781FE044658B3037A4BB34FF0F6
:10391400FF334FF0FF32154808F0DEFAE368BB428C
:10392400984628BFB84646B93FB905B12B600F4841
:1039340007F06AFC0020BDE8F08142463046A169E8
:1039440008F053FBA3694344A361E368A3EB0803B2
:10395400E360002DEBD0C5F80080E8E76FF01200BB
:10396400E9E76FF01500E6E70012002038120020A6
:1039740038B5EFF31185202383F31288BFF36F8FDB
:103984000468A04212D08CB1204608F0A6F904F1D4
:10399400180003F043FF00232046A36708F0C8F98A
:1039A4002946BDE83840074803F052B9D0E902324D
:1039B4009A4218BF0133836085F31188BFF36F8F78
:1039C40038BD00BF4B270020F8B50D4619462846E0
:1039D40017461C4606F0FBFE002847D07BB34FF089
:1039E400FF324FF0FF332348FDF700FD15F00306C7
:1039F4000CD0C6F10406A64228BF264639462846FE
:103A0400324602F005FF35443744A41B002301224B
:103A14001946194E24F00300984212D16FF00302A4
:103A2400A30802FB03421AB1C119284402F0F0FEB4
:103A3400D6F80034DB07FBD50E48FFF799FF0020CA
:103A4400F8BD53F807C0C6F88425C6F80425D6F88F
:103A540008E41EF0010FFAD043F805C0BFF35F8FEE
:103A6400C6F884150433C6F80415D5E76FF01500BD
:103A7400E6E700BF040700200090035070B50C4631
:103A840011462046154606F0A2FE58B344EA020643
:103A9400C6F30B0636BBB2F5805F01D2002070BDC1
:103AA4004FF0FF324FF0FF331048FDF79FFC2046E4
:103AB40002224FF0FF310E4B2544C3F88425C3F88E
:103AC40004250160D3F80044E407FBD500F58050D9
:103AD400A842C3F88465C3F80465EED10348FFF730
:103AE40047FFDBE76FF01500D9E700BF04070020AC
:103AF4000090035038B503690446C0E90533002338
:103B0400C360837F93B1457A4FF0FF324FF0FF33A8
:103B14000A48FDF76BFC2846FEF73CFE0748FFF712
:103B240027FF4FF48002064BC3F8042101232377B7
:103B340000236377E377A37738BD00BFE00100205B
:103B440000E100E038B5002464F07F00C0B2FEF765
:103B54005BFD0134FFF7CEFF082CF5D100240E4D98
:103B6400E0B2FEF751FD036903B905610134FFF7C3
:103B7400C1FF082C05F14005F2D10848FFF7BAFF50
:103B8400074BD3F87C2212B9064AC3F87C220648B4
:103B9400FFF7B0FF002038BD1C0E00204C1300209E
:103BA400001200201C0A00206C14002038B50446C2
:103BB400FEF72AFD054678B3037A83B34FF0FF324C
:103BC4004FF0FF331748FDF711FC2046FEF7E2FDE6
:103BD400012304F00F029340DB43134A14F0800FD7
:103BE40015BFD2F81015D2F814150B400B4014BFB2
:103BF400C2F81035C2F814350A48FFF7B9FE00249C
:103C04004FF48002094B2846C3F80421AC77FFF730
:103C140071FF20462C7238BD6FF01500FBE76FF082
:103C24007700F8E7E00100200060035000E100E0C5
:103C340010B50446FFF7BAFF10F1780F00D058B959
:103C4400204606F0A7FC064AD2F8C43023EA000353
:103C54000020C2F8C43010BD6FF01500FBE700BFB0
:103C64009014002038B58478EFF31185202383F372
:103C74001288BFF36F8F2046FDF79EF950B1436859
:103C8400103307D16FF08B0300F12C014360074818
:103C940005F040F985F31188BFF36F8F2046FFF7D5
:103CA400C7FFB0FA80F0400938BD00BF50050020BE
:103CB40073B503794179867843EA0123ADF802307C
:103CC400C378024603F0030330468DF8043006F04F
:103CD40061FC154C0546D4F8C430184209D010468E
:103CE400FFF7C0FFEFF305831BB90520002103F0A4
:103CF400CDFC68468DF80060FEF702FD10B100208F
:103D040002B070BD3046FEF751FE10F1780F01D0BD
:103D14000028F4D10120D4F8C43084F8B9002B432E
:103D2400C4F8C430ECE700BF901400202DE9F0473C
:103D3400A24D0446AB690E46174663B9207800F0DD
:103D44001F0001287CD0022800F0DA8040B16FF017
:103D54001500BDE8F08798470028EFD10020F8E768
:103D640094F900206378002A29DA062B0AD0082B5C
:103D74003A681FD0002BEAD1537001231370022339
:103D84003360EBE76388190A0A1F012A8C46DED9DF
:103D94000729DCD8DAB26B6A1C78002CD7D05D789E
:103DA400654503D1824200F0038101302344F3E7E7
:103DB4001B78E5E795F8BA3013700123E0E7052B8B
:103DC40016D0092BC3D1638833B1FF27B8466E6A76
:103DD4003378BBB90028BAD0FDF7C2FA638885F8F6
:103DE400BA30EB69002BB9D0032075499847B5E781
:103DF400744B93F82420002AA9D093F82530002B83
:103E0400ACD1A4E77378042B0DD0052B0ED0022B74
:103E140006D177796388BB4208BF40F00100C0B285
:103E240033781E44D4E796F80380F9E76388BB42ED
:103E3400F6D1B8F1000FF3D13046FFF739FFEFE7C1
:103E440095F8BA30002B82D0D5F82480A188434657
:103E54005FFA81FC1A78002A3FF479AF5878022877
:103E640004D193F804E0E64500F2B0801344F1E78E
:103E740013705370306071E79844B4E00B2B7FF4F7
:103E840066AF0026FF27B246B94608E098F801302D
:103E9400042B11D0052B21D098F80030984498F8C1
:103EA4000030002BF2D1EB6913B15146072098473B
:103EB400002E7FF453AF4AE798F80270A38898F86D
:103EC40003909F42E8D163889945E5D1072F14D820
:103ED400EB19C246012683F8BB90DDE7A388BB42F9
:103EE400DAD163884046DBB24B4503D0FFF7BAFE14
:103EF4000646D1E7FFF7DCFEFAE7C2460026CBE729
:103F040094F900206378002A3CDA002B7FF41FAF79
:103F1400B4F8048018F07F0F5FFA88F40AD02046C2
:103F2400FDF72EF800283FF412AF95F8BA30002BB5
:103F34003FF40DAF234B396893F82420EAB193F88A
:103F44002530D3B12046FEF75FFBB0B1A9B12307FA
:103F540016D418F0800F1C4B04F00F000BBF00F5B3
:103F6400887000F5847003EB800353F8203008BF99
:103F74005B68003B18BF01230B7000234B70FEE607
:103F84000023F9E7012B08D0032B7FF4E0AE63880C
:103F9400002B7FF4DCAE012103E0618800297FF46B
:103FA400D6AE2046FEF7C0FC00287FF4D7AECEE69E
:103FB40002293B607FF4FCAE5B88E1E690140020AC
:103FC4004A150020001200200060035094F90020DC
:103FD4006378002ABFF652AF3A68002B3FF448AF2B
:103FE4000A2B7FF4B4AE98F80030002B3FF4AFAE48
:103FF40098F8010004287FF43FAF98F8020081424A
:104004007FF43AAF072996BF4919002391F8BB30D2
:10401400D2E600BF04282DE9F14F04460F46DFF82D
:10402400949016D001282DD1DFF88C8098F8B930FF
:1040340043B3FDF749FD214D4D4520D24FF0000A11
:10404400D5F820B02B7F5FFA8AF6B34204D8243522
:10405400F2E7FDF785F9E7E70BEBC6063079FFF7E2
:10406400A5FD0246307906F095FAD8F8C4300AF175
:10407400010A23EA0003C8F8C430002AE2D000236E
:1040840088F8B9300D4D4D4508D30B4B1B6A6BB105
:104094003946204601B0BDE8F04F1847EB681BB124
:1040A4003A462146284698472435ECE701B0BDE856
:1040B400F08F00BF0803002090140020E4020020C9
:1040C4002DE9F04F584BDFF86481D3F8542185B0C3
:1040D400EAB10022C3F85421D3F80413890216D597
:1040E4008DF80C20D3F8202503A8ADF80E20D3F8C2
:1040F400C034002B14BF4FF001224FF48072D8F863
:1041040000301343C8F80030494B1B689847464BAE
:10411400D3F8604134B10022C3F86021D3F86C4471
:10412400C3F86C44D3F828214AB10022C3F82821EB
:10413400404B187807F01DF8012383401C43DFF837
:10414400F8A09AF800509AF9006015F0080005F0FC
:104154000F0236D1002EB4BF384B394B91000B44BB
:104164001968DFF8E09041B3002119602E4B78BB49
:104174008E424FF0140101FB0233B4BFD3F808366A
:10418400D3F80837304A03F0010311782F484B4025
:104194001370FFF7EDFB2846FEF7A2FA837D032B8D
:1041A4001DD1284606F0E5FF012303FA00F0D9F8F3
:1041B400003023EA0003C9F80030012506261C4F0D
:1041C40071E0234B234933EA260328BF0B46C7E794
:1041D400002EB4BFD3F8A836D3F8A837D2E7037BB0
:1041E400E3B9284606F0C5FF012303FA00F0D9F825
:1041F4000030002E23EA0003C9F8003001DA882DCC
:10420400DBD106238DF80C3000238DF80F30084BDA
:104214008DF80E501B6803A89847CEE7002DCCD12B
:104224000122014BDA64C8E700600350140A00203D
:10423400180A0020A02600209E26002008610350B2
:1042440030610350100A0020A1260020E001002064
:10425400506103502C61035094FAA4F3B3FA83F32E
:1042640019460F2BD8F80020C8BFA3F1100105FA96
:1042740003F342EA0302C8F80020D9F80020CCBFB7
:10428400C9B241F0800124EA030413400A0640F154
:10429400938043B98DF80C608DF80E108DF80F30B3
:1042A4003B6803A89847002CD6D1A74BD3F800212C
:1042B4005AB1C3F80041A54B03A81C70A44B1C7051
:1042C40001230393A34B1B6898479F4BD3F85821B2
:1042D400002A2ED00022C3F85821D3F80044E60562
:1042E400C3F8004408D50122984B03A81A7002238E
:1042F4000393984B1B689847A50508D50022934B58
:1043040003A81A7003230393924B1B689847600514
:104314000FD58E4B1A7862B100221A7001228A4B93
:1043240003A8C3F808259A6504230393894B1B68E3
:104334009847854BD3F85C3123B3874B9B681BB9F3
:104344009AF8003059061DD000227F4B03A8C3F809
:104354005C21D3F880347E4A23F07F031370D9F8AC
:10436400003023F00113C9F80030D8F8003023F4EA
:10437400803343F00103C8F8003005230393754BE1
:104384001B689847D9F80020D8F800301A4200F08A
:10439400C880002200237048FDF728F8002840F068
:1043A400C080694BD3F82C35002B43D06A4805B044
:1043B400BDE8F04FFFF7DCBA002B7FF474AF8DF843
:1043C4000C608DF80E108DF80F5069E7003B71E01A
:1043D40004F00802002A73D05B4AD2F8C02412F415
:1043E400803F18BF00222968904223BF5718801AC3
:1043F4002F60002724BF17466860003818BF0120CB
:10440400964518BF0020002960D097425ED2012152
:10441400B14023EA0103C9F80030062302208DF8D5
:104424000C304C4BA8758DF80F001B688DF80E40AE
:1044340003A89847D9F80030D8F800601E40B5D0DA
:1044440016F0012114BF91FAA1F696FAA6F6B6FA6F
:1044540086F6F4B20F2EC6BF103CE4B244F08004DA
:1044640020460093FEF73CF94FFA84FB04F008035E
:10447400BBF1000F0546B0F814E001934068009BBF
:10448400A6DA2968864501F06043774628BF0746C7
:10449400B3F1005F04D03A46304807F0A6FD2F4937
:1044A4002A686B683A442A60AA68DB1BD2076B60EF
:1044B4008CD53B1E18BF012353B900232B7307E08F
:1044C400214A04F5947152F821208CE70028F4D095
:1044D4000122D8F8003002FA06F623EA0603C8F8E7
:1044E40000302B6904F008003B442B618AF800403B
:1044F400154BC8B9142004F00F0400FB0430BBF1C1
:10450400000FB5BF03EB84030A34C0F80016C0F8EB
:104514000017B5BFC0F80476C0F804775A6043F8B2
:10452400242005B0BDE8F08FBBF1000FB5BFC3F880
:10453400A016C3F8A017C3F8A476C3F8A477B4BF31
:104544005A629A64EDE700BF00600350A22600207F
:10455400A0260020180A0020E00100201C080020EA
:104564004FF0FF32F8B52B484FF0FF33FCF73EFF16
:104574004FF48002284BC3F884215B685A0213D598
:104584000127264E264B34681B686FF30F041C4327
:1045940054BB40F2FF13234D33603620C5F8044565
:1045A400FDF7FCFBC5F800431F4A13788BB10021CB
:1045B4001C4BC3F808110121C3F80026C3F80416E4
:1045C4005960D3F808110029FBD00021C3F8081161
:1045D40011700022134B0F48C3F80025FFF7C8F9E8
:1045E4000122124B1A70F8BD94FAA4F5B5FA85F5B8
:1045F40028460F2DC6BFA5F11000C0B240F08000C0
:10460400030701D4FEF7C6F807FA05F524EA050402
:10461400BEE700BFE001002000E100E0140A002032
:10462400100A002000600350A1260020A3260020C9
:104634002DE9F047EFF31187202383F31288BFF3AA
:104644006F8F5F4B1868002800F09F8059680268DC
:10465400884222F0030208BF5A601A60036899076F
:1046640000F09380D0F8049050F8046CEFF31188B4
:10467400202383F31288BFF36F8F35680122AB6860
:10468400B3F5004F34BF04230823C41A043C641B4D
:10469400E4082146284605F031FF104006D180F396
:1046A4001188BFF36F8F0423184602DF2146284682
:1046B40005F02FFF04EB000A51460022284605F0BE
:1046C4001DFFAAEB000A544506D082F31188BFF3FC
:1046D4006F8F0423184602DFAA6805EBC403B2F502
:1046E400004F2BBF5A685A8822F0010222F00102BF
:1046F4002CBF5A605A802146284605F00AFF04EB75
:10470400000A01225146284605F0F8FEC20708D4E3
:104714005146284606F0CCFA52462146284606F071
:104724009EFA00222146284605F0E8FEA4EB000A82
:1047340001225146284605F0E1FEC30709D451463B
:10474400284606F0B5FA22465146284606F087FA6E
:1047540054462146284606F0E7FAEFF3118A20234F
:1047640083F31288BFF36F8F0023F46806F10C05FE
:10477400A54210D18AF31188BFF36F8FD3B141469C
:1047840006F1140002F064FA484687F31188BFF377
:104794006F8FBDE8F087002CECD0204607F09DFA1F
:1047A40004F1180003F03AF8204602F015FA012348
:1047B400F468DDE788F31188BFF36F8FE4E700BF87
:1047C400F0010020F8B50446EFF31186202383F3AB
:1047D4001288BFF36F8F204B1F4657F8085F5A6843
:1047E400BD4213D095B1284607F077FA05F11800B9
:1047F40003F014F800232846AB676C6107F098FABD
:1048040031463846BDE8F84002F022BA0021216062
:1048140032B91A6822605A681C6042B95C6006E0CA
:10482400106803280ED8596831B9C3E9004486F3E7
:104834001188BFF36F8FF8BD0A6802F003022243A8
:104844000A60EBE720F003002060136803F0030321
:104854001C431460EBE700BFF00100202DE9F04198
:104864004668EFF31188202383F31288BFF36F8F18
:10487400124CE768B7B92568A54213D095B128460C
:1048840007F02BFA05F1180002F0C8FF2846AF67BD
:104894006E6107F04DFA414604F10800BDE8F041AD
:1048A40002F0D6B93760A369E660013BA36188F3DF
:1048B4001188BFF36F8FBDE8F08100BFB001002005
:1048C40010B5044606F0CDFE60B1002204720274F5
:1048D400FFF778FF044B93F824301BB1BDE8104078
:1048E400FDF7F6BE10BD00BF00120020012870B510
:1048F40004461ED002281DD0D0B9EFF31186202320
:1049040083F31288BFF36F8F0D4D284602F086FFA4
:10491400002200232846C5E90A230A4945F69912CC
:1049240000232C6302F038FD86F31188BFF36F8FE8
:1049340070BD00242046BDE87040FFF7C1BF00BF32
:10494400780100200177000070B58178064608469A
:10495400FDF75AFE0B060446F57812D5002D43D117
:1049640006F07FFE034600283ED00122A57702749C
:10497400032202739C60FFF725FFBDE87040FDF73A
:10498400A7BE4DB1012D2FD106F06BFE034658B3DF
:10499400657705740573EDE706F063FE20B3B2781E
:1049A400124B12F0800F02F0080111D041B1D3F87C
:1049B400A836E36001230374022384600373DAE7F7
:1049C400142102F00F0201FB0233D3F80836F0E79A
:1049D40011B1D3F8A837ECE7142102F00F0201FB60
:1049E4000233D3F80837E4E770BD00BF006003501A
:1049F400F0B5064687B01422002101A807F0D3FAC7
:104A04003378013B052B21D8DFE803F0900314141D
:104A14007516032300248DF80C3006F022FE03469D
:104A2400A0B100F108020474DDE9030182E8030087
:104A340018461DE00423EDE7B1780846FDF7E4FDD0
:104A4400837A044623B1013B022B4ED907B0F0BD53
:104A54000B06F57813D5002DF8D106F002FE0346B7
:104A64000028F3D00122A5770274032202739C600C
:104A7400FFF7A8FE07B0BDE8F040FDF729BE55B129
:104A8400012DE3D106F0EDFD03460028DED0657765
:104A940005740573EBE706F0E4FD01460028D5D064
:104AA40002230127037307748460B078FDF718FEAE
:104AB400EFF31183202282F31288BFF36F8F026910
:104AC400E26083F31188BFF36F8F194AE068B2F88C
:104AD4008C32834282BF1B1AA2F88C32154B0846D3
:104AE4008CBFDF64A2F88C52C2E7304607B0BDE841
:104AF400F040FFF729BF0F4BD3F88014D3F8842478
:104B0400D3F88804D3F88C04D3F89004D3F894042D
:104B1400D3F89804D3F89C34D3B2052B02D111F006
:104B2400600F93D0044B0124039376E7022474E7C7
:104B340000120020006003506C13002070B51E4D5D
:104B4400034695F8242082B395F825206AB31B0602
:104B54002ED4FDF759FD044650B3037A43B34FF006
:104B6400FF334FF0FF3205F1380007F0B5F9E36881
:104B7400B3B9012663692677A361637F83B106F025
:104B840070FD30B905F1380006F03EFB6FF00B0004
:104B940070BD067484600673FFF714FEFDF798FD7C
:104BA400064806F031FB0020F2E76FF01200EFE751
:104BB4006FF01500ECE700BF00120020381200204F
:104BC4002DE9F34150F8283C0446103310F82C5CCE
:104BD4000AD1036950F8202C980732D5B2B9590785
:104BE40011D5002344F8283C54F8283C103364D0F1
:104BF400EFF30583002B4DD02146314802B0BDE8C8
:104C0400F04104F087B943F004032361284654F8C3
:104C1400241C01AB06F0FAFA10B16FF01503E1E7BA
:104C2400019A54F8243C134444F8243C54F8203C9E
:104C34009B1A44F8203C54F81C3C134444F81C3C94
:104C4400D2E7284654F8241C01ABFEF749FE00289D
:104C5400E3D1019954F8243C54F8206C0B4444F8F3
:104C6400243C54F81C3C761A0B4444F8206C44F859
:104C74001C3C0029B5D02846FDF718FDB1FBF0F324
:104C840003FB10110029ACD1002EAAD02846FFF74F
:104C940055FFA9E754E90776A4F1100044F8183C3D
:104CA40054F8148CFEF764FE3EB142463946284659
:104CB400334602B0BDE8F041184702B0BDE8F081C8
:104CC400500500204B1E012B37B505460C460ED867
:104CD400FCF772F968B9012C09D101AB012228460D
:104CE4000DF10301FEF7FCFD019B002BF5D103B090
:104CF40030BDEFF305832C300BB1012C04D103B08C
:104D0400BDE83040FFF75CBF0146034803B0BDE88F
:104D1400304004F0FFB800BF500500202DE9F74FE4
:104D240007468B4616469846FCF746F918B145687F
:104D340015F1100F28D0EFF31189202383F3128883
:104D4400BFF36F8F002428490846002200230191F5
:104D5400FCF74CFB019960B9244B4FEA841A03EB2E
:104D64008414656815F1100F12D10846FEF700FE91
:104D740006E00134042C01F14001E5D16FF00B058C
:104D840089F31188BFF36F8F284603B0BDE8F08F15
:104D94000C9A206162610D9A3846A2616FF00F028D
:104DA40003F80A70C4E902B6C4F83C806260FDF7F7
:104DB4007DFC0E4B38B1B6FBF0F200FB126616B167
:104DC40048F00402E263B8F1010F07D00AF12C01A4
:104DD4000748194404F09EF80025D1E73846FFF748
:104DE400ADFE0546CCE700BF1C11002000110020D9
:104DF40050050020F7B5D0F88C3005465B681B6A77
:104E04001E7D3046FCF7D8F810B1436810333AD011
:104E140095F88630002B36D0AA6F5089D388D18973
:104E24001B1A9BB2B3F5806F28BF4FF480631769D8
:104E3400411A89B2B942BCB224BF091B89B2641AAF
:104E4400A4B29C4228BF1C46031917685381D4B1ED
:104E5400002385F83030A306A5F1180301930B4B0A
:104E640008BF04F1FF34224600933944022330463C
:104E7400FFF754FF2246A86F00F10A0103B0BDE812
:104E8400F04005F05CBD03B0F0BD00BF6D14000040
:104E940037B514460A1E054621DDD4F88C0004F10A
:104EA4004C0105F066FD012384F8493023683BB1C9
:104EB40094F84B3023B1114804F1080104F02AF8A6
:104EC400D4F88C209388918912695B1A9BB2D31A07
:104ED4003F2B04D8012384F8A03003B030BD94F8EC
:104EE4009E30002BF9D0064B402200932846012324
:104EF400019404F14C01FFF711FFEEE75005002087
:104F0400954E000073B5204B1C6854B354F8043C10
:104F1400043C5B68984201D06468F6E70139A4F167
:104F2400A40505291DD8DFE801F01E1C031E242852
:104F340014F8061CA9B923682A465E68012304F8FC
:104F4400063C336A187BFFF7A3FF14F85C2C42B9C4
:104F5400336A1146187D0D4B019500930223FFF728
:104F6400DDFE02B070BD284602B0BDE87040FCF71B
:104F7400FFB9012304F8053CF3E714F8053C002BC2
:104F8400EFD00023F6E700BFF81000206D140000F6
:104F94002DE9FF478246964C964FFFF749FB814621
:104FA40010B904B0BDE8F08794F8253099F81020C2
:104FB4002BB9002A00F08980FFF750FCEDE7042AA2
:104FC40047D8DFE812F0820005006D0183019E01DD
:104FD40099F80C30D9F80850032B3AD8DFE803F0DD
:104FE400023F5C6100226E69DFF80C8232607260FD
:104FF400D8F880343370D8F884347370D8F888348F
:10500400D8F88C1443EA01237380D8F89034D8F884
:10501400941443EA0123B380D8F89834D8F89C1444
:1050240043EA0123F3800823EB6030687168734B13
:1050340003C311462B68687A984796F90030002B11
:1050440009DBF3889AB232B1A4F88C320123C8F890
:105054004C304846B0E70023A4F88C32F9E76B7F64
:10506400002BF6D02B7F002BF3D000264FF0FF321D
:105074006E774FF0FF332E77614806F02DFF6B6992
:10508400687A01936B6801A9CDE9023601F024FF27
:105094005B4806F0B9F8DCE701212B68687A984789
:1050A400D7E7AB7A73B9EB7F63B94FF0FF324FF0B8
:1050B400FF33534806F010FF01224F4B50481A6546
:1050C40006F0A2F802212B68E8E799F80820042AE0
:1050D400BFD8DFE812F07F0005004000A700DA0027
:1050E40048490B78012BB4D84FF40062424BC3F803
:1050F40000240122C3F80025D3F800241505FBD5AC
:105104004FF40062C3F800248022C3F81C25012256
:1051140040F2FF10C3F830253B4B186000233B4896
:1051240003603B4803703B480370022008703A490F
:10513400D1E8EF0F984203D1C1E8E52F002DF7D154
:1051440087D141F8083C41F8103CE06914396261A8
:1051540005F042FE7DE7002565F07F00C0B2FDF753
:1051640053FA037A13B1407AFDF78CFB0135082D0D
:10517400F2D194F854311BB194F85501FDF782FB38
:105184000025E8B2FDF740FA037A13B1407AFDF73F
:1051940079FB0135082DF4D194F874321BB194F8DD
:1051A4007502FDF76FFB00251C4B134E1D701C4B45
:1051B4003620C6F80033FBF7DFFF0123C6F80435B9
:1051C40084F825302368002B3FF443AF294602209E
:1051D40098473EE7002584F82550FFF7C1F901F010
:1051E400DDFE2368002B3FF434AF29460420EFE7AB
:1051F40000120020007003500060035004120020CD
:1052040038120020A3260020140A0020100A0020CF
:10521400A1260020A026002020120020A226002083
:10522400FDFFDF01002B3FF414AF4FF0FF324FF0CE
:10523400FF333D48FCF7DAF8EFF31181202383F3C1
:105244001288BFF36F8F394B1B7883B1384BD3F877
:10525400002412F400720AD10120C3F82C05D3F8FB
:105264002C05D3F80004800548BFC3F82C2581F32E
:105274001188BFF36F8F2C48FEF77AFB2368002B4D
:105284003FF4E7AE00210520A2E72268002A3FF49C
:10529400E0AE002B3FF4DDAE002106209047D8E6B7
:1052A4000AF110054FF0FF334FF0FF32284606F0A5
:1052B40013FEFEF747FC284605F0A6FF5AF8283CE3
:1052C400002B3FF4C6AE0021012081E794F874322C
:1052D4007BB1012584F8895284F8885206F0C1F91B
:1052E40038B1144A057405738260FFF76BFAFDF751
:1052F400EFF95AF8283C002B3FF4ABAE00210A200A
:1053040066E70725C7F80853FFF72AF900230A4A76
:1053140013600A4A137006F09CF9FEF713FCC7F8F1
:10532400045301F09DFD94E6E0010020A226002034
:10533400006003506C140020180A0020A3260020EB
:105344002DE9F3411D4683883F2B38D1037803F0C0
:105354000703022B33D1C379002B30D1032001A9D9
:10536400FCF796FBA8B101240A21284606F0A5FC07
:1053740002221449284606F096FC2146284606F0E7
:1053840089FC0A21284606F09CFC204602B0BDE8B0
:10539400F081019B9E68002EE5D0DC68D3F8048080
:1053A400A7682046FB689847BB68002BDBD02046E3
:1053B400324641469847041E18BF0124D4E7082406
:1053C400E3E700BF25C9000013B504460A210A48D3
:1053D40006F073FC02220949074806F064FC01A8A0
:1053E400019402F0ABFB0A21034806F06AFC02B008
:1053F400BDE81040FDF72AB89010002025C9000030
:105404004FF0FF332DE9F04FD5B00993089307937C
:10541400012332934BAB0025389302233090084488
:1054240040222946CDE94D350AAE39AB339020A848
:105434004B93C6E900558DF8D0508DF8D45036956D
:105444004C95ADF83C51069506F0ADFD03220521BF
:105454004FF0040BA94B0DF120091C93A84BA9484C
:10546400CDE91E39A84B09AF2193A84B0DF11C08B7
:10547400CDE92336A64BCDE92B022693A54B30A8C4
:1054840006ACCDE92838CDE92D371D91CDF888B08B
:1054940027920DF1170A8DF8175006F02FFBC8B1AB
:1054A4000CAD53465A46294630A806F038FB88B15D
:1054B4009DF817E0BEF1000F31D12B683898D0E980
:1054C400011291422ED30123C360319B3093329B4E
:1054D4000133329303230A218F48019306F0EDFB35
:1054E40002228E498C4806F0DEFB019B0CA8036067
:1054F40002F024FB019B4BB982490322864806F043
:10550400D2FB874B8448196806F0C4FB0A21824801
:1055140006F0D7FBFCF79AFF55B0BDE8F08F6FF0AB
:105524000F03CBE700228DF8D02042680DF1C00AAA
:105534000132426038980DF1E00B4268511E026856
:10554400242000FB0122D446BCE80300DC451060A3
:105554005160E24602F10802F5D1DCF80000106067
:1055640032938DF8D4E0BEF1000F0ED16FF00042FB
:10557400934208D3319A0133052130A830923293F3
:1055840006F060FAA6E75B0032934FF0010B0DF1D1
:10559400700A0322294630A806F03EFB002833D0C7
:1055A400309B6A68134430932B68019304231CA92D
:1055B40030A8824528BF8A46DAF8041091421AD1ED
:1055C400DAF800100198CDE9022306F034FDDDE994
:1055D400022380B99AF81030002B7FF47BAFDAE90C
:1055E400023130A8984700283FF474AF8AF810B00D
:1055F4000AF1140ACDE7013B0AF1140AD7D130A805
:1056040006F0D2FB0028C4D19DF8D43083B130A871
:1056140006F02EFB00283FF45DAF00234FF0FF3C63
:105624008DF8D430389A536823B90223D36051E7F4
:105634009C46F7E73099126801912421013B01FB54
:105644000322DDF8C8A030AB02F1200B9E4610689F
:1056540051680832AEE803005A457346F6D1106823
:10566400D445CEF80000389A536803F1FF335360F1
:1056740006D2389B002B3FF42DAF0422DA6029E7D1
:10568400019B3A683093531C3FF424AFD6F800A032
:10569400BAF1000F3FF41EAFD6F804B0214B22B983
:1056A400D9F800104E1C26D019601B68012B23D991
:1056B400022B0CBF02206FF01500214600F0EB0016
:1056C400FCF7E6F900287FF405AF3B68144E002B85
:1056D40071D1D4F8009033604846D9F8087005F0C9
:1056E40023FC4FF4AE735843D9F80810303081428C
:1056F4001AD206F055FC1A600120DEE728C9000022
:10570400F9BB000037C900002EC900005DBC0000D1
:1057140033C9000019BC00009010002025C9000006
:10572400881000208C100020091A574A484605F0BA
:105734008BF9002840F0A580D8F80030BB423FF632
:10574400C9AE524A1060524A136032684F4F5A44ED
:1057540039682068013A05F0B0F900283860FFF68E
:10576400B9AE206805F0E0FBBBFBF0F303FB00F8E7
:105774003368ABEB08095B44DFF814B12068DBF84D
:1057840000204746934238BF4FF0000905F0CCFB98
:10579400012806D9206805F0C7FB01381AEA000F72
:1057A4004CD1434652463168206805F08EFB0028F0
:1057B4007FF490AE2FE03268934201D000238AE652
:1057C400334A5B4412689342BFD983E6B8452068E4
:1057D40028BFB84605F0AFFB40220146284606F034
:1057E400E2FB42465146284606F0FFFB43462A4662
:1057F4003168206805F069FB034600287FF46BAE2E
:105804003368C24443443360A7EB0807206805F0BB
:105814008BFBB842DAD9B9F1000F12D13368DBF847
:1058240000204B443B4493423360C7D1164B20685D
:105834001A68114605F041F9C30F4CE64FF04008D1
:10584400E4E7206805F077FB08220146284606F0C5
:10585400AAFB4A460AEB0701284606F0C6FBD4F821
:1058640000803168404607EB010A05F05DFB2A46DB
:1058740003465146404605F028FB00287FF42AAE33
:10588400CCE7012327E600BF801000207C10002015
:10589400781000202DE9F047DFF83C810446D8F861
:1058A400083083420BD1EFF3058343B14B4B5A6865
:1058B40042F080525A605A6A22F400425A62A7891E
:1058C400EFF31186202383F31288BFF36F8F237CB9
:1058D400190705D586F31188BFF36F8FBDE8F087EC
:1058E400D90943F0080266D12274A36813B1204693
:1058F40006F0F3F904F1180001F090FFA56D04F12E
:105904005809A94511D04FF0000A75B1284606F090
:10591400E4F905F1180001F081FF2846C5F878A0E4
:1059240001F05AF9A56DA945EFD1D8F808309C4289
:105934004AD1EFF30582003A18BF0122D8F81810B3
:105944002748814200D009B9D8F80C10C8F81410BF
:105954004AB10122234B1A749A810022C3E9182206
:10596400DA66C8F808309C4230D1EFF305836BBB8C
:10597400A289D20711D586F31188BFF36F8F83F301
:105984001188BFF36F8F0423184602DFEFF31186EB
:10599400202383F31288BFF36F8F304601F004F99C
:1059A400FB079BD5002383F31188BFF36F8F042378
:1059B400184602DF92E703F07F0343F00803204612
:1059C400237406F082F990E70022B7E786F3118882
:1059D400BFF36F8FE4E700BF5C15002000ED00E02B
:1059E40074150020D00400200E460546114680B5EB
:1059F4001A4603F06BFB0446044B054F9B68C351E6
:105A04003046A847E059FFF745FF00BF5C1500206A
:105A14000800000030B53B4B04465B6800208BB0A7
:105A2400C3F3080380F31188BFF36F8F02F07F453F
:105A3400B5F17F4F08D102F00C05082D04D012F007
:105A4400080F0CBF204608460022033B8DF80720B0
:105A5400032B03D8DFE803F00A4C504900209DF8DB
:105A64000730002B4CD102A905F07DFE254BDA6AE4
:105A74009107F3D4DA6A002AF0DBDA6A5200EDD532
:105A84005A69816942F480725A61BFF34F8FBFF340
:105A94006F8F31F8022C596921F480715961BFF379
:105AA4004F8FBFF36F8F02F47F43B3F55F4F04D181
:105AB400D2B2022A01D10068D1E7124B9A6AD2B25B
:105AC4002AB101210DF10702FBF7BAFAC7E79A6A76
:105AD40012F47F4F05D001210DF10702FBF7EAFA1A
