:1000000080190020710E0000B14900005D0E000053
:100010005D0E00005D0E00005D0E0000000000009F
:10002000000000000000000000000000590F000068
:100030005D0E000000000000291100005D0E0000B0
:10004000A5110000A5110000A5110000A5110000D8
:10005000A5110000A5110000A5110000A5110000C8
:10006000A5110000A5110000A5110000A5110000B8
:10007000A5110000A5110000A5110000A5110000A8
:10008000A5110000A5110000A5110000A511000098
:10009000A5110000A5110000A5110000A511000088
:1000A000A5110000A5110000A5110000A511000078
:1000B000A5110000A5110000A5110000A511000068
:1000C000A5110000A5110000A5110000A511000058
:1000D000A5110000A5110000A5110000A511000048
:1000E000A5110000A5110000A5110000A511000038
:1000F000A5110000A5110000A5110000A511000028
:1001000053B94AB9002908BF00281CBF4FF0FF317E
:100110004FF0FF3000F00CB8ADF1080C6DE904CEE3
:1001200000F008F8DDF804E0DDE9022304B07047D0
:10013000704700BF2DE9F0478C468E46089E154655
:1001400004461946002B40F0D080724547D9B2FAD8
:1001500082F74FB1C7F120030EFA07FC20FA03F330
:10016000BD4043EA0C0CBC404FEA154EA8B2BCFBA4
:10017000FEF8230C0EFB18CC08FB00F943EA0C43F5
:10018000994528D9EB1808F1FF3204D2994502D9D4
:10019000A8F102022B44A3EB0903A4B2B3FBFEFCBB
:1001A0000EFB1C330CFB00F044EA0344A04214D9BC
:1001B0002C190CF1FF3304D2A04202D9ACF1020396
:1001C0002C44241A43EA02401EB1FC400023346050
:1001D0007360BDE8F0874246DDE76346F1E7002A39
:1001E00079D0B2FA82F3002B3FD01946C1F1200337
:1001F00002FA01F52EFA03F20EFA01FE20FA03F3D9
:1002000043EA0E034FEA154E00FA01F4B2FBFEFC7E
:10021000AFB20EFB1C201A0C0CFB07F842EA00429E
:1002200090455AD9AA180CF1FF3004D2904502D952
:10023000ACF102002A44A2EB08029BB2B2FBFEFC26
:100240000EFB1C220CFB07F743EA02439F4246D9F0
:10025000EB180CF1FF3204D29F4202D9ACF102023A
:100260002B44DB1B42EA004202E0AEEB0203012218
:100270004FEA154EAFB2B3FBFEFC200C0EFB1C3355
:100280000CFB07F840EA034398452AD9EB180CF118
:10029000FF3004D2984502D9ACF102002B44A3EB05
:1002A0000803A4B2B3FBFEFC0EFB1C330CFB07F7E8
:1002B00044EA0344A74216D92C190CF1FF3304D2A7
:1002C000A74202D9ACF102032C44E41B43EA0040EC
:1002D0000F46114678E71F2188E76046ABE7624684
:1002E000BFE76046DBE76346EFE7734506D916B91B
:1002F000002108466DE7C6E9000EF9E7B3FA83F777
:1003000087B9734501D3824207D8841A6EEB030381
:1003100001209C461EB900215BE73846FAE7C6E992
:10032000004CF8E7C7F1200CBB4022FA0CF51D4346
:1003300020FA0CF12EFA0CF30EFA07FE41EA0E0138
:100340004FEA154900FA07F4B3FBF9F81FFA85FEE6
:1003500009FB18300B0C08FB0EFA43EA00439A45E0
:1003600002FA07F240D9EB1808F1FF3004D29A459F
:1003700002D9A8F102002B44A3EB0A0389B2B3FB14
:10038000F9F809FB183308FB0EFE41EA03418E45DC
:100390002CD9691808F1FF3304D28E4502D9A8F18F
:1003A0000203294443EA0040A0FB0298A1EB0E019E
:1003B0004145CE46434602D306D14C4504D2B9EB63
:1003C000020E68EB05030138002EA4D0B4EB0E0238
:1003D00061EB030101FA0CFC22FA07F34CEA030378
:1003E000F940C6E9003196E74046C5E74346D9E7FC
:1003F00010B40A78022A03D0052A15D010BC704721
:10040000CB68012BFAD1D1E90123D35C312B03D185
:10041000094810BC04F073B9322B01D10748F8E742
:10042000332BEBD10648F4E783680649DC680A22DF
:10043000A446642310BC6047C8620000C06200008C
:10044000B8620000840B002038B5224C224804F02A
:10045000CDF9206805F035FB20B9204804F0C6F935
:10046000012038BD1E4805F02CFB08B91D48F5E7F2
:100470001D4804F02AF90028F2DB1C4804F025F995
:100480000028EDDB1A4804F020F90028E8DB20689A
:1004900083681B68002BE3D0164900229847002888
:1004A000DED12068836814495D686D224FF0FF3308
:1004B000A8470028D4D1206883681049DC680A2244
:1004C0006423A0470028CBD100214FF4004005F061
:1004D0002AFCF9E70000002060640000806400004E
:1004E0004860000097640000C8620000C06200001D
:1004F000B8620000F10300006C010020840B0020B2
:10050000014B1B68184700BF04000020014B186016
:10051000704700BF0400002030B5044685B00D468A
:1005200010220021684605F0BDFC02238DF8023040
:100530002A46044B01932146684603F081FE05B02C
:1005400030BD00BF0105000080B505460E461746C8
:10055000984603F067F9034600F036FEDFF818907E
:10056000044649F80030424630463946A84754F818
:10057000090000F0C3FD00BF080000002DE9F047AE
:10058000058B0446280717460CD501290CBF45F0FA
:10059000100545F02005258387F31188BFF36F8F81
:1005A000BDE8F087022905F0070540F09480204659
:1005B00004F029F9052864D801A353F820F000BFFE
:1005C00099050000D70600008306000045060000DC
:1005D0005F0600007106000001F007035A1F012AA0
:1005E0001FD8002221F00701062BD4F8008089B221
:1005F000C4E9002209D1434603E0628B01326283E1
:100600001B68002BF9D141F002012183204604F040
:10061000FAF84FF0000900286DD041F02001218345
:1006200069E0042B0AD121F0070189B22183204619
:1006300004F0E9F810B141F0200121834FF00008E7
:10064000C14658E02369D3F80090238B23F00703B9
:1006500043F0060323834FF0000846464BE023692E
:10066000D3F80490238B23F0070343F00403F1E74E
:100670002369D3F80890238B23F0070343F0050385
:10068000E8E74FF00008C146E7E7012243F008031E
:10069000238387F31188BFF36F8F002A3BD1B8F112
:1006A000000F4AD1B9F1000F02D02D492046C847AA
:1006B000EFF31187202383F31288BFF36F8F238B0F
:1006C00023F008039BB22383D9063FD523F0100201
:1006D000228303F007056669218B002EBFF67CAFED
:1006E0000023D4F8008021F00701C4E9003341F071
:1006F000010121839946238B03F0070AAA4502D002
:10070000A268002AC1D1B8F1000F02D1B9F1000FDF
:10071000DAD00022BAE7A1680029C0D00D6800290C
:10072000BDD04F68334652462046B8471DB12B68AE
:1007300029461D46F3E72B46FAE741463346524623
:100740002046D8F8008004F08AF8A8E79A067FF5DA
:1007500023AF23F02002228303F0070527E700BF21
:100760008B480000014B036000207047D0620000FE
:1007700008B5044804F03AF8034804F037F80020BC
:1007800008BD00BFB1640000E6640000014803F04A
:10079000F7BB00BFD062000038B5044618B90F4B54
:1007A0000F485B6898476168B1F5683F10D0B1F5B4
:1007B000680F0DD00B4DA9420AD011F46861206872
:1007C00007D00146084805F0C1F9002323606560A1
:1007D00038BD142205F066FBF9E700BFEC000020ED
:1007E000136500002C5F5CA9480A002008B520B3FF
:1007F0004368B3F5683F10D101220368BFF35B8FF4
:1008000053E8001F002903D143E800200028F7D156
:10081000BFF35B8F0DD1002008BD094A93420AD077
:1008200000684FF0FF324FF0FF3302F02DFC00283C
:10083000F1D00448F0E70448EEE76FF4E040EBE75E
:100840002C5F5CA9E98FFFFFEA8FFFFF08B5D8B1E5
:100850004368B3F5683F10D100220368BFF35B8F94
:1008600053E8001F012903D143E800200028F7D1F5
:10087000BFF35B8F0BD1002008BD074A934208D01D
:10088000006802F073FCF6E76FF4E040F4E7034819
:10089000F2E70348F0E700BF2C5F5CA9E98FFFFF98
:1008A000EA8FFFFF10B5044618B91D4B1D485B6861
:1008B00098476368B3F5683F2FD0B3F5680F2CD025
:1008C000194A934219D1236803BB18484FF0FF32ED
:1008D0004FF0FF33214602F0A9FB08B923681BB98A
:1008E0000F4B13485B68984720681422002105F0DD
:1008F000D9FA4FF46863636008E0B3F5680F0DD868
:100900003A2B03D040F6BA629342DED1206805F05C
:1009100068F9636843F03A03636010BD054AF3E782
:10092000EC000020136500002C5F5CA9480A002041
:10093000396500003A00003A08B5064906484023E8
:10094000142205F0F6F8BDE808400449044803F015
:1009500089BB00BF48050020480A0020D86200007B
:10096000EC62000008B50348034A0021121A04F0A3
:1009700017F808BD38020020A00B00200748084ADD
:10098000084908B5121A04F00DF80748074A084943
:10099000BDE80840121A04F005B800BF00000020AE
:1009A00034020020F0690000000000200000002058
:1009B000F069000038B505460C4699B1D1E901232C
:1009C0000F48096803F012FFD4E90423E1680D48D9
:1009D00003F00CFFE1690C4803F008FFA1690B4824
:1009E00003F004FF012D05D1EFF30581084810390C
:1009F00003F0FCFE21462846BDE8384002F0D0B99D
:100A00006665000096650000C6650000D6650000BA
:100A10000566000030BFFFF7FDBF00BF2DE9F041C4
:100A20000B4EDFF8308006EB0807CC1B054632463C
:100A30000949204605F00FFAA01942460021083C5A
:100A400005F030FAC5F8A44007F10800BDE8F081D0
:100A50000000000004000000A86200002DE9F84337
:100A6000324D804632488946174603F0BFFEAB6AD6
:100A7000DE0622D52F4803F0B9FE1124AB6A1D070C
:100A800003D52D4803F0B2FE1224284DAB6A980717
:100A900015D52A4803F0AAFE6E6BAB6A190642D53B
:100AA0002748314603F0A2FEB9F1000F03D0AB6A2C
:100AB00023F08003AB62132403E01024DEE76FF021
:100AC00015061A4DAB6ADA0703D51E4803F08EFEF1
:100AD0001424AB6A9B0603D51B4803F087FE15243C
:100AE000124B9A6AD50602D49A6A90070AD55B68B7
:100AF000190507D54146304600F0B2FA10B180F32F
:100B000009880224094B9A6A920642BF5A6A22F463
:100B100000525A629A6A42F0FF029A6200233B70C6
:100B20002046BDE8F8836FF01506C4E700ED00E04D
:100B300019660000306600006466000078660000F8
:100B400091660000A8660000C866000010B51D4C44
:100B50001D4803F04BFEA36A990130D51B4803F0F2
:100B600045FE1E20A36ADA0103D5194803F03EFEB4
:100B70001F20144CA36A1B0303D5164803F036FE4E
:100B80002120A36A590303D5134803F02FFE222026
:100B90000C4CA36A9A0303D5104803F027FE2320C8
:100BA000A36ADB0303D50E4803F020FE2420054A88
:100BB000936A6FEA03436FEA1343936210BD1D20EB
:100BC000D0E700BF00ED00E0F8660000116700000C
:100BD00025670000406700005F6700008567000030
:100BE000A067000070B5244C064624480D4603F06B
:100BF000FDFDA36AD90435D5214803F0F7FD172080
:100C0000A36A1A0503D51F4803F0F0FD18201A4CFB
:100C1000A36A9B050FD51C4803F0E8FDA16BA36AEE
:100C2000180407D5194803F0E1FD1EB1A36A23F4A7
:100C30000043A3621920104CA36A590503D5144838
:100C400003F0D4FD1A20A36ADA050DD5114803F08C
:100C5000CDFD1B20084A936A43F47F43936200232F
:100C60002B7070BD1620CBE7A36A9B04F2D50A480F
:100C700003F0BCFD1C20EDE700ED00E0CC670000B8
:100C8000E367000064660000F56700000F6800007D
:100C90002568000041680000C86600002DE9F041A9
:100CA0005D4B5F688AB00446C7F30806002585F3EC
:100CB0001188BFF36F8F02F07F43B3F17F4F06D1EE
:100CC00002F00C03082B13D1544803F08FFD0025CC
:100CD0002C464FF00008F31E8DF80780092B00F218
:100CE0008C80DFE803F00A80847C8A8A8A8A8A887A
:100CF00010074CBF0C460125EBE74948464E03F070
:100D000075FD8DF80780F36A9A0704D5454803F00E
:100D10006DFD00232AE0F36A002B01DA4248F6E772
:100D2000F36A5B00F5D5414803F060FD7369A26981
:100D300043F480737361BFF34F8FBFF36F8F32F84B
:100D4000023C726922F480727261BFF34F8FBFF36D
:100D50006F8F03F47F42B2F55F4F27D1DBB2022BD6
:100D600024D12168324803F041FD23689DF8072013
:100D7000CAB902AE04F1200720686168324603C296
:100D80000834BC421646F7D1099A002D41D0C2F36F
:100D9000080121B96FEA52226FEA4222099202A9A0
:100DA0001846FFF707FE0AB0BDE8F0811A4B9A6AB1
:100DB000D2B232B10DF1070201212046FFF74EFEFB
:100DC0000FE09A6A12F47F4F05D00DF10701012060
:100DD000FFF708FF05E09B6AB3F5803F99D3FFF763
:100DE000B5FE0346C2E70DF107020021E5E70DF16C
:100DF00007010020ECE70F4889E70F4B0F49104827
:100E000017F4F87FA6F1100208BF194603F0EEFCB4
:100E10007FE76FF30802C1E700ED00E0886800009B
:100E2000B4680000CC680000EE680000FD680000B7
:100E30001D6900003A6900005A6800006F680000F0
:100E40005F690000044B5A6942F010025A615A6906
:100E500022F008025A61704700ED00E0EFF30880CD
:100E6000EFF3098101B57246FFF718FF01BD00BF1E
:100E7000002080F31488BFF36F8F114880F3088837
:100E800000201049087001F0DFFB00200E490860C7
:100E9000BFF34F8F00F02EF8202080F311880B480D
:100EA0004FF40461401880F30988EFF314800221A5
:100EB000084380F31488BFF36F8F00F0A1F800009F
:100EC000801900209E0B002094ED00E0C00B002054
:100ED0000749D1F890200023C2F307221846934215
:100EE00000DB7047C1F89830C1F8A0000133F6E785
:100EF00000ED00E008B572B6002383F31388FFF716
:100F0000E7FF144B4FF0FF32C3F88020C3F8842072
:100F1000C3F88820C3F88C20C3F89020C3F894202D
:100F2000C3F89820C3F89C20C3F88021C3F884211B
:100F3000C3F88821C3F88C21C3F89021C3F8942109
:100F4000C3F89821C3F89C2162B6BFF34F8FBFF35B
:100F50006F8F08BD00E100E01EF0040F0CBFEFF33F
:100F60000880EFF30980816911F8021C0229FFD083
:100F700001B5724603F018FD01BD00BF40B2002864
:100F800007DB044A4109012300F01F00834042F8B7
:100F90002130704700E100E0054B420900F01F00DE
:100FA00053F82220012303FA00F01040704700BFDD
:100FB00000E100E040B20028A8BF00F1604001F16C
:100FC0000101B8BF064B4FEA4111ACBF00F56140CB
:100FD00000F00F00C9B2B4BF195480F80013704775
:100FE00014ED00E0044B054A23F07F039360BFF348
:100FF0004F8FBFF36F8F70470000000000ED00E0DF
:1010000008B5FFF7EFFF074AD2F8883023F47003E2
:10101000C2F88830FFF7A6FCFFF7B0FC00F0B6F886
:1010200001F08AFF00ED00E042F8203C009B42F80E
:101030001C3C0A49019B42F8183C029B42F8143CB4
:1010400021F001014FF0807342F8043C42F8081C83
:101050000023203A0265C0F8A83070474905000017
:101060000A4A0346906878B113F1160FD0F894003D
:1010700005D0A0F14002934205D3834203D28142BE
:1010800028BF002070470020704700BF340B0020AD
:1010900008B515460C4A0D4B9060D0F8A4201A6094
:1010A0000E4600F0A3F82C4686F309880020044B76
:1010B00098472046002100220023024C20470000D0
:1010C000CD49000049050000340B0020640A0020CF
:1010D000014B10221A61704700ED00E0054B5A6980
:1010E0009B689A421FBF044A536843F08053536081
:1010F000704700BF340B002000ED00E0084B9B68F8
:1011000083420BD1EFF3058343B1064B5A6842F09B
:1011100080525A605A6A22F400425A6202F088BB36
:10112000340B002000ED00E015498A684FF03000D4
:101130001044EFF3098C80E8F01F202080F3128820
:10114000BFF36F8F0F4F4FF000664A698A603E60B1
:10115000D2F8A4000C4C2060D2F8A8000023C2F8FA
:10116000A83080F3118804B5104600F03FF8BDE8C0
:10117000044002F1300090E8F01F8CF309887047BA
:10118000340B002004ED00E0640A00200448002332
:101190002021C2180133302B82F80013F9D1704797
:1011A00000E100E008B5EFF30583064A103B02EBCF
:1011B000C30152F8330049688847BDE80840FFF78B
:1011C0008DBF00BF806000000148006870470000CC
:1011D000640A0020024B034A0348012100F078B85A
:1011E0000000042000000020FC620000D0F89430D1
:1011F000054A403B1360054B4021C2E901131046EC
:10120000012100F06FB800BF680A002000000B1534
:10121000084AC2F898000B6823F01F03034343F009
:101220001003C2F89C308B6843F00103C2F8A03071
:10123000704700BF00ED00E02DE9F043DFF860806B
:1012400085B00E461F4604464FF00009B14523DA2B
:101250006068D8B13FB1411E08421BD11F2819D97F
:101260002368194216D12368019303F0D2FBA368C7
:1012700003430393D8F89050C5F30725D0B2013D3E
:10128000A84207D801A9FFF7C3FF421C09F10109D1
:101290000C34DBE76FF01502104605B0BDE8F083B3
:1012A00000ED00E0044B0522C3F89420BFF34F8FFC
:1012B000BFF36F8F704700BF00ED00E0BFF35F8F9B
:1012C000024B0022C3F89420704700BF00ED00E0FD
:1012D00010B5034C01232278FFF7AEFF207010BD3C
:1012E0008E0B002008B50B4A00231278FFF7A4FFED
:1012F00010F1160F07D0084A0021D2F89030C3F33E
:101300000723984200DB08BDC2F89800C2F8A0107D
:101310000130F2E78E0B002000ED00E02DE9F043F4
:101320005A4B5B4DD3F890302C68C3F307239C4293
:1013300085B000F2A780FFF7C1FF00200C26844291
:101340001AD1544EDFF8449134706846FFF70AFA18
:10135000514C524D80460027B84514D133784B4943
:101360000020D1F89020C2F307229342C0F284807B
:10137000FFF798FF002045E0696806FB0011FFF7C2
:1013800047FF0130DBE7009800EB07114FEA071C2D
:10139000CB682340B3F5000F4DD00AD8B3F5001F3A
:1013A00033D0B3F5800F3BD0B3F5801F13D0013796
:1013B000D2E7B3F1007F47D0B3F1805F4DD0B3F1F6
:1013C000807FF4D150F80C3088684A6803F021FB24
:1013D00040F0887009E050F80C3088684A6803F0E3
:1013E00018FB40F0885040F43020CDE901230390F1
:1013F000D9F890303078C3F30723013B984234D9B1
:101400006FF0150005B0BDE8F08350F80C30886827
:101410004A6803F0FEFA40F0885040F40020E4E708
:1014200050F80C3088684A6803F0F3FA40F0C06066
:1014300040F40030D9E750F80C3088684A6803F06F
:10144000E8FA40F08270D0E750F80C3088684A68BB
:1014500003F0DFFA40F48020C7E750F80C308868CA
:101460004A6803F0D6FA2843BFE701A9FFF7D0FE88
:101470003378013333709AE7C1F89830C1F8A0008F
:1014800001336EE74FF0FF30BCE700BF00ED00E036
:10149000086300008E0B00200000F0FF0000021126
:1014A00008B5024B1B689847002008BD740A00204D
:1014B000034B044A1860937843F00203937070471B
:1014C000740A00202800002008B50649064821F0CB
:1014D0000701C1F1005202F5802203F044F9002017
:1014E00008BD00BFC7190020780A00200C4B01225C
:1014F000C3F840254FF080434FF08051C3F8782562
:10150000D1F83001082805D1D1F83411022908BFDB
:10151000C3F838260122C3F880250020704700BF99
:1015200000E0014048B1054B054A1B68B3FBF2F3EC
:101530005843044B43F0010318477047D80000207C
:1015400040420F00B062000008B5054A054B136029
:1015500010463F23536001F04DF9002008BD00BF45
:10156000840A0020FFFF0F00084B70B5C31A0D4618
:1015700007499B10044659430648402203F067FA86
:101580002B4601462046BDE870401847A00A0020BF
:10159000B76DDBB61060000073B50C4C0C4A4023ED
:1015A000041B00930D460B460A49A41061430646EE
:1015B000094803F077FA014628B130462B4602B0BD
:1015C000BDE87040184702B070BD00BFA00A0020FF
:1015D000134B0000B76DDBB6106000000022F8B5B9
:1015E000012105461046FFF7E5FC104801F02AF9F5
:1015F0000446B8B901F046F92F690D49384603F0A1
:1016000051F9031E09DB01263E642D69084905F1E5
:101610001C0003F047F9031E02DA1C462046F8BD01
:10162000EE64FBE76FF00404F8E700BF5D1700000D
:10163000286300001FB500220123CDE902236C4678
:10164000074A6B46CDE9004403F05CFA28B94FF431
:1016500080420023684601F00DFE04B010BD00BFBB
:10166000254B000010B5EFF31184202383F312887B
:10167000BFF36F8F074A136823F00201DB07116085
:1016800002D4012003F007FF84F31188BFF36F8FAA
:1016900010BD00BFF00A002030B4104B0C2202FB3A
:1016A000003301460020D3E90E529863EFF3118016
:1016B000202484F31288BFF36F8F1C6C04F0C004E5
:1016C00044F002041C6480F31188BFF36F8F1DB1D6
:1016D0002B46034830BC184730BC7047A00A002096
:1016E0001060000010B4EFF31180202282F3128802
:1016F000BFF36F8F17490B6843F0020413F0010327
:101700000C601AD04FF08043D3F80C14D3F80C348B
:1017100013F0010311D0EFF3118182F31288BFF3AC
:101720006F8F0D4A136C03F0C00343F00203136480
:1017300081F31188BFF36F8F012380F31188BFF30A
:101740006F8F1BB110BC0020FFF7A6BF10BC01209B
:1017500003F099BEF00A0020A00A002010B1012871
:1017600004D07047034B1B6C5B0701D1FFF794BF9C
:10177000704700BFA00A00202DE9F0413849BFF3AF
:101780005B8F8046012251E8003F41E8002000289D
:10179000F9D1BFF35B8F33B9324933484B60CB602B
:1017A0008A6003F092F808F1FF33012B4BD8B8F1AF
:1017B000010F07D14FF08043D3F81C3403F003032B
:1017C000012B40D004F014FA054658B1EFF311860E
:1017D000202383F31288BFF36F8F0125234F4FF02F
:1017E00080441EE0224B1B78002BEFD04FF080434B
:1017F0000222C3F808230646F0E735B3304603F06B
:10180000F9F8D4F8183563B9D4F804214AB1C4F80A
:101810000431D4F804310123C4F81835C7F88031F5
:10182000A360D4F81824D4F81834D203E5D503F013
:101830000303012B02D0B8F1010FDED155B186F3BD
:101840001188BFF36F8FBDE8F0810021212004F0E3
:101850006AFAD6E74FF080430222C3F80423F2E786
:101860009C0A00208C0A0020BC0A002000E100E055
:101870009E0B002008B5074804F023F938B106484C
:10188000FFF716FE0448FEF741FE002008BD6FF08A
:101890001200FBE7646000009D1800000A2838B5BC
:1018A000074D044604D1AB680D21DB6928469847F3
:1018B000AB680348DB69E1B29847204638BD00BFFA
:1018C000646000002DE9F043476840F20636D00618
:1018D0003B7C87B002EA060654BFC2F3401C4FF0BF
:1018E000030C01F01F05B6F5837F144645EA431546
:1018F0008DF803C044D00DD8062E16D005D8A6B159
:10190000022E3FD06FF0150037E0B6F5807FF9D199
:1019100001260AE040F20222964235D0B6F5407F19
:1019200034D0B6F5007FEDD10226220330D57A6897
:1019300001238B40C2F80835B868A0BB05F01F032F
:101940006D092DD0012D77D13E4A02EB8302C4F3FD
:101950000043D2F8001783F00103C4F3404444EA83
:10196000430421F4E16144EA8C0421F0070144EAD4
:1019700006230B43C2F80037002007B0BDE8F08310
:101980000726D2E70426D0E70526CEE70326CCE7D4
:10199000630341BF01237A688B40C2F80C35CBE763
:1019A0004FF0A042D1E70DF10202294603F0E3FF18
:1019B00014F4403F80460CD1B868294604F010F872
:1019C000B8F1000FD8D19DF80210B86801F0F0F816
:1019D000D2E74FF0000901ABCDE90199CDE9043917
:1019E000CDF80C90B86803AA294603F099FE484543
:1019F000C2DB14F4003314D0C4F300449DF8033068
:101A00008DF80E3084F001048DF80C608DF80D40D7
:101A1000B8684B4603AA294603F035FF0028CFDA01
:101A2000AAE7CDE904330DF103030393B86803AAD1
:101A3000294603F075FEF1E703F5E07350F8233013
:101A4000FFDE00BF00030050420970B5034602D01C
:101A5000012A17D070BD0D4E326951680029F9D0A6
:101A600003F01F0301250C689D400029F2D08A680D
:101A70002A4002D04B68304698472CB12368214653
:101A80001C46F2E7024EE7E72346F8E7486000000D
:101A90002C60000038B54568A86890B103F09AFF43
:101AA000014670B9A86803F079FF044658B90246A8
:101AB0000649A86803F05CFF224605210620FFF7CF
:101AC00079FA002038BD6FF00400FBE7491A0000E6
:101AD000F0B544681646A068227C01F01F0587B067
:101AE00045EA421500286DD0B6F5001F04D12946FD
:101AF00003F0C9FF002056E06268607CC2F824054C
:101B000001AA0020B6F5800F0190506037D1B3F1E3
:101B1000007F14BF052304238DF804300023CDE992
:101B200004230393E36823FA01F111F001010DF19D
:101B300003073AD1B6F1A07F37D105F01F036A0938
:101B400003F5E07326D0012A3FD1214A52F8233011
:101B5000DB072AD4A0683A46294603F00CFF16306A
:101B60001BD00297A06803AA294603F0D9FD0028DC
:101B700019DBA0680122294603F034FFBAE7B3F16C
:101B8000C06F05D0B3F1007F14BF01230223C3E768
:101B90000323C1E74FF0A042D8E7A068394601F01F
:101BA0000DF80028DDDA07B0F0BDA0683A462946F6
:101BB00003F0E1FE0028D5D19DF80310A06800F0E5
:101BC000F7FFCFE76FF08500EDE751F82330FFDE38
:101BD00000030050036803F01F025B09026004D099
:101BE000012B034818BF002070474FF0A0407047FA
:101BF000000300502DE9F04F00EB8109654985B0E5
:101C00001546834640F2FF1AD94503D1002005B09E
:101C1000BDE8F08FDBF80020C2F3C72818F00808F1
:101C2000C2F3C320C2F3080440F0B1805A4B5445BC
:101C300008BF4FF0FF34B2F10C5F1E5C4FEA126038
:101C400015D2222815D8DFE800F017272B382E34BC
:101C500038141414143E48141414141414141414C2
:101C60004B86898C1414148F9396999C9F004E2850
:101C700026D06FF08500CAE7C5F80C45621C67D016
:101C800003A80394FFF7A6FF039A012707FA02F2BD
:101C9000C0F80825384639E0C5F81445002718E093
:101CA000C5F80845EAE7C5F808450027601C22D1B9
:101CB0004EE0C5F80C450127F8E7C5F81045EDE7FB
:101CC000C5F81445DAE7C5F80845002EE6D1002727
:101CD0000626631C3CD0002018E0C5F80C45F4E74C
:101CE000C5F86045BBF80220671C02F001022FD046
:101CF000002AC5D1012703A80394FFF76BFF039ABD
:101D00008446012000FA02F2CCF80C25DBF8002012
:101D1000019202F4004CBCF1000F08BF804603A8FA
:101D200018BF01270394FFF755FF039C019A00EBAE
:101D30008400C2F3412CD0F80047320242EA8C0200
:101D400042EA08020C40224342EA4702C0F8002758
:101D50000BF1040B58E7C5F86445C3E7C5F86845BF
:101D6000C0E7C5F86C45BDE7C5F824450127B0E7D5
:101D7000C5F8284582E7C5F83045F7E7C5F834458A
:101D8000F4E7C5F83845F1E7C5F83C4576E76FF06C
:101D900015003CE7F0F8FCFFD469000070B503695A
:101DA00045681E6886B004461422002101A804F08C
:101DB00079F805238DF80430002386F863306368D2
:101DC0000D4A1B68C3F808236B689B070ED5EFF319
:101DD0001185202383F31288BFF36F8F02212046E1
:101DE00002F0FFFF85F31188BFF36F8F01A9204632
:101DF00002F011FF06B070BD14020A00F8B500220F
:101E0000054601210220FFF7D5F80220FFF7B6F8BA
:101E10006C680121E06802F0D5FF6B681A682369DD
:101E2000C2F82435617D237D0B43A17D0B43C2F8AD
:101E30006C352C69206878B129490022083003F0FC
:101E4000FDFF2368DD63206826490022683003F027
:101E5000F5FF2368C3F89C506E68D6E9004313F081
:101E600001030ED02F6904F10C0107F10C0204F5F7
:101E7000907003F0F4FA002831DB387B00F0CEFCE0
:101E800001230822C4F80025326AC4F84425012140
:101E90000022C4F84825A1606BB9D4F82031002B8A
:101EA000FBD0C4F82021D4F820310123E3604FF4A3
:101EB0008073C4F80433D4F85831002BFBD00023CE
:101EC000C4F800356B68596811F0020106D11C682E
:101ED000D86802F077FF0823C4F800350020F8BD69
:101EE000D14F0000494D00002DE9F84304464568F4
:101EF0000F4603F07DFEC8B92F4B1B7883F001031A
:101F00006268D2F800809BB94FF0200964266068AF
:101F100002F048FF00283ED1012003F063FA013EA1
:101F2000F5D10021212003F0FEFEEFE70123E7E7D2
:101F300021694FF02009EFF3118689F31288BFF36E
:101F40006F8F606802F02EFF00B30B6853B1D3F8B7
:101F5000A4203AB1D3F8B420002A03DAD8F84C25EB
:101F6000C3F8B4202B6A1F70296A0122204602F0B0
:101F70005EFF6B689B0744BF4FF48003C8F80433CF
:101F800086F31188BFF36F8FBDE8F88386F311885D
:101F9000BFF36F8FCFE7EFF311810E4689F31288FD
:101FA000BFF36F8F606802F0FDFE0028DAD181F385
:101FB0001188BFF36F8FB4E79E0B00202DE9F04F1F
:101FC0009846D0F804900369D9F800501C6885B091
:101FD0008346029399F808300F461646002B40F0CE
:101FE000A08094F86330002B40F09E8094F8643019
:101FF00003F0FF01002B40F09780B8F1FF3F68D05D
:10200000B8F1040F65DDDFF828C14A4A4FF4004EED
:10201000052098FBF0F0E0FB0EC100236046FEF7C0
:102020006FF84FF0000AC4E91601C4E91076C4E95C
:1020300012AAC4F850A0D9F80420920765D5EFF38E
:1020400011822021039281F31288BFF36F8F022146
:10205000584602F0DBFE039A82F31188BFF36F8FBC
:10206000D9F80420930750D594F86120002A4CD069
:10207000B24228BF324693463846D9F81C1003F0C6
:10208000EAFEB6EB0B065F4430D194F86120A2EB78
:102090000B02D2B284F86120D9F81C0000EB0B01CE
:1020A00003F0E7FE029BBFF35B8F03F1080A5AE8D7
:1020B000003F43F004034AE80032002AF7D1BFF39F
:1020C0005B8F45F30735002D06DA002005B0BDE82B
:1020D000F08F00200146A4E76B09174905F01F05A2
:1020E00001224033AA4041F82320EEE7B8F1FF3F38
:1020F0000BD0C5F808A1D5F80831D4E91623CDE9ED
:10210000002304F1080001F08BFE0C4BC5F8347578
:10211000C5F83865C5F80433012384F863302B60B3
:10212000D3E76FF08500D1E76FF00F00CEE700BF77
:102130003F420F0040420F0000E100E010020A00A1
:10214000F7B5064605691C46EFF31187202383F394
:102150001288BFF36F8F2B68D3F8A4C0BCF1000FB7
:1021600007D087F31188BFF36F8F6FF00F0003B0B4
:10217000F0BDC3F8A4202B6801F0604EC3F8A01096
:10218000BEF1005F2B6814D1C3F8A8102B68C3F808
:10219000AC202946304602F063FE87F31188BFF376
:1021A0006F8F73681B7D012B01D1631C06D100204A
:1021B000DDE7C3F8B0C002F0CAFDEAE70B480C4AFD
:1021C0002D6824EAE4744FF4004600210023E4FB68
:1021D0000601FDF795FF683502460B4600200021F9
:1021E000CDE90001284601F01BFEE0E73F420F0069
:1021F00040420F0070B5012383400F4ABFF35B8F4D
:10220000DC4352E8001F01EA040542E80056002EB4
:10221000F7D1BFF35B8F4FF4803282400748C0F89C
:102220000823BFF35F8FBFF36F8F03EA010000380D
:1022300018BF012070BD00BF100B0020001001402E
:1022400070B41249D1E90034D01AC31844F1000423
:1022500022F07F46C1E90034A6F50013B3F5400F24
:1022600009D20B4B1B681A0A1B069C19094B42F139
:102270000005C3E90045EFF31181202383F31288A1
:10228000BFF36F8F70BC01F0D1BC00BF080300200A
:10229000140B00201003002011B3BFF35B8F012348
:1022A000104A834052E800CF4CEA030C42E800C1D8
:1022B0000029F7D1BFF35B8F0B4A4FF48033834083
:1022C000C2F80433094BBFF35B8F1B68BFF35B8F0E
:1022D000C340DB0742BF064B4FF40032C3F8002176
:1022E000704700BF100B0020001001400C0B0020B5
:1022F00000E100E00D4B1868010A0006BFF35F8F94
:102300000B4BD3F80435181841F10001B3F5801FC9
:102310000AD2084BD3E90023904271EB030303D2A6
:1023200010F1807041F10001704700BF140B0020D4
:1023300000100140100300202DE9F04F85B0164633
:102340001F469DF840A00446FFF754FF0190FFF799
:10235000D1FFB04271EB07035ED23E4B301A67EB00
:102360000101984271F1000109D36FF01505204673
:102370000199FFF791FF284605B0BDE8F08F364B75
:1023800003EB0413D3E902239F4208BF964254D0C3
:1023900032494FF4803804F1500508FA04F8AD00D2
:1023A000C1F848832046ADB202F0F5FF26F07F4B1E
:1023B00005F1804504F5A87305F58835DC464FF036
:1023C00003090293029A2CF07F4341F82230C1F8AE
:1023D0004483D1F80435224A6FF00200C01A6044E9
:1023E00020F07F40904228D9286868B1D1F80435A0
:1023F0000393A3EB0B0020F07F40B0F5000F1CD936
:10240000204602F0C8FF039BBAF1000FADD109EBE3
:10241000030C09F10109D5E7BAF1000FA5D1012399
:10242000104ABFF35B8FA34052E8000F184342E805
:1024300000010029F8D1BFF35B8F07490E982301F3
:1024400001EB0412C8500F9B5360C2E902670025DC
:102450008DE700BF01008000F8020020001001405D
:10246000FDFF7F000C0B00207FB51C4C1C4BC4F8FB
:102470000833C4F848331B4B00254FF0FF304FF0B2
:10248000FF31C4F80855C3E902014FF48033C4F8A2
:102490000433154B02264FF400320121C4F80463C3
:1024A0001120C3F880212A46FEF784FD1120FEF793
:1024B00065FD0E4A0123A360236013600C4B0D4A97
:1024C0000093CDE9015500232846FFF735FF30463C
:1024D000FFF752F9284604B070BD00BF001001405C
:1024E00003000F00F802002000E100E0100B0020C4
:1024F00041220000FFFF7F002DE9F7432E4CD4F866
:10250000043399070BD5D4F8043143B12B4A002387
:10251000C4F80431D4F80431136801331360D4F8DB
:102520000433DA0343D5BFF35B8F254B53E8002F09
:1025300022F0010143E800100028F7D1BFF35B8FC0
:10254000D30702D4D4F840318BB30025C4F84051EE
:10255000D4F84031FFF7CEFEEFF31182202383F34E
:102560001288BFF36F8F174BD3E90267B042B941AE
:1025700020D34FF0FF304FF0FF31C3E90201D3E920
:1025800000981D604FF48033C4F84833C4F84051BC
:10259000D4F8403182F31188BFF36F8FB9F1000F87
:1025A00005D0CDF8008032463B460020C84703B036
:1025B000BDE8F083A946EDE700100140140B0020B0
:1025C0000C0B0020F802002030B5431C124C85B0E3
:1025D00005D08442A8BF0446012CB8BF0124FFF7F0
:1025E00089FE0E4B0C4DD3E90013401AB0F5000FD5
:1025F00010D22218AA4228BF2A4652184FF00000D3
:1026000007490091CDE9010043F10003FFF794FE73
:1026100005B030BD2A46F0E7FFFF7F000803002029
:102620004122000008B5FFF765FE024B1B68C01A87
:1026300008BD00BF08030020024AD2F80034002B76
:10264000FBD0704700E0014010B54FF08053D3F845
:102650003021082A4ED14FF080420021C2F80C11DF
:10266000C2F81011C2F8381502F54042D3F804142C
:10267000C2F82015D3F80814C2F82415D3F80C14A6
:10268000C2F82815D3F81014C2F82C15D3F8141476
:10269000C2F83015D3F81814C2F83415D3F81C1446
:1026A000C2F84015D3F82014C2F84415D3F8241406
:1026B000C2F84815D3F82814C2F84C15D3F82C14D6
:1026C000C2F85015D3F83014C2F85415D3F83414A6
:1026D000C2F86015D3F83814C2F86415D3F83C1466
:1026E000C2F86815D3F84014C2F86C15D3F8443416
:1026F000C2F8703502F066FE18B1374B374AC3F89E
:102700008C2602F05FFE18B1354BFB22C3F818256A
:1027100002F058FE58B14FF080424FF08051D2F88D
:10272000E43ED1F8581261F30303C2F8E43E02F02C
:1027300049FE20B12B4B4FF40072C3F840264FF0F6
:102740008053D3F83031082B17D14FF08043D3F8A2
:102750000024D20744BF6FF00102C3F800244FF0F9
:102760008053D3F83431042B81BF4FF01023D3F8BA
:1027700008224FF08043C3F858254FF01023D3F8B8
:102780000022002A03DBD3F80432002B22DA164998
:1027900001234FF01020C1F804351224FFF74CFF3D
:1027A000C0F80042FFF748FFC0F80442FFF744FFBB
:1027B0000023C1F80435FFF73FFFBFF34F8F0B49EC
:1027C0000B4BCA6802F4E0621343CB60BFF34F8F38
:1027D00000BFFDE710BD00BF00500040488103006E
:1027E00000F000400090024000E0014000ED00E0F9
:1027F0000400FA05014B1860704700BF180B002059
:1028000010B5054B1868144602F0EEFD0028A4BF71
:102810002070002010BD00BF180B0020024A0123C9
:102820008340C2F80435704700F00140014B00209E
:102830001B6818471C0B0020014B1B68184700BF82
:102840001C0B002010B50C4C237993B90123237184
:102850000A4B2060002818BF184600F049F850B90C
:1028600023680748002BBDE8104008BF184600F059
:102870008FB86FF0770010BD1C0B00202D280000D2
:102880003928000008B5064B1B683BB10020FEF755
:1028900083FB18B9BDE80840FEF770BB08BD00BF58
:1028A0001C0B002038B54FF080440123C4F80833D6
:1028B00063600023C4F80031D4F8003142F210758F
:1028C000D4F80C24D4F80C34D20307D5DB0705D593
:1028D000012002F087FD013DF2D138BD02F0EAFD92
:1028E0000028FAD0014B00225A71F6E7240B002091
:1028F00010B508490C794CB9012308600B7102F03E
:10290000D9FD08B9002010BD4C71FBE76FF07700CE
:10291000F9E700BF240B00204FF080430022C3F8EA
:102920000021D3F80021094901221A60096811B178
:10293000C3F804237047D3F80021002AFBD00022FB
:10294000C3F80021D3F80031704700BF240B0020EA
:1029500010B54FF08043D3F80423D20715D5D3F830
:10296000002192B10022C3F800210121D3F80021F7
:10297000C3F8081302F09EFD044B10B15A7922B936
:102980005971BDE810401B68184710BD240B00208A
:10299000074A137943B90121106011714FF0804249
:1029A0001846C2F8183570476FF07700704700BFBF
:1029B0002C0B002010B54FF080431D4CD3F8181499
:1029C000D3F8182411F4803F1AD002F00302012A30
:1029D00001D092B900224FF08043C3F8182500229D
:1029E000C3F80421D3F8042101229A6022688AB92D
:1029F000D3F80421002AFBD014E002F06CFDE9E7D3
:102A0000D3F81424D107E5D5D3F81C249207F4D4C5
:102A100022681AB10222C3F8042310BDD3F804219E
:102A2000002AFBD00022C3F80421D3F80431F4E7D4
:102A30002C0B0020F8B54FF08043194FD3F8044316
:102A4000012504F01A04002604B9F8BDB4FA84F094
:102A5000C0F11F00830003F580739BB203F1804334
:102A600005FA00F2196892B224EA02040029EBD0B8
:102A70001E601B684FF08043022AC3F808230BD165
:102A8000D3F81814D3F81814890705D1C3F81855CA
:102A9000C3F804239D60D7E73B68C0B29847D3E7EB
:102AA0002C0B0020036803F01F025B09026004D0B6
:102AB000012B034818BF002070474FF0A04070471B
:102AC00000030050034A430900F01F00D35C184480
:102AD000C0B27047DC690000024611F0010030B559
:102AE00015D18B07C1F3400022D51249D1F820053A
:102AF00050604FF08052C1F82005D2F83021082AEA
:102B000008BFD1F82025003818BF012010E04FF091
:102B1000A0444FF08055D4F820351360C4F8203518
:102B2000D5F83051082D08BFD4F82045002BD8D057
:102B300030BD00BF00030050F7B504460846FFF75C
:102B4000C1FF04EB40060D46B38ADB072AD52046B9
:102B500002F0C4FD2946204602F030FD50B1204667
:102B600002F042FD276807EB80000023C0F8103513
:102B7000C0F810352946204602F05FFD0021B182E1
:102B800001A80195FFF78EFF019B00EB8300074B27
:102B9000D0F80027134043F00203C0F8003708467E
:102BA00003B0F0BD6FF01500FAE700BFF0F8FCFFCE
:102BB000014802F037BC00BFDC00002010B504481B
:102BC0000C4602F011FC0028A4BF2070002010BDAC
:102BD000DC0000202DE9F04F074689B057F8049B30
:102BE000D9F80413C9B28346082241F0004148468F
:102BF00002F04CFD051E2FDA0023032106A8CDE9C3
:102C00000633FFF769FF634B01930DF118084FF08E
:102C1000000A019A604912F8013B0192DA0803F0B8
:102C200007038A5C22FA03F3DB071CD40AF10103D1
:102C3000022B08F104084FF0010AEAD14FF00041DD
:102C40000022484602F022FD032106A8FFF744FFB8
:102C50000028D8D125F000450124002D40F08480C3
:102C600009B0BDE8F08F4D4B53440293D8F8006093
:102C7000002EDBD0029B96FAA6F61C78B6FA86F6F2
:102C800046EA44142046FFF71DFF0BEB4000F20814
:102C9000818A18F802000594C1F38203039300931C
:102CA00006F00706012303FA06F620EA060008F8F4
:102CB000020005A8FFF7F6FE059A039B02F5E072F5
:102CC00011F0100F50F82260C6F3014633D0009A7D
:102CD0003846214602F092FC05A80594FFF7E2FE73
:102CE000059B03F5E073F6B250F82330C3F30143BC
:102CF0009E4207D10021204602F051FC3146204679
:102D000002F04DFC05A80594FFF7CCFE059B0122BF
:102D100002FA03F3C0F820354FF08053D3F8303176
:102D2000082B01BFD0F82035D0F82035D0F8203559
:102D3000D0F820359AE7022E14BF02210321204645
:102D4000039302F02CFC039B032B03D0022E07D12C
:102D5000012BD7D1009A2146384602F04FFCD1E72B
:102D6000032ECFD1022BF4E795FAA5F3B3FA83F340
:102D700004FA03F225EA020503F5A2720BEB430302
:102D800059F82220B3F87C10C2F30142384602F011
:102D900035FC62E7EC690000BC630000EC690000F0
:102DA00038B5EFF31185202383F31288BFF36F8FBB
:102DB000064B9C6802F098FE85F31188BFF36F8F75
:102DC0002046BDE83840FEF799B900BF340B00201B
:102DD00038B50A4B53F82040013053F82050A54233
:102DE00000D838BD606830B1037EDB0701D402F043
:102DF00050FE0834F3E723689847FAE7C063000001
:102E000070B52A4B2A4C2B4D86B0012203201A7034
:102E1000FFF7DEFF03F01EF80420FFF7D9FF264678
:102E2000AE4204F130040FD300F038FC204CAC4229
:102E300026D300F047FCFDF707FB1F4A938923F0D8
:102E40000103938106B070BD54F80C3C059354F80F
:102E5000103C049354F8143C039354F8183C029328
:102E600054F81C3C019354F8203C009354E90A2385
:102E700054E90C0100F024FA54F8303C5E65CEE7CA
:102E8000D4E90A23B3F1FF3F08BFB2F1FF3F05D0F9
:102E900052EA0301206803D102F05EFF3034C6E736
:102EA0000649183000F032FEF8E700BF9E0B002004
:102EB0000062000000620000C8030020D55C000032
:102EC00070B5174E174D184986B0B02303FB006646
:102ED000164B059301220F23CDE903320023CDE9E0
:102EE0000133142303FB005504464FF4C07000FB6C
:102EF00004110F4B00954FF4A072304600F0E0F93A
:102F0000337C0C4AEE6023F0040333744FF4046303
:102F100004FB033313442C746B6006B070BD00BF18
:102F200018030020340B002000140020BB690000AF
:102F3000BD5B0000C00B00207FB50020FFF748FFFD
:102F4000284B83F30888284C636943F4007363615A
:102F50000025E02384F82230E57725766576A5768E
:102F600084F82050636A43F4E023636284F82350BA
:102F7000FDF768FFFEF7ACF84FF0FF33A362E362A2
:102F8000FEF7CCF9FEF726F91848194C00F00EFAB6
:102F90000120FFF71DFF0220FFF71AFF00F0BCFB26
:102FA000144B15495C61154B059301234FF4806266
:102FB000CDE90353CDE90155114B0095204600F0B2
:102FC0007FF9237C064623F004032046237402F095
:102FD0004DFE2846FFF774FF094A31462046FEF7AA
:102FE00057F800BF0014002000ED00E07804002036
:102FF000C8030020340B002080150020C0690000A9
:10300000012E000038B5074C074DAC4201D300201B
:1030100038BD204602F06BFD08B91C34F5E76FF0AF
:103020001500F5E7E4010020E401002073B50C462B
:10303000EFF31181202585F31288BFF36F8FC568E8
:103040005DB125602B68C360836901338361002013
:1030500081F31188BFF36F8F11E052EA030603D1A9
:1030600025606FF00B00F3E7CDE90023024608303E
:1030700000F086FA18B9034B9B685B69236002B0C5
:1030800070BD00BF340B00202DE9F3410446174604
:103090001E46EFF31188202383F31288BFF36F8F4E
:1030A000304BC2689B6872B18068984217D057EA6B
:1030B000060216D188F31188BFF36F8F6FF00F00EF
:1030C00002B0BDE8F08193F90E1021610132C4E92C
:1030D000023288F31188BFF36F8F0020F0E7216977
:1030E000F3E793F90E1090F90E30994230DA9942D5
:1030F000A8BF194602F06DFD0546CDE900761A48D5
:103100002246414600F03CFA0028E6D0EFF3118653
:10311000202383F31288BFF36F8FA068D0B1236898
:1031200021699C420AD04BB193F90E309942A8BF55
:1031300019466FF07F039942B8BF194602F049FD66
:1031400040B10948314602F0EBFD6FF00A00B7E7E5
:103150000025D2E7002DF4D186F31188BFF36F8FDD
:10316000F3E700BF340B00209F0B0020F8B5836805
:103170000546002B40D0234A926893423FD1C36852
:10318000012B03D9013BC3600020F8BDEFF3118789
:10319000202383F31288BFF36F8F0169806802F0E8
:1031A00018FD2C68A54207D10023C5E9023387F337
:1031B0001188BFF36F8FE7E7002CF5D0D4E9003218
:1031C00013605A60237C002623F002032374C4E9B1
:1031D0000066A66004F1180002F0F5FDAC6094F9F9
:1031E0000E302B612046C4F8AC6002F03FFD06486B
:1031F000394602F095FDC7E76FF01500C5E74FF0BF
:10320000FF30C2E7340B00209F0B002070B5EFF3B6
:103210001186202383F31288BFF36F8F0468A042C6
:103220001BD0D4B1D4E9003213605A60237C00254E
:1032300023F002032374C4E90055A56004F11800CB
:1032400002F0C1FD2046C4F8AC5002F00FFD31463B
:103250000748BDE8704002F063BDD0E902329A42EF
:1032600018BF0133836086F31188BFF36F8F70BD81
:103270009F0B002013B5EFF31181202484F31288F3
:10328000BFF36F8F846844B1013C846081F311887F
:10329000BFF36F8F002002B010BD52EA030406D1C5
:1032A00081F31188BFF36F8F6FF00F00F3E7CDE963
:1032B00000230246014800F063F9ECE79F0B002071
:1032C0002DE9F04F073285B022F0070204461E4672
:1032D0007F3200F15803C0E9163322F03F02129BFF
:1032E000A38100200D46119BDDF838A0139FA0603C
:1032F00004213F2AC4E906002174A373E07305F199
:103300004009A2F1400B05D880F31188BFF36F8FFD
:10331000084602DF05EB020841462046FDF77EFB2A
:103320000730109B20F00700C4E9259BC4F89C00DF
:1033300002930F9BA8EB000BCDE900A35A4633463E
:1033400029462046FDF770FE0F9BA3664FF000084C
:10335000109BC4F85480C4E9186AE366EFF3118245
:10336000202181F31288BFF36F8F0F4D296A2167E7
:103370002C6282F31188BFF36F8F8FB11F22394601
:1033800004F1740002F096FD84F89380AB680BB1F1
:10339000D3F8A030C4F8A030584605B0BDE8F08F8F
:1033A00084F87470F2E700BF340B0020012303742B
:1033B00083810023C0E92533C0F8A030014B986019
:1033C000704700BF340B00200A4A93686FF00A016F
:1033D000C3F8AC100849C3F8A8004B6843F0805309
:1033E0004B60002383F31188BFF36F8F9368D3F88A
:1033F000AC007047340B002000ED00E070B590F990
:103400001020037C002A2FDBD9062DD11A4C63F043
:103410007F032246037452F8183FE169934207D1B3
:10342000C0E900210860E0610FE09942F8D01B6814
:10343000002BF5D093F90E6090F90E50AE42F4DDFA
:103440005968C0E9003108605860A569954200D00C
:1034500005B9E568A3681A7CD20606D1DA897F2A05
:1034600003D9AA690AB9636170BDAB4202D028468C
:1034700000F0B0FA6561F7E7340B002038B590F939
:103480001020037C002A014604DA03F07F03037452
:1034900002F0B4FB0D4D2A46AB6852F8184F944227
:1034A00000D004B9EC688B4207D01A7CD20604D154
:1034B000DA897F2A01D9A2692AB1A34202D0204623
:1034C00000F088FA23466B6138BD00BF340B002042
:1034D000B3F1FF3F08BFB2F1FF3F03D002491830FC
:1034E00000F014BB704700BFD55C0000034648B92C
:1034F000EFF3058232B9064A51699268914201D0D0
:10350000FFF762BF83F31188BFF36F8F704700BF6F
:10351000340B002038B5184CA168E0690B68814273
:1035200014BF1A46002249680B605960A368E1691C
:103530002AB9124AC3E900210B60E3610AE092F95B
:103540000E5093F90E00854212DD5168C3E9002147
:103550000B605360A569094B9D4200D005B9E56831
:10356000A3689D4202D0284600F034FA656138BD58
:103570008A42DED01268DBE7340B00204C0B0020BF
:10358000F8B50E4B0C4611460D4A98681060DDE9FF
:103590000667EFF31182202282F31288BFF36F8F48
:1035A0009D68284602F03CFB284632463B46FFF722
:1035B0008FFF2046BDE8F840FFF706BF340B002020
:1035C000580B0020F8B50446EFF31187202383F34E
:1035D0001288BFF36F8F037C03F01F02002A0CBF19
:1035E0000126002649B235D103F07F03037402F0AF
:1035F00005FB294D037C817363F07F032A46037426
:1036000052F8183FE869934207D1C4E900200460EA
:10361000EC610DE09842F8D01B68002BF5D093F9CF
:103620000EC08C45F6DD5968C4E900310C605C6061
:10363000AC69944200D004B9EC68AB689C4202D0FB
:10364000204600F0C7F96C6187F31188BFF36F8FD4
:103650003046F8BD9B071CD5856802F0CFFA817310
:103660002B689D4209D16B68C4E900531C606C60F3
:10367000EAE76A689A42F6D01B68002BF3D093F908
:103680000E208A42F5DD5A68C4E9003214605C609D
:10369000DAE78173D8E700BF340B0020EFF3118124
:1036A000202383F31288BFF36F8F054B9A68D37B77
:1036B000013BD37381F31188BFF36F8F704700BF55
:1036C000340B002070B5EFF31186202383F31288AA
:1036D000BFF36F8F0F4DAB68DA7B0132DA732A4686
:1036E00052F8184F944200D004B9EC681A7CD20604
:1036F00004D1DA897F2A01D9A2692AB19C4202D079
:10370000204600F067F923466B613046BDE8704003
:10371000FFF7ECBE340B0020024B03F11802C3E9A3
:1037200006227047340B002070B5EFF3118620237A
:1037300083F31288BFF36F8F1A4CA168E0690B689E
:10374000814214BF1A46002249680B605960A36881
:10375000E1692AB9144AC3E900210B60E3610AE078
:1037600092F90E5093F90E00854216DD5168C3E9B7
:1037700000210B605360A5690B4B9D4200D005B939
:10378000E568A3689D4202D0284600F023F96561F0
:103790003046BDE87040FFF717BE8A42DAD01268A3
:1037A000D7E700BF340B00204C0B0020F8B550EADF
:1037B000010306460C4603D1FFF7B6FF0020F8BD13
:1037C000EFF31187202383F31288BFF36F8F124D1D
:1037D000124BA8681860FFF751FEA86810492346ED
:1037E0003246183000F092F9AA68137C43F00403C3
:1037F000137404463846FFF7E7FDAB68D3E90A23A4
:10380000B3F1004F08BF002AD8D102F011FB201AF3
:1038100020EAE070D3E700BF340B0020580B0020F3
:10382000D55C0000014B9868704700BF340B002046
:103830002DE9F84304468789EFF31186202383F3AB
:103840001288BFF36F8F037C190705D586F31188A3
:10385000BFF36F8FBDE8F883D90943F0080272D136
:103860000274A36813B1204602F0D0F904F11800E5
:1038700002F0A9FAA56D04F15808A84511D04FF03F
:10388000000975B1284602F0C1F905F1180002F0EF
:103890009AFAC5F8AC902846FFF7B0FDA56DA8458B
:1038A000EFD1DFF8C480D8F808309C4253D1EFF351
:1038B0000589B9F1000918BF4FF00109D8F818506F
:1038C0002A4A954200D00DB9D8F80C50AB4202D02C
:1038D000284600F07FF82046C8F8145001F073F82D
:1038E000204600F0C7F8B9F1000F02D02048FFF7DA
:1038F0005DFDD8F808309C4230D1EFF305836BBBF7
:10390000A289D20711D586F31188BFF36F8F83F395
:103910001188BFF36F8F0423184602DFEFF311867F
:10392000202383F31288BFF36F8F3046FFF74CFDDF
:10393000FB078FD5002383F31188BFF36F8F042318
:10394000184602DF86E703F07F0343F008030374A1
:1039500002F054F985E74FF00009AFE786F31188CC
:10396000BFF36F8FE4E700BF340B00204C0B002047
:1039700078040020027C12F01F02034610D10A498D
:1039800088420DD00949086868B1D9897F2909D8CA
:1039900093F90E20064B1B689A42B8BF002070476F
:1039A000002070471046704718030020E0000020F8
:1039B0005C0B0020044BC01A044BC0105843044B4E
:1039C00001221A54704700BF28050020ABAAAAAAFA
:1039D0009F0B002070B50C4B0C4D1E7CFFF7CAFFEF
:1039E000182303FB06550446284602F0ECF9084B61
:1039F00000229A553CB1621E28460649BDE8704037
:103A0000D31700F083B870BD340B002028050020C8
:103A10009F0B0020B539000038B5EFF31185202346
:103A200083F31288BFF36F8F0F4B104A9C681068A6
:103A3000A04206D1FFF7CEFF85F31188BFF36F8F49
:103A400038BD00211B7C1160094AD35C002BF3D0E8
:103A50002046FFF78FFF0028EED0237CDB0601D144
:103A6000FFF758FD2046E5E7340B0020580B0020F7
:103A70009F0B0020EFF31181202383F31288BFF303
:103A80006F8F0A4A136A834207D11B6F136281F357
:103A90001188BFF36F8F70471346002BF7D01A6F52
:103AA0008242F9D1026F1A67F1E700BF340B0020A0
:103AB000024B1868984208BF00207047E4000020BD
:103AC000034B1B680BB9FEF7ADBD0020704700BF6C
:103AD000600B002030B570B10B4B5B6898420AD088
:103AE000036843B1D3E90421D0E90445121941EB3D
:103AF0000501C3E90421D0E9003213605A600023B4
:103B0000C0E9003330BD00BFE4000020B3F1FF3F47
:103B100008BFB2F1FF3F2DE9F84F0446994615461C
:103B20001F467AD08160EFF31188202383F3128837
:103B3000BFF36F8FB9F1000FDFF8E4A020DBFFF7D0
:103B4000BFFFDAE90027013549F100092D1849EBDB
:103B5000E073C4E90453AD18064643EB07074FF082
:103B60000109FFF7A5FFDFF8BCE0DEF804A003467B
:103B7000EBB9C4E900EACAF80040CEF8044028E0F6
:103B8000DAE900126FF001035B1A4FF0FF3161EBCD
:103B900002025B1B62EB0902012B72F10001BCBF48
:103BA00001230022C0E904324FF00009D9E7D3E92C
:103BB000041CD4E904208A4270EB0C0B24DA891A25
:103BC0005A686CEB0000C3E90410C4E900321460C9
:103BD0005C60FFF76DFF84420ED1134B1B685BB92D
:103BE000B9F1000F02D1FFF76BFF0646304602F035
:103BF000D3F80021FEF7E8FC88F31188BFF36F8F3C
:103C000028463946BDE8F88F521A60EB0C00534540
:103C1000C4E90420ADD01B68AAE700252F46EFE7D2
:103C200040050020E4000020600B00202DE9F04753
:103C3000DFF8A890DFF8A880C9F800000246FFF777
:103C400037FF0D4600260027D8E900134FEAE27E31
:103C500050B1D0E9044CA2427EEB0C0A1BDAA41A44
:103C60006CEB0E06C0E9044652184FF0000443EB1B
:103C70000E032046C8E90023C9F8004002F08CF882
:103C80002146FEF7A1FC85F31188BFF36F8FBDE8D5
:103C9000F047FFF7C1BE611843EBE473C0E9046766
:103CA000C8E90013FFF716FF01224FF00043C0E9F7
:103CB000042385F31188BFF36F8F83689847EFF370
:103CC0001185202383F31288BFF36F8FD9F800206A
:103CD000121BC9F80020FFF7EBFEB5E7600B0020D0
:103CE0004005002010B5EFF31184202383F31288E0
:103CF000BFF36F8FFFF7E4FE054A0346D2E90001E8
:103D0000181841EBE37184F31188BFF36F8F10BD76
:103D100040050020F8B50446EFF31187202383F314
:103D20001288BFF36F8FD0E90423B3F1004F08BFAF
:103D3000012A04D087F31188BFF36F8FF8BDD0E953
:103D40000A566A1C46F10003022A73F1000334D3B9
:103D5000013D46F1FF36002EBCBF00252E4602F085
:103D60006BF8013041F10001401946EB01010128D7
:103D700071F1000148DB02F05FF8013041F1000110
:103D80006FF00203401946EB010183426FF00043DC
:103D90008B413EDB02F050F8013041F100016FF041
:103DA0000102401946EB0103121A4FF0FF3161EB9B
:103DB00003031A492046FFF7A9FE236B013323634F
:103DC000236A63B187F31188BFF36F8F204698474A
:103DD000EFF31187202383F31288BFF36F8F54F81A
:103DE000185FA542A6D0002DA4D0284601F04DFFB3
:103DF0000023C5F8AC3087F31188BFF36F8F2846D6
:103E0000BDE8F84001F032BF6FF001024FF0FF3320
:103E1000CFE700224FF00043CBE700BF153D000085
:103E20002DE9F04105461C4690461F46EFF31186EA
:103E3000202383F31288BFF36F8FB4F1FF3F08BFD5
:103E4000B2F1FF3F05D186F31188BFF36F8FBDE854
:103E5000F081002C09DB012A74F10003BCBF0122B0
:103E6000002412F1FF3844F1FF37284601F0ABFF80
:103E7000DDE906010023C5E90A012B6342463B4602
:103E800028460249FFF742FEDDE700BF153D00006E
:103E900070B50546EFF31184202686F31288BFF330
:103EA0006F8F01F090FF20B184F31188BFF36F8F03
:103EB00070BD6B6A63B184F31188BFF36F8F6B6A57
:103EC00028469847EFF3118486F31288BFF36F8F6B
:103ED00005F1180001F00EFF0028E5D001F0C6FE44
:103EE00021460248BDE8704001F01ABFA00B002037
:103EF00010B50A4C23681BB101232360002010BDBC
:103F000000F0F0F80028F7D00138062803D8044B59
:103F100053F8200010BD034810BD00BF640B002003
:103F2000D8630000FE8FFFFFBFF34F8F0549064B9C
:103F3000CA6802F4E0621343CB60BFF34F8F00BF47
:103F4000FDE700BF00ED00E00400FA0510B4094BE6
:103F500009490A4C4FF0FE32C3F800244968C3F8FF
:103F60000424C3F80824C3F80C240023C4F8003543
:103F700010BC084700B00250EC00002000A0025026
:103F8000D0E90012014BC3E900127047EC00002099
:103F900010B5044650B1636813F0685F05D0064A57
:103FA000934202D000232360626010BD034B04489B
:103FB0005B689847EFE700BF2C5F5CA9EC0000202E
:103FC000F4630000C8B143680D4A934213D013F064
:103FD000685F0ED0012350E8002F194640E8001C0E
:103FE0009CF0000FF7D1012AF5D0BFF35F8F0020BE
:103FF000704704487047044870476FF4E0407047CA
:104000002C5F5CA9E98FFFFFEA8FFFFF80B1436857
:10401000094A93420AD013F0685F05D0BFF35F8F5F
:1040200000230360184670470448704704487047EF
:104030006FF4E040704700BF2C5F5CA9E98FFFFF81
:10404000EA8FFFFF10B5044620B1044B63600022E5
:10405000226010BD0248FFF779FFF6E73A00003A08
:104060001C64000010B5D0E90023194C6360D0E94E
:104070000230C4E902302260164BD1F800C0C3F808
:1040800000C0D1F804C0C3F804C01348D1F808C078
:10409000C3F808C0D1F80CC00969C3F80CC0196195
:1040A000436813F0685F04D00C490023C0E9003175
:1040B00090470B48436813F0685F07D007492368AF
:1040C0000022C0E90021BDE81040184710BD00BF24
:1040D00008010020F4000020280100202C5F5CA9CA
:1040E0002001002008B500F013F830B900F014F8F2
:1040F00028B9064AC2F80C0A08BD032008BD00F022
:1041000009F800F043F8042008BD00BF00B00250D9
:10411000002070470020704710B5154800F05EF889
:1041200000B110BD134800F059F80028F9D1124C25
:10413000204600F053F80028F3D1104B10481C60C3
:1041400000F04CF80028ECD10E4800F047F80028A9
:10415000E7D10D4800F042F801460028E1D100F017
:1041600039F8044608B900F04DF8204610BD00BFEC
:104170006801002064010020600100205801002037
:104180005C010020540100205001002008B50B48BC
:1041900000F02EF80A4800F02BF80A4800F028F842
:1041A000094800F025F8094800F022F8084800F016
:1041B0001FF8BDE8084000F00FB800BF68010020FC
:1041C00064010020600100205C01002054010020F7
:1041D0005001002000207047704700BF08B5034B16
:1041E00002681B6810689847002008BD080100207D
:1041F00008B5034B02685B6810689847002008BD4B
:104200000801002070B5094C094D2069AB6898473A
:1042100018B1084B08485B689847084AEB68206962
:1042200000211160BDE87040184700BFF400002075
:1042300008010020EC00002040640000800B0020FA
:104240002DE9F04F8BB04368009383789C0780463C
:10425000924640F1F98000250878002800F0F680A9
:1042600025280AD04B1C019301354146009B9847F5
:104270000028C0F2E3800199EEE74E788B1C252ED2
:104280000193F1D00027B9463C460A221F2C22D8C0
:10429000A6F12003102B20D8DFE803F0141F1F1A0B
:1042A0001F1F1F0B1F1F1F121F171F1F090044F086
:1042B0000104019B13F8016B0193002EE6D13AE053
:1042C00044F0020444F00404F3E744F00804F0E787
:1042D00044F01004EDE77F2C24D8A6F13003092B1D
:1042E00008D860064EBF02FB073702FB093944F0CD
:1042F0002004DEE72A2E0DD161065AF8043B53D480
:10430000002BA7BF44F020049946C3F1000944F0F4
:104310002804CEE72E2E05D1630600F1978044F0E5
:104320004004C6E76C2E2ED028D8682E32D06A2ED4
:1043300037D04C2E35D0002F46F02003B8BF24F0E4
:104340004004A3F16502BCBFA4B20027022A01D930
:10435000612B2BD10AF1070A2AF0070A9C4E0AF1B9
:10436000080A0727210760D506EB070B34465C4592
:104370005DD1AE1BA219A9EB070959E1742E98D0A3
:104380007A2E96D0D7E7260648BF44F4007444F04E
:1043900080048EE7E00548BF44F4007444F4807460
:1043A00087E744F4207484E71F4682E7A6F163029E
:1043B000122A00F2D880DFE812F013004D00D60078
:1043C000D600D600D6004D00D600D600D600D600C6
:1043D000D600E800D100D600D6001A00D600A00012
:1043E0005AF8043B8DF81030012704AEBAE75AF8AA
:1043F000046B784B002E08BF1E4614F0400F14BF0C
:1044000039464FF0FF31304601F067FD0746A9E716
:10441000009B41462020984700280FDB013CA74223
:10442000F6D34D442D1BA1469EE74C46F7E714F802
:10443000010B009B41469847002898DA98F8023013
:1044400043F0040388F802304FF0FF3528460BB0E4
:10445000BDE8F08F220630D5A3052AD50AF1070A58
:104460002AF007039A4659685AF8080B24F0100BF3
:1044700000291FFA8BFB2FDA404261EB41014BF41C
:10448000806B04AC0A23224601F033FD1BF0400F81
:10449000A0EB040200F08E802BF001049742A4B23E
:1044A00040F38F80002E40F08E802BF01104A4B2D8
:1044B0001DE05AF8040BC117D8E7E0055AF8041BB1
:1044C00001D40846F7E7A2054BBF48B208B241F352
:1044D000C01141F3C031C9E750EA0103D1D16306ED
:1044E000CFD5002FCDD124F01104A4B23A463B46DB
:1044F00040F206410C4262D124E024F01004A4B240
:104500000A2314F0800243D014F400711FBF0AF193
:10451000070A2AF007029246516814BF5AF8080B9E
:104520005AF8040B50EA01023ED124F0160B620641
:104530001FFA8BFB3CD5002F3AD124F01704A4B20C
:104540003A463B4621075AD4E10705D5994572DD25
:10455000A9EB03039F184B469B464AE044F0100426
:1045600010237826CDE7782B04D1C6F1780343F0E9
:104570001003C6E7009B4146252098470028FFF618
:104580005DAF02354146304670E608230026B8E7A5
:1045900014F480715AF8040BC4D014F400711ABFDB
:1045A000C0B2114680B2BDE724F006041FFA84FBB6
:1045B00004AC68E713465C46E10699D52EB9013391
:1045C000C0E71346F8E73B46F6E70233BAE700BF19
:1045D000CC690000C5690000CDE902324146009B6C
:1045E000202098470028FFF629AFDDE902320BF1C1
:1045F000010BD945F0DCEB1A03EB0B055B46E1063A
:1046000027D5CDE902324146009B3020984700284B
:10461000FFF614AFDDE902327EB901352F44791B74
:104620008A4229DB144604AE9CBB2A44A9EB030949
:104630001546914442E017468EE7CDE90232023535
:1046400041463046009B98470028DDE90232E5DA12
:10465000F4E640F206410C42E0D014F0020F14BF21
:104660002B20202014F4806FCDE9023205F10105E2
:10467000414618BF2D20E5E7CDE902324146009BB7
:10468000302098470028DDE9023205F10105C6DA3D
:10469000D4E6013CCDE90232305D009B41469847AB
:1046A0000028DDE90232BFDAC8E6009B414620203F
:1046B0009847002805F10105FFF6C0AEA9EB0503F8
:1046C000002BF2DCD7E500BF7047F0B4034600686A
:1046D0001979DB88066987683468DA0754BF43F4C0
:1046E000D01383F4B01301258D4023F48012DB072F
:1046F0004CBF2C43AC4334603B68F0BC18470346C6
:1047000001211B790068994083685B69184700EBB9
:10471000C100408840087047F8B50346FFF7F7FF2F
:10472000B0FA80F0C0F11F0003EB800CCA00DCF887
:104730001060171D0C4606328DB256B9012101FAE0
:1047400000F0D9680143D960CCF81040DD539D5288
:10475000F8BDF1000431585AD85303EBC0009E5203
:10476000C5805D52F4E7043A2DE9F843CC1D1144AD
:1047700024F0070421F00706A6EB04084FEAD80747
:10478000B7FA87F2C2F12405AD004FF000090735F2
:10479000C2F12002ED0804604946A760C4F80C90FD
:1047A000920004F1100001F07DFBAAB2530043F027
:1047B000010363807B1B9BB204EBC5015800A4F886
:1047C0000090488024F83520A6F8029024F808309C
:1047D00004EBC70329465A8842F001025A8020465A
:1047E000BDE8F843FFF798BF002070470FB407B546
:1047F00004A951F8040B0191FBF78EFE03B05DF89C
:1048000004EB04B07047038B13F0070306D1036871
:10481000002B18BF032008BF00207047022B05D1D2
:10482000408BB0FA80F0400980007047012B04D122
:104830000368002B18BF0520EDE70020704710B576
:104840000C4600B111B96FF0150010BD081D00F045
:1048500087F80028F9D1A368032BF6D9F3E72DE9EF
:10486000F0410D4607461946281D90461E4600F0A9
:1048700088F8044638B13346424629463846A446AD
:10488000BDE8F0416047BDE8F08110B4EFF311825C
:10489000202484F31288BFF36F8F416110BC012183
:1048A000FBF76CBE38B50C46054658B151B10B68E4
:1048B00043B14B6833B11C22002101F0F3FA2C61A3
:1048C000002038BD6FF01500FBE7F8B504460E4632
:1048D000FFF7B5FF051E3BDBEFF31182202383F3C7
:1048E0001288BFF36F8F638B278B4FF6FF718B425C
:1048F00007F007072ED0062F2FD8DFE807F0182E75
:10490000082E180418006FF08505002303E001331A
:1049100063830225012382F31188BFF36F8FBBB13C
:1049200000233A4631462046FFF799FF10E0002366
:104930003360636823B9C4E9006627B13D46E4E704
:104940001E606660F9E702212046FBF717FE3D4630
:104950002846F8BD6FF00A05D7E76FF00405D4E7E5
:10496000034658B1426802F00302012A03D0032A29
:1049700004D1026812B10020986070476FF01500F2
:1049800070474268816002F00302032A4FF0000280
:1049900003460CBF006810465A6070477047FEE738
:1049A00001F080BA01F057BA01460068FCF702B87E
:1049B00008B5FCF72FF8BDE80840FCF78FBB0021D5
:1049C0000120FBF7F7BF6FF08500704761B662B654
:1049D00080F31188BFF36F8F704772B6002383F3A3
:1049E0001188BFF36F8FBFF34F8F30BF62B6BFF335
:1049F0006F8F704772B6002383F31188BFF36F8FF8
:104A0000BFF34F8F20BF80F31188BFF36F8F62B663
:104A10007047202809D9B0F1004F08D80138B0FA02
:104A200080F0C0F11F0040007047082070473E2012
:104A3000704708B5FCF734FD002008BD0369C9B212
:104A40000C2202FB0133186C00F00700704770B5B0
:104A50000346C9B20069EFF31186202484F312885B
:104A6000BFF36F8F0C2505FB0104246C14F0C00408
:104A700001D0A24210D105FB0100012202640020F6
:104A800086F31188BFF36F8F28B95B6803EBC1030E
:104A90005B689847002070BD4FF0FF30F0E7802240
:104AA000FFF7D5BFF8B5069F04690546C9B2EFF315
:104AB000118C202080F31288BFF36F8F0C2606FB29
:104AC0000146306C00F0070EBEF1010F11D13764C2
:104AD00000268CF31188BFF36F8F46B90C2000FBC2
:104AE0000144C4E90E236B6853F8313098473046CF
:104AF000F8BD00F0C00087420CBF6FF077064FF0A2
:104B0000FF36E6E713B580240094FFF7CBFF02B031
:104B100010BD10B40069CBB21C2404FB03000021BB
:104B200010BC10471046FEF771BB00F0EDBCFDF75E
:104B300041BF43685B68D3F810350B6000207047B5
:104B400043685B6802EA010021EA0201C3F8080534
:104B5000C3F80C150020704743685B680020C3F859
:104B60000815704743685B680020C3F80C15704750
:104B700043685B68D3F8042521EA02001140C3F8BA
:104B80000805C3F80C150020704730B50369586854
:104B900000B30024884219D108688CB99C68586019
:104BA000A14200D19860002008602AB15A680A60CA
:104BB0009A68596002B9996000200FE02846E9E739
:104BC00020609868814208BF9C60ECE70568044655
:104BD000002DF3D1002AE9D16FF0150030BDFDF7AB
:104BE000F9BF30B543681360057A446804EBC50427
:104BF000A34202D36FF0010030BD5C798C4203F117
:104C00000803F0D10020F7E743681B68D3F880045D
:104C1000C3F88004704703691A6813680BB15268BF
:104C20001847704730B587B004460D46142200215E
:104C300001A801F037F904230DEB030120468DF89C
:104C400004300295FFF7E7FF07B030BD70B586B0BE
:104C5000066904460D461422002101A801F022F93C
:104C600002238DF8043033681B6C029333689B6C0D
:104C700001A92046CDE90335FFF7CDFF06B070BD91
:104C800030B503691C6843681B68EFF31185202069
:104C900080F31288BFF36F8F206CA8B1E06CB0B9BD
:104CA000C4E91312042AC3F83415C3F8382582BFA7
:104CB000D3F8002242F02002C3F80022002085F33E
:104CC0001188BFF36F8F30BD6FF00C00F7E76FF006
:104CD0000F00F4E70369186820B101601B68002029
:104CE0005A6070476FF08500704710B542680069E0
:104CF0001368006860B9D3F8104164B1526A127841
:104D00000A70C3F81001D3F8102101221A6010BDF7
:104D10006FF08500FBE74FF0FF30F8E738B54268E9
:104D2000036915681A68D2F8A01051B1002482F8FE
:104D3000B84018686830FFF7ABF80123EB602046F5
:104D400038BD6FF00D00FBE7406BFFF7E7BF10B514
:104D500003691968D1F8A420D1F8B040121B13D010
:104D6000082A28BF08224068C1F8AC201968806969
:104D7000C1F8A8001B68D3F8A010D3F8B0301944CC
:104D800001F069F8012010BD1046FCE710B504469B
:104D900012EA030005D0605818B10023635063582D
:104DA000012010BD02680346D2F8580140B95B6883
:104DB000DB0706D4D2F82001003818BF0120704765
:104DC0000120704713B501AA0446FFF70AFF002827
:104DD00005DB019B226819791868FCF70BFF02B00C
:104DE00010BD10B402694468936823EA0101916020
:104DF00011F0030108D143681B68C3F80015E0688F
:104E000010BC0121FFF7DEBF10BC704710B502696E
:104E100093681943916013F0030107D143681C683C
:104E2000D868FFF7CFFF0823C4F8003510BD10B5D0
:104E300043681C68C4F84415C4F848250022C4F827
:104E40002021D4F82011C4F858215B68D4F85821E7
:104E50009B0702D50121FFF7D9FF0123A36010BDF5
:104E600010B504464068FFF79DFF0B6848B9012262
:104E700083F8B82063681B684FF48002C3F80423EA
:104E800010BD002283F8B8200B684FF0FF32C3F842
:104E9000B4200B682046D3E92A12FFF7C8FFE9E7E0
:104EA000F8B503691D68436804461E680F4605F19E
:104EB0000800FEF7EDFFEFF31182202383F3128841
:104EC000BFF36F8FEB6C53B1D6F8003223F02003A1
:104ED000C6F800320023C6F84C31D6F84C31002316
:104EE00085F8633017B1012385F8643023691968A8
:104EF000012381F86230616809684B6082F3118890
:104F0000BFF36F8FF8BD08B503691B681B6C23B135
:104F10000121FFF7C5FF002008BD6FF00D00FBE782
:104F20002DE9F84303691C6843681E6894F86130F2
:104F3000174600228846D6F83C1584F86120A26CFA
:104F40009B1A19440029054601DDFFF77FFE216CFD
:104F50002846FFF767FEE36C2364236D6364002338
:104F6000C4E91333A36494F86330F3B1EFF3118908
:104F7000202383F31288BFF36F8F236CBBB1D6F865
:104F8000003223F02003C6F80032B8F1000F08D138
:104F90003FB901233360C6F84471D6F8443184F830
:104FA000627089F31188BFF36F8FBDE8F883D4E98D
:104FB0001632134303D004F10800FEF769FF2B6992
:104FC0001A68012382F862306A6812685360E8E761
:104FD00010B5446B636822691B681268D3F8081126
:104FE00039B10021C3F80811D3F8083182F86010F4
:104FF00010BD92F860300133DBB2042B82F86030D0
:10500000F6D1FEF745FF23691A68D36CB3FA83F330
:105010005B0982F8623063681B6801225A60E7E727
:105020002DE9F04F43681D680369D5F804731E68C5
:105030008DB0044603934FF400323B464FF4A27107
:105040002846FFF7A3FE814608B196F862903B46DA
:1050500010224FF488712846FFF798FE3B46042241
:105060004FF4847180462846FFF790FE3B4604903B
:105070004FF400224FF4A6712846FFF787FE3B4607
:1050800082464FF400724FF492712846FFF77EFE7D
:1050900020B363681B680593D3F880B41422002101
:1050A00007A800F0FFFE06221BF0010F059B8DF8FC
:1050B0001C2042D11BF0020F41D11BF0040F40D144
:1050C0000BF008028DF8202007A92046C3F880B411
:1050D000FFF7A1FD00212046FFF7E2FE049B93B1FC
:1050E00023696268D2F800B01A68002182F8601063
:1050F0001868D0E91623CDE900230830FEF790FEAA
:105100000423CBF80833B8F1000F02D1BAF1000F35
:105110003BD0F36CBBB1B8F1000F03D1C5F81081DF
:10512000D5F810314A4651462046FFF7F9FEBAF14C
:10513000000F2AD04FF0000808E00122C2E7022247
:10514000C0E70422BEE7BAF1000F16D014220021F6
:1051500007A800F0A7FE03238DF81C3023691A6806
:10516000D2E9163213431FBF63681B680422C3F8D9
:10517000042307A92046FFF74EFDB8F1000F04D025
:10518000002211462046FFF7CBFEB9F1000F22D0D6
:105190004FF0000986F862902369D4F804A0D3F890
:1051A0000080D8F8401021B12046FFF73BFDC8F839
:1051B000409098F86430002B00F08A80002388F833
:1051C000643063681B680022C3F808212046D3F8C6
:1051D0000831FCF7E3FDF80519D5D5F82031B3B156
:1051E00063681B68EFF31182202181F31288BFF3FB
:1051F0006F8FD3F8201131B10021C3F82011D3F8FB
:1052000020110121D96082F31188BFF36F8F7902D9
:105210003DD5D5F85831002B39D063682569D3F8CE
:105220000080EFF31189202282F31288BFF36F8F81
:105230002A685B68D2F8B4100029ACBFD2F8B47009
:10524000D8F84C759A0707D54FF48003C8F808338F
:1052500001212046FFF7C5FD89F31188BFF36F8F49
:105260002868D0F8A03093B190F8B820002A53D025
:10527000EFF31187202383F31288BFF36F8F294642
:105280002046FFF7EDFD87F31188BFF36F8F039B77
:10529000BFF35B8F083353E8002F22F0040143E88B
:1052A00000100028F7D1BFF35B8F530770D5716CE6
:1052B0002046FFF7CBFC2046316CFFF7B3FC002300
:1052C0002046C6E910330DB0BDE8F04FFCF766BDCF
:1052D000DAF804309B077FF574AF62681368D2690F
:1052E000C3F834250522C3F838250122DA62D3F841
:1052F0001021002AFBD00021C3F81011D3F810218F
:10530000D3F84C212AB1C3F84C11D3F84C21D3F86F
:105310003C2588F8612054E7D0F8A820934210D0AB
:10532000D0F8AC20D0F8B030BA423B442ED1C0F80F
:10533000B0302046FFF70BFD002899D12868D0F83F
:10534000B0706830FEF7A4FD1422002107A800F019
:10535000A9FD2B68D3F8A030CDE908372B68D3F826
:10536000A4309F421CBF01238DF81C304FF48003F2
:10537000C8F808332A680023C2F8A0302A6807A9B1
:10538000C2F8A4302046FFF746FC80E71F46D8E766
:105390000DB0BDE8F08F00F150039B009BB203F10C
:1053A000804303F5883300221A601B687047FEF7BC
:1053B0009FBD08B5FBF7EAF9FBF7BEFABDE8084068
:1053C000FEF796BD4FF08053D3F83021082A03BF73
:1053D000D3F83401B0FA80F040090020704703464A
:1053E0000020184700F051BB10B502461168B1B15A
:1053F000BFF35B8FB1FA81F3C3F11F000123834038
:1054000021EA030352E8004F8C4204D142E8003CF9
:10541000BCF1000FF6D1BFF35B8FE7D110BD6FF089
:105420000B00FBE710B50368CB40DB0714D4012366
:105430008B400268BFF35B8F43EA020150E8004FE4
:10544000944204D140E8001CBCF1000FF6D1BFF338
:105450005B8FEED1002010BD6FF01500FBE770B53B
:105460000C460021054608461646FDF7C9F948B91D
:105470003378DB0003F1804303F5F833C3F81055AC
:10548000C3F8144570BD10B1012802D07047FDF774
:1054900091BAFDF741BA18B1012803D100F019B84B
:1054A00000F032B8704708B5FDF752FABDE8084081
:1054B000FDF7C0BA4FF08053D3F83021082A06D147
:1054C000D3F8340102288CBF00200120704700204F
:1054D0007047FDF7E7B938B54FF080440223C4F8B0
:1054E00008330123E3600023C4F80431D4F8043105
:1054F00042F21075D4F81834DB0304D50120FFF70D
:1055000071FF013DF6D138BDFFF7E5BFF7B501905A
:1055100001A8DDE9084716461D46FDF7C3FA019BC1
:10552000B6F1000C18BF4FF0010C00EB83000B1E0E
:1055300018BF0123002D43EA4C030CBF4FF0000CB1
:105540004FF00C0C002C43EA0C030CBF4FF0000C86
:105550004FF4E06C002F43EA0C03D0F800270CBF97
:105560004FF0000C4FF4403C43EA0C0322EA0303E3
:1055700001B109780EB13678760019430DB12D7856
:10558000AD0031430CB12478240229430FB13F7898
:105590003F040C433C43C0F8004703B0F0BD1FB5C7
:1055A0000DF10F03019300238DF80F1000931A469D
:1055B0001946FFF7ABFF05B05DF804FB10B50446D4
:1055C0000846FDF77FFA04EB4004207DC0F340104D
:1055D00010BD10B504460846FDF774FA04EB40040C
:1055E000207DC0F3400010BD10B504460846FDF70D
:1055F00069FA04EB4004A08A400B10BD70B5044664
:1056000008461646FDF75EFA08300D4634F81030AD
:10561000DA0509D5C3F3432304EBC302314654F83A
:105620003330526828469847A3682BB1E268314668
:105630002846BDE87040184770BD10B504460846BE
:10564000FDF740FA04EB4000838ADA051DD5C3F369
:10565000432123F4F853838204F1120204F172000F
:1056600032F8023F13F4807F03D0C3F343239942FF
:105670000BD08242F4D104EBC10300225A6004F142
:105680007800BDE81040FFF7CDBE10BDF0B5034671
:1056900000F58074002005460127844695420AD112
:1056A000D3F87C2132B10022C3F87C21D3F87C31BD
:1056B00040F00040F0BD25F0404607FA06F63142C2
:1056C00009D0D4F800E0BEF1000F04D0C4F800C047
:1056D000D4F800E0304301350434DFE738B5044640
:1056E0000D46FFF76BFFA8B12046FFF772FF88B9A0
:1056F0002046FFF779FF226801238340C2F8083370
:10570000236803EB8000D0F8103523F00303C0F8C2
:10571000103538BD28460021BDE83840FFF73FBFAF
:105720002DE9F043174685B004460846FDF7CAF94F
:10573000D7F800800E460546B8F1000F1ED020466F
:10574000FFF747FF18B12046FFF738FF20BB0023C3
:10575000CDE900338DF80E308DF80F300DF10F02CA
:1057600043460DF10E013046FFF7D0FE04EB450233
:10577000938A23F0020343F0010393827B689BB377
:105780003146204693F80080D3F80490FFF721FFBC
:1057900028B1B9F1000F1FD06FF0150027E004EB1E
:1057A0004500838A23F4604323F020038382B9F108
:1057B000000F11D0B8F1030FEED87B6821685B6849
:1057C00093F800C04FEA8C031944B8F1000F11D1CF
:1057D000C1F81085C1F8108504EB4502938A23F0C7
:1057E0001C0343EA88039382BB6843BB002005B0D7
:1057F000BDE8F083D1F8102522F00302C1F810258E
:1058000022681344D3F8102522F44F3222F4407258
:10581000C3F810253202D3F8101502F47C5242EA84
:1058200008420A43C3F8102504EB4C03A3F87C603C
:10583000838A43EA4C3343F020038382CCE7D3E9E5
:10584000007831462046FFF7F8FE002FCED063687F
:105850009F4206D004F17800FFF7C6FD002804DA65
:10586000C5E7A3689845F5D1002004EBC003C3E960
:10587000017804EB4505C0B2AB8A43EA402343F408
:105880008073AB82B2E72DE9F043054685B0084648
:1058900016461F46FDF716F90C46804626B32846E5
:1058A000FFF797FE18B92846FFF788FE18BB05EBEF
:1058B0004809B9F8143003F01C0313B17378012BB5
:1058C00019D001238DF80F300023CDE90063721C3D
:1058D000B31C0DF10F012046FFF718FEB9F8143084
:1058E00043F00303A9F81430002F3FD02146284687
:1058F000FFF76FFE20B96FF0150005B0BDE8F0832B
:105900003E782B6803EB86030022C3F81025C3F80A
:10591000102505EB48024FEA860C938A23F4604376
:1059200023F020039382787800B32968BF7861441C
:105930000004D1F8103523F4991323F4F853C1F877
:105940001035230200F4403003F47C530343380540
:10595000D1F8105500F4801003432B43C1F81035E3
:10596000938A43EA463343F0200393820020C4E73E
:10597000C0E90312704770B504461546FFF71EFED6
:1059800048B10846FDF79EF804EB40040020A38AC6
:105990005B0B2B7070BD6FF01500FBE738B590F80E
:1059A0008C4005469CB960222146143000F07AFAFA
:1059B0002868C0F87C41D0F87C3140F30730FBF711
:1059C000DDFA012385F88C30AB67204638BD6FF0D7
:1059D0007700FBE790F88C00003818BF0120704773
:1059E000FDF7AAB82DE9F34104461746FFF7E6FD97
:1059F0000D462668F0B12046FFF7EBFD8046C8B99A
:105A00002046FFF7F1FD820002F5807346F803801F
:105A1000F35823681344D3F8102542F00102C3F869
:105A2000102527B1226801238340C2F8043302B055
:105A3000BDE8F081D6F80433002BA4BF4FF000433B
:105A4000C6F804332846FDF73DF804EB4004A38A6A
:105A5000C3F38203042B12D0052B12D001A80195A9
:105A6000FDF720F8019BD0F81015D94001F0010195
:105A70000231284602B0BDE8F041FFF790BD032196
:105A8000F7E70221F5E7FFF729BE08B1FBF74ABDAA
:105A9000704710B5436904463BB90020E26853786B
:105AA00043F001035370404210BD98470028F4D0E2
:105AB0000028B8BF4042E368FF28A8BFFF20187045
:105AC000ECE740B1C368587810F001001EBF1878A9
:105AD000B0FA80F040097047EFF31183202383F37D
